{
	"contracts/LP.sol": {
		"LP": {
			"abi": [
				{
					"inputs": [
						{
							"internalType": "address",
							"name": "_collection",
							"type": "address"
						}
					],
					"stateMutability": "nonpayable",
					"type": "constructor"
				},
				{
					"anonymous": false,
					"inputs": [
						{
							"indexed": true,
							"internalType": "address",
							"name": "player",
							"type": "address"
						},
						{
							"indexed": true,
							"internalType": "uint256",
							"name": "bossLevel",
							"type": "uint256"
						},
						{
							"indexed": false,
							"internalType": "uint256[]",
							"name": "damages",
							"type": "uint256[]"
						}
					],
					"name": "BossDefeated",
					"type": "event"
				},
				{
					"anonymous": false,
					"inputs": [
						{
							"indexed": true,
							"internalType": "address",
							"name": "previousOwner",
							"type": "address"
						},
						{
							"indexed": true,
							"internalType": "address",
							"name": "newOwner",
							"type": "address"
						}
					],
					"name": "OwnershipTransferred",
					"type": "event"
				},
				{
					"anonymous": false,
					"inputs": [
						{
							"indexed": true,
							"internalType": "address",
							"name": "player",
							"type": "address"
						},
						{
							"indexed": false,
							"internalType": "uint256",
							"name": "_indexRoom",
							"type": "uint256"
						},
						{
							"indexed": false,
							"internalType": "uint256[]",
							"name": "damages",
							"type": "uint256[]"
						}
					],
					"name": "duelAttackLogs",
					"type": "event"
				},
				{
					"inputs": [
						{
							"internalType": "address",
							"name": "",
							"type": "address"
						},
						{
							"internalType": "uint256",
							"name": "",
							"type": "uint256"
						}
					],
					"name": "RiseClaimMap",
					"outputs": [
						{
							"internalType": "bool",
							"name": "",
							"type": "bool"
						}
					],
					"stateMutability": "view",
					"type": "function"
				},
				{
					"inputs": [
						{
							"internalType": "uint256",
							"name": "",
							"type": "uint256"
						}
					],
					"name": "bosses",
					"outputs": [
						{
							"internalType": "uint256",
							"name": "health",
							"type": "uint256"
						},
						{
							"internalType": "uint256",
							"name": "dodgeChance",
							"type": "uint256"
						},
						{
							"internalType": "uint256",
							"name": "attackDamage",
							"type": "uint256"
						}
					],
					"stateMutability": "view",
					"type": "function"
				},
				{
					"inputs": [
						{
							"internalType": "uint256",
							"name": "_amountEnergy",
							"type": "uint256"
						}
					],
					"name": "buyEnergyForTokens",
					"outputs": [],
					"stateMutability": "nonpayable",
					"type": "function"
				},
				{
					"inputs": [],
					"name": "calculateTestDamage",
					"outputs": [
						{
							"internalType": "uint256",
							"name": "",
							"type": "uint256"
						}
					],
					"stateMutability": "view",
					"type": "function"
				},
				{
					"inputs": [
						{
							"internalType": "uint256[]",
							"name": "_tokenIds",
							"type": "uint256[]"
						}
					],
					"name": "checkOwnershipOfTokenIds",
					"outputs": [
						{
							"internalType": "bool",
							"name": "",
							"type": "bool"
						}
					],
					"stateMutability": "view",
					"type": "function"
				},
				{
					"inputs": [
						{
							"internalType": "uint256[]",
							"name": "_tokenIds",
							"type": "uint256[]"
						}
					],
					"name": "checkOwnershipOfTokens",
					"outputs": [
						{
							"internalType": "bool",
							"name": "",
							"type": "bool"
						}
					],
					"stateMutability": "view",
					"type": "function"
				},
				{
					"inputs": [
						{
							"internalType": "uint256",
							"name": "_orderPosition",
							"type": "uint256"
						}
					],
					"name": "claimBonus",
					"outputs": [],
					"stateMutability": "nonpayable",
					"type": "function"
				},
				{
					"inputs": [],
					"name": "claimDailyEnergy",
					"outputs": [],
					"stateMutability": "nonpayable",
					"type": "function"
				},
				{
					"inputs": [],
					"name": "claimDuel",
					"outputs": [
						{
							"internalType": "uint256",
							"name": "",
							"type": "uint256"
						}
					],
					"stateMutability": "view",
					"type": "function"
				},
				{
					"inputs": [
						{
							"internalType": "uint256",
							"name": "_orderPosition",
							"type": "uint256"
						}
					],
					"name": "claimMysticEffect",
					"outputs": [],
					"stateMutability": "nonpayable",
					"type": "function"
				},
				{
					"inputs": [],
					"name": "createNewDuelRoom",
					"outputs": [],
					"stateMutability": "nonpayable",
					"type": "function"
				},
				{
					"inputs": [
						{
							"internalType": "uint256",
							"name": "_indexRoom",
							"type": "uint256"
						}
					],
					"name": "doAttackInDuel",
					"outputs": [],
					"stateMutability": "nonpayable",
					"type": "function"
				},
				{
					"inputs": [],
					"name": "duelPrice",
					"outputs": [
						{
							"internalType": "uint256",
							"name": "",
							"type": "uint256"
						}
					],
					"stateMutability": "view",
					"type": "function"
				},
				{
					"inputs": [
						{
							"internalType": "uint256",
							"name": "",
							"type": "uint256"
						}
					],
					"name": "duels",
					"outputs": [
						{
							"internalType": "uint256",
							"name": "playersNow",
							"type": "uint256"
						},
						{
							"internalType": "uint256",
							"name": "totalDamagePlayer0",
							"type": "uint256"
						},
						{
							"internalType": "uint256",
							"name": "totalDamagePlayer1",
							"type": "uint256"
						}
					],
					"stateMutability": "view",
					"type": "function"
				},
				{
					"inputs": [],
					"name": "enterInDuel",
					"outputs": [],
					"stateMutability": "nonpayable",
					"type": "function"
				},
				{
					"inputs": [
						{
							"internalType": "uint256[]",
							"name": "_tokenIds",
							"type": "uint256[]"
						}
					],
					"name": "enterInGame",
					"outputs": [],
					"stateMutability": "nonpayable",
					"type": "function"
				},
				{
					"inputs": [
						{
							"internalType": "uint256",
							"name": "_bossLevel",
							"type": "uint256"
						}
					],
					"name": "fightWithBoss",
					"outputs": [],
					"stateMutability": "nonpayable",
					"type": "function"
				},
				{
					"inputs": [],
					"name": "findAvailableDuel",
					"outputs": [
						{
							"internalType": "uint256",
							"name": "",
							"type": "uint256"
						}
					],
					"stateMutability": "view",
					"type": "function"
				},
				{
					"inputs": [
						{
							"internalType": "uint256[]",
							"name": "_tokenIds",
							"type": "uint256[]"
						}
					],
					"name": "getFinalTreasures",
					"outputs": [],
					"stateMutability": "payable",
					"type": "function"
				},
				{
					"inputs": [
						{
							"internalType": "address",
							"name": "_player",
							"type": "address"
						}
					],
					"name": "getInfoPlayer",
					"outputs": [
						{
							"components": [
								{
									"internalType": "uint256",
									"name": "qtyBossDefeated",
									"type": "uint256"
								},
								{
									"internalType": "uint256",
									"name": "energyFactor",
									"type": "uint256"
								},
								{
									"internalType": "uint256",
									"name": "energyBalance",
									"type": "uint256"
								},
								{
									"internalType": "uint256",
									"name": "amountTokensInGame",
									"type": "uint256"
								},
								{
									"internalType": "uint256",
									"name": "lastTimestampClaimedEnergy",
									"type": "uint256"
								},
								{
									"internalType": "uint256[]",
									"name": "playingTokenIds",
									"type": "uint256[]"
								}
							],
							"internalType": "struct LP.Player",
							"name": "",
							"type": "tuple"
						}
					],
					"stateMutability": "view",
					"type": "function"
				},
				{
					"inputs": [
						{
							"internalType": "uint256",
							"name": "_indexRoom",
							"type": "uint256"
						}
					],
					"name": "isPlayerInDuelAtIndexRoom",
					"outputs": [
						{
							"internalType": "bool",
							"name": "",
							"type": "bool"
						}
					],
					"stateMutability": "view",
					"type": "function"
				},
				{
					"inputs": [
						{
							"internalType": "uint256",
							"name": "",
							"type": "uint256"
						}
					],
					"name": "isTokenIdClaimed",
					"outputs": [
						{
							"internalType": "bool",
							"name": "",
							"type": "bool"
						}
					],
					"stateMutability": "view",
					"type": "function"
				},
				{
					"inputs": [
						{
							"internalType": "uint256[]",
							"name": "_tokenIds",
							"type": "uint256[]"
						}
					],
					"name": "isTokensClaimedTreasures",
					"outputs": [
						{
							"internalType": "bool",
							"name": "",
							"type": "bool"
						}
					],
					"stateMutability": "view",
					"type": "function"
				},
				{
					"inputs": [],
					"name": "leaveGame",
					"outputs": [],
					"stateMutability": "nonpayable",
					"type": "function"
				},
				{
					"inputs": [],
					"name": "owner",
					"outputs": [
						{
							"internalType": "address",
							"name": "",
							"type": "address"
						}
					],
					"stateMutability": "view",
					"type": "function"
				},
				{
					"inputs": [
						{
							"internalType": "address",
							"name": "",
							"type": "address"
						}
					],
					"name": "players",
					"outputs": [
						{
							"internalType": "uint256",
							"name": "qtyBossDefeated",
							"type": "uint256"
						},
						{
							"internalType": "uint256",
							"name": "energyFactor",
							"type": "uint256"
						},
						{
							"internalType": "uint256",
							"name": "energyBalance",
							"type": "uint256"
						},
						{
							"internalType": "uint256",
							"name": "amountTokensInGame",
							"type": "uint256"
						},
						{
							"internalType": "uint256",
							"name": "lastTimestampClaimedEnergy",
							"type": "uint256"
						}
					],
					"stateMutability": "view",
					"type": "function"
				},
				{
					"inputs": [
						{
							"internalType": "uint256",
							"name": "_value",
							"type": "uint256"
						}
					],
					"name": "random",
					"outputs": [
						{
							"internalType": "uint256",
							"name": "",
							"type": "uint256"
						}
					],
					"stateMutability": "view",
					"type": "function"
				},
				{
					"inputs": [],
					"name": "renounceOwnership",
					"outputs": [],
					"stateMutability": "nonpayable",
					"type": "function"
				},
				{
					"inputs": [
						{
							"internalType": "uint256",
							"name": "_value",
							"type": "uint256"
						}
					],
					"name": "setDefEnergyAccrual",
					"outputs": [],
					"stateMutability": "nonpayable",
					"type": "function"
				},
				{
					"inputs": [
						{
							"internalType": "uint256",
							"name": "_value",
							"type": "uint256"
						}
					],
					"name": "setDefaultDamage",
					"outputs": [],
					"stateMutability": "nonpayable",
					"type": "function"
				},
				{
					"inputs": [
						{
							"internalType": "uint256",
							"name": "_value",
							"type": "uint256"
						}
					],
					"name": "setEnergyPriceInTokens",
					"outputs": [],
					"stateMutability": "nonpayable",
					"type": "function"
				},
				{
					"inputs": [],
					"name": "testMintDirectFromGame",
					"outputs": [],
					"stateMutability": "nonpayable",
					"type": "function"
				},
				{
					"inputs": [
						{
							"internalType": "address",
							"name": "newOwner",
							"type": "address"
						}
					],
					"name": "transferOwnership",
					"outputs": [],
					"stateMutability": "nonpayable",
					"type": "function"
				}
			],
			"devdoc": {
				"kind": "dev",
				"methods": {
					"owner()": {
						"details": "Returns the address of the current owner."
					},
					"renounceOwnership()": {
						"details": "Leaves the contract without owner. It will not be possible to call `onlyOwner` functions. Can only be called by the current owner. NOTE: Renouncing ownership will leave the contract without an owner, thereby disabling any functionality that is only available to the owner."
					},
					"transferOwnership(address)": {
						"details": "Transfers ownership of the contract to a new account (`newOwner`). Can only be called by the current owner."
					}
				},
				"version": 1
			},
			"evm": {
				"assembly": "    /* \"contracts/LP.sol\":172:16025  contract LP is Ownable {... */\n  mstore(0x40, 0x80)\n    /* \"contracts/LP.sol\":286:288  10 */\n  0x0a\n    /* \"contracts/LP.sol\":259:288  uint256 defEnergyAccrual = 10 */\n  0x03\n  sstore\n    /* \"contracts/LP.sol\":324:327  100 */\n  0x64\n    /* \"contracts/LP.sol\":294:327  uint256 energyPriceInTokens = 100 */\n  0x04\n  sstore\n    /* \"contracts/LP.sol\":408:411  100 */\n  0x64\n    /* \"contracts/LP.sol\":384:411  uint256 defaultDamage = 100 */\n  0x05\n  sstore\n    /* \"contracts/LP.sol\":5165:5169  1000 */\n  0x03e8\n    /* \"contracts/LP.sol\":5138:5169  uint256 public duelPrice = 1000 */\n  0x09\n  sstore\n    /* \"contracts/LP.sol\":6806:6807  1 */\n  0x01\n    /* \"contracts/LP.sol\":6787:6807  uint bosscounter = 1 */\n  0x0a\n  sstore\n    /* \"contracts/LP.sol\":1778:1963  constructor(address _collection) {... */\n  callvalue\n  dup1\n  iszero\n  tag_1\n  jumpi\n  0x00\n  dup1\n  revert\ntag_1:\n  pop\n  mload(0x40)\n  sub(codesize, bytecodeSize)\n  dup1\n  bytecodeSize\n  dup4\n  codecopy\n  dup2\n  add\n  0x40\n  dup2\n  swap1\n  mstore\n  tag_2\n  swap2\n  tag_3\n  jump\t// in\ntag_2:\n    /* \"@openzeppelin/contracts/access/Ownable.sol\":936:968  _transferOwnership(_msgSender()) */\n  tag_7\n    /* \"@openzeppelin/contracts/utils/Context.sol\":719:729  msg.sender */\n  caller\n    /* \"@openzeppelin/contracts/access/Ownable.sol\":936:954  _transferOwnership */\n  tag_10\n    /* \"@openzeppelin/contracts/access/Ownable.sol\":936:968  _transferOwnership(_msgSender()) */\n  jump\t// in\ntag_7:\n    /* \"contracts/LP.sol\":1821:1831  Collection */\n  0x01\n    /* \"contracts/LP.sol\":1821:1867  Collection = IWomanSeekersNewDawn(_collection) */\n  dup1\n  sload\n  not(sub(shl(0xa0, 0x01), 0x01))\n  and\n  sub(shl(0xa0, 0x01), 0x01)\n  dup4\n  and\n  or\n  swap1\n  sstore\n    /* \"contracts/LP.sol\":1877:1889  createBoss() */\n  tag_12\n    /* \"contracts/LP.sol\":1877:1887  createBoss */\n  tag_13\n    /* \"contracts/LP.sol\":1877:1889  createBoss() */\n  jump\t// in\ntag_12:\n    /* \"contracts/LP.sol\":1899:1911  createBoss() */\n  tag_14\n    /* \"contracts/LP.sol\":1899:1909  createBoss */\n  tag_13\n    /* \"contracts/LP.sol\":1899:1911  createBoss() */\n  jump\t// in\ntag_14:\n    /* \"contracts/LP.sol\":1921:1933  createBoss() */\n  tag_15\n    /* \"contracts/LP.sol\":1921:1931  createBoss */\n  tag_13\n    /* \"contracts/LP.sol\":1921:1933  createBoss() */\n  jump\t// in\ntag_15:\n    /* \"contracts/LP.sol\":1943:1955  createBoss() */\n  tag_16\n    /* \"contracts/LP.sol\":1943:1953  createBoss */\n  tag_13\n    /* \"contracts/LP.sol\":1943:1955  createBoss() */\n  jump\t// in\ntag_16:\n    /* \"contracts/LP.sol\":1778:1963  constructor(address _collection) {... */\n  pop\n    /* \"contracts/LP.sol\":172:16025  contract LP is Ownable {... */\n  jump(tag_27)\n    /* \"@openzeppelin/contracts/access/Ownable.sol\":2426:2613  function _transferOwnership(address newOwner) internal virtual {... */\ntag_10:\n    /* \"@openzeppelin/contracts/access/Ownable.sol\":2499:2515  address oldOwner */\n  0x00\n    /* \"@openzeppelin/contracts/access/Ownable.sol\":2518:2524  _owner */\n  dup1\n  sload\n  sub(shl(0xa0, 0x01), 0x01)\n    /* \"@openzeppelin/contracts/access/Ownable.sol\":2534:2551  _owner = newOwner */\n  dup4\n  dup2\n  and\n  not(sub(shl(0xa0, 0x01), 0x01))\n  dup4\n  and\n  dup2\n  or\n  dup5\n  sstore\n    /* \"@openzeppelin/contracts/access/Ownable.sol\":2566:2606  OwnershipTransferred(oldOwner, newOwner) */\n  mload(0x40)\n    /* \"@openzeppelin/contracts/access/Ownable.sol\":2518:2524  _owner */\n  swap2\n  swap1\n  swap3\n  and\n  swap3\n  dup4\n  swap2\n    /* \"@openzeppelin/contracts/access/Ownable.sol\":2566:2606  OwnershipTransferred(oldOwner, newOwner) */\n  0x8be0079c531659141344cd1fd0a4f28419497f9722a3daafe3b4186f6b6457e0\n  swap2\n    /* \"@openzeppelin/contracts/access/Ownable.sol\":2499:2515  address oldOwner */\n  swap1\n    /* \"@openzeppelin/contracts/access/Ownable.sol\":2566:2606  OwnershipTransferred(oldOwner, newOwner) */\n  log3\n    /* \"@openzeppelin/contracts/access/Ownable.sol\":2489:2613  {... */\n  pop\n    /* \"@openzeppelin/contracts/access/Ownable.sol\":2426:2613  function _transferOwnership(address newOwner) internal virtual {... */\n  pop\n  jump\t// out\n    /* \"contracts/LP.sol\":6814:7444  function createBoss() internal {... */\ntag_13:\n    /* \"contracts/LP.sol\":6943:6954  bosscounter */\n  sload(0x0a)\n    /* \"contracts/LP.sol\":6908:6933  bossSpecs storage newBoss */\n  0x00\n    /* \"contracts/LP.sol\":6936:6955  bosses[bosscounter] */\n  dup2\n  dup2\n  mstore\n    /* \"contracts/LP.sol\":6936:6942  bosses */\n  0x07\n    /* \"contracts/LP.sol\":6936:6955  bosses[bosscounter] */\n  0x20\n  mstore\n  0x40\n  swap1\n  keccak256\n  swap1\n    /* \"contracts/LP.sol\":6985:6986  1 */\n  0x01\n    /* \"contracts/LP.sol\":6970:6986  bosscounter == 1 */\n  sub\n    /* \"contracts/LP.sol\":6967:7064  if(bosscounter == 1) {... */\n  tag_21\n  jumpi\n    /* \"contracts/LP.sol\":7015:7019  1000 */\n  0x03e8\n    /* \"contracts/LP.sol\":6998:7019  newBoss.health = 1000 */\n  dup2\n  sstore\n    /* \"contracts/LP.sol\":7051:7053  25 */\n  0x19\n    /* \"contracts/LP.sol\":7029:7048  newBoss.dodgeChance */\n  0x01\n  dup3\n  add\n    /* \"contracts/LP.sol\":7029:7053  newBoss.dodgeChance = 25 */\n  sstore\n    /* \"contracts/LP.sol\":6967:7064  if(bosscounter == 1) {... */\ntag_21:\n    /* \"contracts/LP.sol\":7091:7102  bosscounter */\n  sload(0x0a)\n    /* \"contracts/LP.sol\":7106:7107  2 */\n  0x02\n    /* \"contracts/LP.sol\":7091:7107  bosscounter == 2 */\n  sub\n    /* \"contracts/LP.sol\":7088:7185  if(bosscounter == 2) {... */\n  tag_22\n  jumpi\n    /* \"contracts/LP.sol\":7136:7140  2000 */\n  0x07d0\n    /* \"contracts/LP.sol\":7119:7140  newBoss.health = 2000 */\n  dup2\n  sstore\n    /* \"contracts/LP.sol\":7172:7174  30 */\n  0x1e\n    /* \"contracts/LP.sol\":7150:7169  newBoss.dodgeChance */\n  0x01\n  dup3\n  add\n    /* \"contracts/LP.sol\":7150:7174  newBoss.dodgeChance = 30 */\n  sstore\n    /* \"contracts/LP.sol\":7088:7185  if(bosscounter == 2) {... */\ntag_22:\n    /* \"contracts/LP.sol\":7202:7213  bosscounter */\n  sload(0x0a)\n    /* \"contracts/LP.sol\":7217:7218  3 */\n  0x03\n    /* \"contracts/LP.sol\":7202:7218  bosscounter == 3 */\n  sub\n    /* \"contracts/LP.sol\":7199:7296  if(bosscounter == 3) {... */\n  tag_23\n  jumpi\n    /* \"contracts/LP.sol\":7247:7251  3000 */\n  0x0bb8\n    /* \"contracts/LP.sol\":7230:7251  newBoss.health = 3000 */\n  dup2\n  sstore\n    /* \"contracts/LP.sol\":7283:7285  40 */\n  0x28\n    /* \"contracts/LP.sol\":7261:7280  newBoss.dodgeChance */\n  0x01\n  dup3\n  add\n    /* \"contracts/LP.sol\":7261:7285  newBoss.dodgeChance = 40 */\n  sstore\n    /* \"contracts/LP.sol\":7199:7296  if(bosscounter == 3) {... */\ntag_23:\n    /* \"contracts/LP.sol\":7312:7323  bosscounter */\n  sload(0x0a)\n    /* \"contracts/LP.sol\":7327:7328  4 */\n  0x04\n    /* \"contracts/LP.sol\":7312:7328  bosscounter == 4 */\n  sub\n    /* \"contracts/LP.sol\":7309:7406  if(bosscounter == 4) {... */\n  tag_24\n  jumpi\n    /* \"contracts/LP.sol\":7357:7361  4000 */\n  0x0fa0\n    /* \"contracts/LP.sol\":7340:7361  newBoss.health = 4000 */\n  dup2\n  sstore\n    /* \"contracts/LP.sol\":7393:7395  50 */\n  0x32\n    /* \"contracts/LP.sol\":7371:7390  newBoss.dodgeChance */\n  0x01\n  dup3\n  add\n    /* \"contracts/LP.sol\":7371:7395  newBoss.dodgeChance = 50 */\n  sstore\n    /* \"contracts/LP.sol\":7309:7406  if(bosscounter == 4) {... */\ntag_24:\n    /* \"contracts/LP.sol\":7424:7435  bosscounter */\n  0x0a\n    /* \"contracts/LP.sol\":7424:7437  bosscounter++ */\n  dup1\n  sload\n  swap1\n    /* \"contracts/LP.sol\":7424:7435  bosscounter */\n  0x00\n    /* \"contracts/LP.sol\":7424:7437  bosscounter++ */\n  tag_25\n  dup4\n  tag_26\n  jump\t// in\ntag_25:\n  swap2\n  swap1\n  pop\n  sstore\n  pop\n    /* \"contracts/LP.sol\":6845:7444  {... */\n  pop\n    /* \"contracts/LP.sol\":6814:7444  function createBoss() internal {... */\n  jump\t// out\n    /* \"#utility.yul\":14:304   */\ntag_3:\n    /* \"#utility.yul\":84:90   */\n  0x00\n    /* \"#utility.yul\":137:139   */\n  0x20\n    /* \"#utility.yul\":125:134   */\n  dup3\n    /* \"#utility.yul\":116:123   */\n  dup5\n    /* \"#utility.yul\":112:135   */\n  sub\n    /* \"#utility.yul\":108:140   */\n  slt\n    /* \"#utility.yul\":105:157   */\n  iszero\n  tag_29\n  jumpi\n    /* \"#utility.yul\":153:154   */\n  0x00\n    /* \"#utility.yul\":150:151   */\n  dup1\n    /* \"#utility.yul\":143:155   */\n  revert\n    /* \"#utility.yul\":105:157   */\ntag_29:\n    /* \"#utility.yul\":179:195   */\n  dup2\n  mload\n  sub(shl(0xa0, 0x01), 0x01)\n    /* \"#utility.yul\":224:255   */\n  dup2\n  and\n    /* \"#utility.yul\":214:256   */\n  dup2\n  eq\n    /* \"#utility.yul\":204:274   */\n  tag_30\n  jumpi\n    /* \"#utility.yul\":270:271   */\n  0x00\n    /* \"#utility.yul\":267:268   */\n  dup1\n    /* \"#utility.yul\":260:272   */\n  revert\n    /* \"#utility.yul\":204:274   */\ntag_30:\n    /* \"#utility.yul\":293:298   */\n  swap4\n    /* \"#utility.yul\":14:304   */\n  swap3\n  pop\n  pop\n  pop\n  jump\t// out\n    /* \"#utility.yul\":309:541   */\ntag_26:\n    /* \"#utility.yul\":348:351   */\n  0x00\n    /* \"#utility.yul\":369:386   */\n  0x01\n  dup3\n  add\n    /* \"#utility.yul\":366:506   */\n  tag_32\n  jumpi\n    /* \"#utility.yul\":428:438   */\n  0x4e487b71\n    /* \"#utility.yul\":423:426   */\n  0xe0\n    /* \"#utility.yul\":419:439   */\n  shl\n    /* \"#utility.yul\":416:417   */\n  0x00\n    /* \"#utility.yul\":409:440   */\n  mstore\n    /* \"#utility.yul\":463:467   */\n  0x11\n    /* \"#utility.yul\":460:461   */\n  0x04\n    /* \"#utility.yul\":453:468   */\n  mstore\n    /* \"#utility.yul\":491:495   */\n  0x24\n    /* \"#utility.yul\":488:489   */\n  0x00\n    /* \"#utility.yul\":481:496   */\n  revert\n    /* \"#utility.yul\":366:506   */\ntag_32:\n  pop\n    /* \"#utility.yul\":533:534   */\n  0x01\n    /* \"#utility.yul\":522:535   */\n  add\n  swap1\n    /* \"#utility.yul\":309:541   */\n  jump\t// out\ntag_27:\n    /* \"contracts/LP.sol\":172:16025  contract LP is Ownable {... */\n  dataSize(sub_0)\n  dup1\n  dataOffset(sub_0)\n  0x00\n  codecopy\n  0x00\n  return\nstop\n\nsub_0: assembly {\n        /* \"contracts/LP.sol\":172:16025  contract LP is Ownable {... */\n      mstore(0x40, 0x80)\n      jumpi(tag_1, lt(calldatasize, 0x04))\n      shr(0xe0, calldataload(0x00))\n      dup1\n      0x859a62d0\n      gt\n      tag_35\n      jumpi\n      dup1\n      0xc724cfd3\n      gt\n      tag_36\n      jumpi\n      dup1\n      0xdd6ffd37\n      gt\n      tag_37\n      jumpi\n      dup1\n      0xdd6ffd37\n      eq\n      tag_30\n      jumpi\n      dup1\n      0xe2eb41ff\n      eq\n      tag_31\n      jumpi\n      dup1\n      0xe6f4cab2\n      eq\n      tag_32\n      jumpi\n      dup1\n      0xf2fde38b\n      eq\n      tag_33\n      jumpi\n      dup1\n      0xfcefb2b6\n      eq\n      tag_34\n      jumpi\n      0x00\n      dup1\n      revert\n    tag_37:\n      dup1\n      0xc724cfd3\n      eq\n      tag_26\n      jumpi\n      dup1\n      0xc9ec3950\n      eq\n      tag_27\n      jumpi\n      dup1\n      0xd175810d\n      eq\n      tag_28\n      jumpi\n      dup1\n      0xd9193025\n      eq\n      tag_29\n      jumpi\n      0x00\n      dup1\n      revert\n    tag_36:\n      dup1\n      0xb863bd37\n      gt\n      tag_38\n      jumpi\n      dup1\n      0xb863bd37\n      eq\n      tag_22\n      jumpi\n      dup1\n      0xbece83e4\n      eq\n      tag_23\n      jumpi\n      dup1\n      0xc178d83d\n      eq\n      tag_24\n      jumpi\n      dup1\n      0xc54b9c78\n      eq\n      tag_25\n      jumpi\n      0x00\n      dup1\n      revert\n    tag_38:\n      dup1\n      0x859a62d0\n      eq\n      tag_18\n      jumpi\n      dup1\n      0x8da5cb5b\n      eq\n      tag_19\n      jumpi\n      dup1\n      0xb0cd0d56\n      eq\n      tag_20\n      jumpi\n      dup1\n      0xb1501f9c\n      eq\n      tag_21\n      jumpi\n      0x00\n      dup1\n      revert\n    tag_35:\n      dup1\n      0x45d9d0be\n      gt\n      tag_39\n      jumpi\n      dup1\n      0x715018a6\n      gt\n      tag_40\n      jumpi\n      dup1\n      0x715018a6\n      eq\n      tag_14\n      jumpi\n      dup1\n      0x7a742b2d\n      eq\n      tag_15\n      jumpi\n      dup1\n      0x7aded47e\n      eq\n      tag_16\n      jumpi\n      dup1\n      0x83948115\n      eq\n      tag_17\n      jumpi\n      0x00\n      dup1\n      revert\n    tag_40:\n      dup1\n      0x45d9d0be\n      eq\n      tag_10\n      jumpi\n      dup1\n      0x5d1b3d76\n      eq\n      tag_11\n      jumpi\n      dup1\n      0x6893f296\n      eq\n      tag_12\n      jumpi\n      dup1\n      0x6b7c7264\n      eq\n      tag_13\n      jumpi\n      0x00\n      dup1\n      revert\n    tag_39:\n      dup1\n      0x2aa04a66\n      gt\n      tag_41\n      jumpi\n      dup1\n      0x2aa04a66\n      eq\n      tag_6\n      jumpi\n      dup1\n      0x2b56c1dd\n      eq\n      tag_7\n      jumpi\n      dup1\n      0x2f15911d\n      eq\n      tag_8\n      jumpi\n      dup1\n      0x39850c6b\n      eq\n      tag_9\n      jumpi\n      0x00\n      dup1\n      revert\n    tag_41:\n      dup1\n      0x127226cc\n      eq\n      tag_2\n      jumpi\n      dup1\n      0x204597e0\n      eq\n      tag_3\n      jumpi\n      dup1\n      0x224d54b3\n      eq\n      tag_4\n      jumpi\n      dup1\n      0x271c52ba\n      eq\n      tag_5\n      jumpi\n    tag_1:\n      0x00\n      dup1\n      revert\n        /* \"contracts/LP.sol\":3093:3494  function isPlayerInDuelAtIndexRoom( uint256 _indexRoom) public view returns (bool) {... */\n    tag_2:\n      callvalue\n      dup1\n      iszero\n      tag_42\n      jumpi\n      0x00\n      dup1\n      revert\n    tag_42:\n      pop\n      tag_43\n      tag_44\n      calldatasize\n      0x04\n      tag_45\n      jump\t// in\n    tag_44:\n      tag_46\n      jump\t// in\n    tag_43:\n      mload(0x40)\n        /* \"#utility.yul\":364:378   */\n      swap1\n      iszero\n        /* \"#utility.yul\":357:379   */\n      iszero\n        /* \"#utility.yul\":339:380   */\n      dup2\n      mstore\n        /* \"#utility.yul\":327:329   */\n      0x20\n        /* \"#utility.yul\":312:330   */\n      add\n        /* \"contracts/LP.sol\":3093:3494  function isPlayerInDuelAtIndexRoom( uint256 _indexRoom) public view returns (bool) {... */\n    tag_47:\n      mload(0x40)\n      dup1\n      swap2\n      sub\n      swap1\n      return\n        /* \"contracts/LP.sol\":472:515  mapping(uint256 => bossSpecs) public bosses */\n    tag_3:\n      callvalue\n      dup1\n      iszero\n      tag_49\n      jumpi\n      0x00\n      dup1\n      revert\n    tag_49:\n      pop\n      tag_50\n      tag_51\n      calldatasize\n      0x04\n      tag_45\n      jump\t// in\n    tag_51:\n      mstore(0x20, 0x07)\n      0x00\n      swap1\n      dup2\n      mstore\n      0x40\n      swap1\n      keccak256\n      dup1\n      sload\n      0x01\n      dup3\n      add\n      sload\n      0x02\n      swap1\n      swap3\n      add\n      sload\n      swap1\n      swap2\n      swap1\n      dup4\n      jump\n    tag_50:\n      0x40\n      dup1\n      mload\n        /* \"#utility.yul\":593:618   */\n      swap4\n      dup5\n      mstore\n        /* \"#utility.yul\":649:651   */\n      0x20\n        /* \"#utility.yul\":634:652   */\n      dup5\n      add\n        /* \"#utility.yul\":627:661   */\n      swap3\n      swap1\n      swap3\n      mstore\n        /* \"#utility.yul\":677:695   */\n      swap1\n      dup3\n      add\n        /* \"#utility.yul\":670:704   */\n      mstore\n        /* \"#utility.yul\":581:583   */\n      0x60\n        /* \"#utility.yul\":566:584   */\n      add\n        /* \"contracts/LP.sol\":472:515  mapping(uint256 => bossSpecs) public bosses */\n      tag_47\n        /* \"#utility.yul\":391:710   */\n      jump\n        /* \"contracts/LP.sol\":1969:2143  function createNewDuelRoom() public {... */\n    tag_4:\n      callvalue\n      dup1\n      iszero\n      tag_55\n      jumpi\n      0x00\n      dup1\n      revert\n    tag_55:\n      pop\n      tag_56\n      tag_57\n      jump\t// in\n    tag_56:\n      stop\n        /* \"contracts/LP.sol\":2998:3086  function setDefaultDamage(uint256 _value) public {... */\n    tag_5:\n      callvalue\n      dup1\n      iszero\n      tag_58\n      jumpi\n      0x00\n      dup1\n      revert\n    tag_58:\n      pop\n      tag_56\n      tag_60\n      calldatasize\n      0x04\n      tag_45\n      jump\t// in\n    tag_60:\n        /* \"contracts/LP.sol\":3057:3070  defaultDamage */\n      0x05\n        /* \"contracts/LP.sol\":3057:3079  defaultDamage = _value */\n      sstore\n        /* \"contracts/LP.sol\":2998:3086  function setDefaultDamage(uint256 _value) public {... */\n      jump\n        /* \"contracts/LP.sol\":10312:11679  function fightWithBoss(uint256 _bossLevel) public  {... */\n    tag_6:\n      callvalue\n      dup1\n      iszero\n      tag_62\n      jumpi\n      0x00\n      dup1\n      revert\n    tag_62:\n      pop\n      tag_56\n      tag_64\n      calldatasize\n      0x04\n      tag_45\n      jump\t// in\n    tag_64:\n      tag_65\n      jump\t// in\n        /* \"contracts/LP.sol\":7562:8547  function enterInGame(uint256[] calldata _tokenIds) public {... */\n    tag_7:\n      callvalue\n      dup1\n      iszero\n      tag_66\n      jumpi\n      0x00\n      dup1\n      revert\n    tag_66:\n      pop\n      tag_56\n      tag_68\n      calldatasize\n      0x04\n      tag_69\n      jump\t// in\n    tag_68:\n      tag_70\n      jump\t// in\n        /* \"contracts/LP.sol\":3500:3679  function calculateTestDamage() public view returns(uint) {... */\n    tag_8:\n      callvalue\n      dup1\n      iszero\n      tag_71\n      jumpi\n      0x00\n      dup1\n      revert\n    tag_71:\n      pop\n      tag_72\n      tag_73\n      jump\t// in\n    tag_72:\n      mload(0x40)\n        /* \"#utility.yul\":1481:1506   */\n      swap1\n      dup2\n      mstore\n        /* \"#utility.yul\":1469:1471   */\n      0x20\n        /* \"#utility.yul\":1454:1472   */\n      add\n        /* \"contracts/LP.sol\":3500:3679  function calculateTestDamage() public view returns(uint) {... */\n      tag_47\n        /* \"#utility.yul\":1335:1512   */\n      jump\n        /* \"contracts/LP.sol\":14197:15064  function claimMysticEffect(uint _orderPosition) public {... */\n    tag_9:\n      callvalue\n      dup1\n      iszero\n      tag_76\n      jumpi\n      0x00\n      dup1\n      revert\n    tag_76:\n      pop\n      tag_56\n      tag_78\n      calldatasize\n      0x04\n      tag_45\n      jump\t// in\n    tag_78:\n      tag_79\n      jump\t// in\n        /* \"contracts/LP.sol\":1233:1348  function getInfoPlayer(address _player) public view returns(Player memory) {... */\n    tag_10:\n      callvalue\n      dup1\n      iszero\n      tag_80\n      jumpi\n      0x00\n      dup1\n      revert\n    tag_80:\n      pop\n      tag_81\n      tag_82\n      calldatasize\n      0x04\n      tag_83\n      jump\t// in\n    tag_82:\n      tag_84\n      jump\t// in\n    tag_81:\n      mload(0x40)\n      tag_47\n      swap2\n      swap1\n      tag_86\n      jump\t// in\n        /* \"contracts/LP.sol\":2648:2742  function setDefEnergyAccrual(uint256 _value) public {... */\n    tag_11:\n      callvalue\n      dup1\n      iszero\n      tag_87\n      jumpi\n      0x00\n      dup1\n      revert\n    tag_87:\n      pop\n      tag_56\n      tag_89\n      calldatasize\n      0x04\n      tag_45\n      jump\t// in\n    tag_89:\n        /* \"contracts/LP.sol\":2710:2726  defEnergyAccrual */\n      0x03\n        /* \"contracts/LP.sol\":2710:2735  defEnergyAccrual = _value */\n      sstore\n        /* \"contracts/LP.sol\":2648:2742  function setDefEnergyAccrual(uint256 _value) public {... */\n      jump\n        /* \"contracts/LP.sol\":5446:5966  function enterInDuel() public {... */\n    tag_12:\n      callvalue\n      dup1\n      iszero\n      tag_91\n      jumpi\n      0x00\n      dup1\n      revert\n    tag_91:\n      pop\n      tag_56\n      tag_93\n      jump\t// in\n        /* \"contracts/LP.sol\":13971:14019  mapping (address => bool[5]) public RiseClaimMap */\n    tag_13:\n      callvalue\n      dup1\n      iszero\n      tag_94\n      jumpi\n      0x00\n      dup1\n      revert\n    tag_94:\n      pop\n      tag_43\n      tag_96\n      calldatasize\n      0x04\n      tag_97\n      jump\t// in\n    tag_96:\n      tag_98\n      jump\t// in\n        /* \"@openzeppelin/contracts/access/Ownable.sol\":1824:1925  function renounceOwnership() public virtual onlyOwner {... */\n    tag_14:\n      callvalue\n      dup1\n      iszero\n      tag_100\n      jumpi\n      0x00\n      dup1\n      revert\n    tag_100:\n      pop\n      tag_56\n      tag_102\n      jump\t// in\n        /* \"contracts/LP.sol\":2841:2941  function setEnergyPriceInTokens(uint256 _value) public {... */\n    tag_15:\n      callvalue\n      dup1\n      iszero\n      tag_103\n      jumpi\n      0x00\n      dup1\n      revert\n    tag_103:\n      pop\n      tag_56\n      tag_105\n      calldatasize\n      0x04\n      tag_45\n      jump\t// in\n    tag_105:\n        /* \"contracts/LP.sol\":2906:2925  energyPriceInTokens */\n      0x04\n        /* \"contracts/LP.sol\":2906:2934  energyPriceInTokens = _value */\n      sstore\n        /* \"contracts/LP.sol\":2841:2941  function setEnergyPriceInTokens(uint256 _value) public {... */\n      jump\n        /* \"contracts/LP.sol\":7450:7556  function checkOwnershipOfTokenIds(uint256[] calldata _tokenIds) public view returns(bool) {... */\n    tag_16:\n      callvalue\n      dup1\n      iszero\n      tag_107\n      jumpi\n      0x00\n      dup1\n      revert\n    tag_107:\n      pop\n      tag_43\n      tag_109\n      calldatasize\n      0x04\n      tag_69\n      jump\t// in\n    tag_109:\n        /* \"contracts/LP.sol\":7534:7538  bool */\n      0x00\n        /* \"contracts/LP.sol\":7450:7556  function checkOwnershipOfTokenIds(uint256[] calldata _tokenIds) public view returns(bool) {... */\n      swap3\n      swap2\n      pop\n      pop\n      jump\n        /* \"contracts/LP.sol\":5138:5169  uint256 public duelPrice = 1000 */\n    tag_17:\n      callvalue\n      dup1\n      iszero\n      tag_112\n      jumpi\n      0x00\n      dup1\n      revert\n    tag_112:\n      pop\n      tag_72\n      sload(0x09)\n      dup2\n      jump\n        /* \"contracts/LP.sol\":1748:1771  duelInfo[] public duels */\n    tag_18:\n      callvalue\n      dup1\n      iszero\n      tag_116\n      jumpi\n      0x00\n      dup1\n      revert\n    tag_116:\n      pop\n      tag_50\n      tag_118\n      calldatasize\n      0x04\n      tag_45\n      jump\t// in\n    tag_118:\n      tag_119\n      jump\t// in\n        /* \"@openzeppelin/contracts/access/Ownable.sol\":1201:1286  function owner() public view virtual returns (address) {... */\n    tag_19:\n      callvalue\n      dup1\n      iszero\n      tag_121\n      jumpi\n      0x00\n      dup1\n      revert\n    tag_121:\n      pop\n        /* \"@openzeppelin/contracts/access/Ownable.sol\":1247:1254  address */\n      0x00\n        /* \"@openzeppelin/contracts/access/Ownable.sol\":1273:1279  _owner */\n      sload\n        /* \"@openzeppelin/contracts/access/Ownable.sol\":1201:1286  function owner() public view virtual returns (address) {... */\n      mload(0x40)\n      sub(shl(0xa0, 0x01), 0x01)\n        /* \"@openzeppelin/contracts/access/Ownable.sol\":1273:1279  _owner */\n      swap1\n      swap2\n      and\n        /* \"#utility.yul\":3402:3453   */\n      dup2\n      mstore\n        /* \"#utility.yul\":3390:3392   */\n      0x20\n        /* \"#utility.yul\":3375:3393   */\n      add\n        /* \"@openzeppelin/contracts/access/Ownable.sol\":1201:1286  function owner() public view virtual returns (address) {... */\n      tag_47\n        /* \"#utility.yul\":3256:3459   */\n      jump\n        /* \"contracts/LP.sol\":3781:5131  function doAttackInDuel(uint256 _indexRoom) public {... */\n    tag_20:\n      callvalue\n      dup1\n      iszero\n      tag_126\n      jumpi\n      0x00\n      dup1\n      revert\n    tag_126:\n      pop\n      tag_56\n      tag_128\n      calldatasize\n      0x04\n      tag_45\n      jump\t// in\n    tag_128:\n      tag_129\n      jump\t// in\n        /* \"contracts/LP.sol\":8553:9102  function leaveGame() public {... */\n    tag_21:\n      callvalue\n      dup1\n      iszero\n      tag_130\n      jumpi\n      0x00\n      dup1\n      revert\n    tag_130:\n      pop\n      tag_56\n      tag_132\n      jump\t// in\n        /* \"contracts/LP.sol\":2151:2556  function random(uint256 _value) public view returns (uint256) {... */\n    tag_22:\n      callvalue\n      dup1\n      iszero\n      tag_133\n      jumpi\n      0x00\n      dup1\n      revert\n    tag_133:\n      pop\n      tag_72\n      tag_135\n      calldatasize\n      0x04\n      tag_45\n      jump\t// in\n    tag_135:\n      tag_136\n      jump\t// in\n        /* \"contracts/LP.sol\":11691:12013  function checkOwnershipOfTokens(uint256[] memory _tokenIds) public view returns(bool) {... */\n    tag_23:\n      callvalue\n      dup1\n      iszero\n      tag_138\n      jumpi\n      0x00\n      dup1\n      revert\n    tag_138:\n      pop\n      tag_43\n      tag_140\n      calldatasize\n      0x04\n      tag_141\n      jump\t// in\n    tag_140:\n      tag_142\n      jump\t// in\n        /* \"contracts/LP.sol\":9850:10195  function buyEnergyForTokens(uint256 _amountEnergy) public {... */\n    tag_24:\n      callvalue\n      dup1\n      iszero\n      tag_144\n      jumpi\n      0x00\n      dup1\n      revert\n    tag_144:\n      pop\n      tag_56\n      tag_146\n      calldatasize\n      0x04\n      tag_45\n      jump\t// in\n    tag_146:\n      tag_147\n      jump\t// in\n        /* \"contracts/LP.sol\":5176:5440  function findAvailableDuel() public view returns(uint256) {... */\n    tag_25:\n      callvalue\n      dup1\n      iszero\n      tag_148\n      jumpi\n      0x00\n      dup1\n      revert\n    tag_148:\n      pop\n      tag_72\n      tag_150\n      jump\t// in\n        /* \"contracts/LP.sol\":12442:13606  function getFinalTreasures(uint256[] memory _tokenIds) public payable  {... */\n    tag_26:\n      tag_56\n      tag_153\n      calldatasize\n      0x04\n      tag_141\n      jump\t// in\n    tag_153:\n      tag_154\n      jump\t// in\n        /* \"contracts/LP.sol\":9299:9844  function claimDailyEnergy() public {... */\n    tag_27:\n      callvalue\n      dup1\n      iszero\n      tag_155\n      jumpi\n      0x00\n      dup1\n      revert\n    tag_155:\n      pop\n      tag_56\n      tag_157\n      jump\t// in\n        /* \"contracts/LP.sol\":12019:12067  mapping(uint256 => bool) public isTokenIdClaimed */\n    tag_28:\n      callvalue\n      dup1\n      iszero\n      tag_158\n      jumpi\n      0x00\n      dup1\n      revert\n    tag_158:\n      pop\n      tag_43\n      tag_160\n      calldatasize\n      0x04\n      tag_45\n      jump\t// in\n    tag_160:\n      mstore(0x20, 0x0b)\n      0x00\n      swap1\n      dup2\n      mstore\n      0x40\n      swap1\n      keccak256\n      sload\n      0xff\n      and\n      dup2\n      jump\n        /* \"contracts/LP.sol\":15077:16019  function claimBonus(uint _orderPosition) public {... */\n    tag_29:\n      callvalue\n      dup1\n      iszero\n      tag_163\n      jumpi\n      0x00\n      dup1\n      revert\n    tag_163:\n      pop\n      tag_56\n      tag_165\n      calldatasize\n      0x04\n      tag_45\n      jump\t// in\n    tag_165:\n      tag_166\n      jump\t// in\n        /* \"contracts/LP.sol\":5972:6781  function claimDuel() public view returns (uint256) {... */\n    tag_30:\n      callvalue\n      dup1\n      iszero\n      tag_167\n      jumpi\n      0x00\n      dup1\n      revert\n    tag_167:\n      pop\n      tag_72\n      tag_169\n      jump\t// in\n        /* \"contracts/LP.sol\":425:466  mapping(address => Player) public players */\n    tag_31:\n      callvalue\n      dup1\n      iszero\n      tag_171\n      jumpi\n      0x00\n      dup1\n      revert\n    tag_171:\n      pop\n      tag_172\n      tag_173\n      calldatasize\n      0x04\n      tag_83\n      jump\t// in\n    tag_173:\n      mstore(0x20, 0x06)\n      0x00\n      swap1\n      dup2\n      mstore\n      0x40\n      swap1\n      keccak256\n      dup1\n      sload\n      0x01\n      dup3\n      add\n      sload\n      0x02\n      dup4\n      add\n      sload\n      0x03\n      dup5\n      add\n      sload\n      0x04\n      swap1\n      swap5\n      add\n      sload\n      swap3\n      swap4\n      swap2\n      swap3\n      swap1\n      swap2\n      swap1\n      dup6\n      jump\n    tag_172:\n      0x40\n      dup1\n      mload\n        /* \"#utility.yul\":4975:5000   */\n      swap6\n      dup7\n      mstore\n        /* \"#utility.yul\":5031:5033   */\n      0x20\n        /* \"#utility.yul\":5016:5034   */\n      dup7\n      add\n        /* \"#utility.yul\":5009:5043   */\n      swap5\n      swap1\n      swap5\n      mstore\n        /* \"#utility.yul\":5059:5077   */\n      swap3\n      dup5\n      add\n        /* \"#utility.yul\":5052:5086   */\n      swap2\n      swap1\n      swap2\n      mstore\n        /* \"#utility.yul\":5117:5119   */\n      0x60\n        /* \"#utility.yul\":5102:5120   */\n      dup4\n      add\n        /* \"#utility.yul\":5095:5129   */\n      mstore\n        /* \"#utility.yul\":5160:5163   */\n      0x80\n        /* \"#utility.yul\":5145:5164   */\n      dup3\n      add\n        /* \"#utility.yul\":5138:5173   */\n      mstore\n        /* \"#utility.yul\":4962:4965   */\n      0xa0\n        /* \"#utility.yul\":4947:4966   */\n      add\n        /* \"contracts/LP.sol\":425:466  mapping(address => Player) public players */\n      tag_47\n        /* \"#utility.yul\":4716:5179   */\n      jump\n        /* \"contracts/LP.sol\":12074:12364  function isTokensClaimedTreasures(uint256[] memory _tokenIds) public view returns(bool) {... */\n    tag_32:\n      callvalue\n      dup1\n      iszero\n      tag_177\n      jumpi\n      0x00\n      dup1\n      revert\n    tag_177:\n      pop\n      tag_43\n      tag_179\n      calldatasize\n      0x04\n      tag_141\n      jump\t// in\n    tag_179:\n      tag_180\n      jump\t// in\n        /* \"@openzeppelin/contracts/access/Ownable.sol\":2074:2272  function transferOwnership(address newOwner) public virtual onlyOwner {... */\n    tag_33:\n      callvalue\n      dup1\n      iszero\n      tag_182\n      jumpi\n      0x00\n      dup1\n      revert\n    tag_182:\n      pop\n      tag_56\n      tag_184\n      calldatasize\n      0x04\n      tag_83\n      jump\t// in\n    tag_184:\n      tag_185\n      jump\t// in\n        /* \"contracts/LP.sol\":13612:13709  function testMintDirectFromGame() public {... */\n    tag_34:\n      callvalue\n      dup1\n      iszero\n      tag_186\n      jumpi\n      0x00\n      dup1\n      revert\n    tag_186:\n      pop\n      tag_56\n      tag_188\n      jump\t// in\n        /* \"contracts/LP.sol\":3093:3494  function isPlayerInDuelAtIndexRoom( uint256 _indexRoom) public view returns (bool) {... */\n    tag_46:\n        /* \"contracts/LP.sol\":3203:3208  duels */\n      0x08\n        /* \"contracts/LP.sol\":3203:3215  duels.length */\n      sload\n        /* \"contracts/LP.sol\":3170:3174  bool */\n      0x00\n      swap1\n        /* \"contracts/LP.sol\":3190:3215  _indexRoom < duels.length */\n      dup3\n      lt\n        /* \"contracts/LP.sol\":3182:3238  require(_indexRoom < duels.length, \"Invalid duel index\") */\n      tag_190\n      jumpi\n      mload(0x40)\n      shl(0xe5, 0x461bcd)\n      dup2\n      mstore\n        /* \"#utility.yul\":5386:5388   */\n      0x20\n        /* \"contracts/LP.sol\":3182:3238  require(_indexRoom < duels.length, \"Invalid duel index\") */\n      0x04\n      dup3\n      add\n        /* \"#utility.yul\":5368:5389   */\n      mstore\n        /* \"#utility.yul\":5425:5427   */\n      0x12\n        /* \"#utility.yul\":5405:5423   */\n      0x24\n      dup3\n      add\n        /* \"#utility.yul\":5398:5428   */\n      mstore\n      shl(0x73, 0x092dcecc2d8d2c840c8eacad840d2dcc8caf)\n        /* \"#utility.yul\":5444:5462   */\n      0x44\n      dup3\n      add\n        /* \"#utility.yul\":5437:5485   */\n      mstore\n        /* \"#utility.yul\":5502:5520   */\n      0x64\n      add\n        /* \"contracts/LP.sol\":3182:3238  require(_indexRoom < duels.length, \"Invalid duel index\") */\n    tag_191:\n      mload(0x40)\n      dup1\n      swap2\n      sub\n      swap1\n      revert\n    tag_190:\n        /* \"contracts/LP.sol\":3249:3277  duelInfo storage currentDuel */\n      0x00\n        /* \"contracts/LP.sol\":3280:3285  duels */\n      0x08\n        /* \"contracts/LP.sol\":3286:3296  _indexRoom */\n      dup4\n        /* \"contracts/LP.sol\":3280:3297  duels[_indexRoom] */\n      dup2\n      sload\n      dup2\n      lt\n      tag_194\n      jumpi\n      tag_194\n      tag_195\n      jump\t// in\n    tag_194:\n      swap1\n      0x00\n      mstore\n      keccak256(0x00, 0x20)\n      swap1\n      0x05\n      mul\n      add\n        /* \"contracts/LP.sol\":3249:3297  duelInfo storage currentDuel = duels[_indexRoom] */\n      swap1\n      pop\n        /* \"contracts/LP.sol\":3332:3333  0 */\n      0x00\n        /* \"contracts/LP.sol\":3307:3318  currentDuel */\n      dup2\n        /* \"contracts/LP.sol\":3307:3329  currentDuel.playersNow */\n      0x00\n      add\n      sload\n        /* \"contracts/LP.sol\":3307:3333  currentDuel.playersNow > 0 */\n      gt\n        /* \"contracts/LP.sol\":3303:3469  if (currentDuel.playersNow > 0) {... */\n      iszero\n      tag_205\n      jumpi\n        /* \"contracts/LP.sol\":3349:3368  currentDuel.players */\n      0x01\n      dup2\n      add\n        /* \"contracts/LP.sol\":3349:3371  currentDuel.players[0] */\n      sload\n      sub(shl(0xa0, 0x01), 0x01)\n      and\n        /* \"contracts/LP.sol\":3375:3385  msg.sender */\n      caller\n        /* \"contracts/LP.sol\":3349:3385  currentDuel.players[0] == msg.sender */\n      eq\n      dup1\n        /* \"contracts/LP.sol\":3349:3425  currentDuel.players[0] == msg.sender || currentDuel.players[1] == msg.sender */\n      tag_201\n      jumpi\n      pop\n        /* \"contracts/LP.sol\":3389:3411  currentDuel.players[1] */\n      0x02\n      dup2\n      add\n      sload\n      sub(shl(0xa0, 0x01), 0x01)\n      and\n        /* \"contracts/LP.sol\":3415:3425  msg.sender */\n      caller\n        /* \"contracts/LP.sol\":3389:3425  currentDuel.players[1] == msg.sender */\n      eq\n        /* \"contracts/LP.sol\":3349:3425  currentDuel.players[0] == msg.sender || currentDuel.players[1] == msg.sender */\n    tag_201:\n        /* \"contracts/LP.sol\":3345:3463  if (currentDuel.players[0] == msg.sender || currentDuel.players[1] == msg.sender) {... */\n      iszero\n      tag_205\n      jumpi\n      pop\n        /* \"contracts/LP.sol\":3448:3452  true */\n      0x01\n      swap3\n        /* \"contracts/LP.sol\":3093:3494  function isPlayerInDuelAtIndexRoom( uint256 _indexRoom) public view returns (bool) {... */\n      swap2\n      pop\n      pop\n      jump\t// out\n        /* \"contracts/LP.sol\":3345:3463  if (currentDuel.players[0] == msg.sender || currentDuel.players[1] == msg.sender) {... */\n    tag_205:\n      pop\n        /* \"contracts/LP.sol\":3486:3491  false */\n      0x00\n      swap3\n        /* \"contracts/LP.sol\":3093:3494  function isPlayerInDuelAtIndexRoom( uint256 _indexRoom) public view returns (bool) {... */\n      swap2\n      pop\n      pop\n      jump\t// out\n        /* \"contracts/LP.sol\":1969:2143  function createNewDuelRoom() public {... */\n    tag_57:\n        /* \"contracts/LP.sol\":2024:2054  address[2] memory emptyPlayers */\n      tag_207\n      tag_208\n      jump\t// in\n    tag_207:\n        /* \"contracts/LP.sol\":2076:2135  duelInfo(... */\n      0x40\n      dup1\n      mload\n      0x80\n      dup2\n      add\n      dup3\n      mstore\n      0x00\n      dup1\n      dup3\n      mstore\n      0x20\n      dup3\n      add\n      dup5\n      dup2\n      mstore\n      swap3\n      dup3\n      add\n      dup2\n      swap1\n      mstore\n      0x60\n      dup3\n      add\n      dup2\n      swap1\n      mstore\n        /* \"contracts/LP.sol\":2065:2070  duels */\n      0x08\n        /* \"contracts/LP.sol\":2065:2136  duels.push(duelInfo(... */\n      dup1\n      sload\n      0x01\n      dup2\n      add\n      dup3\n      sstore\n      swap2\n      mstore\n      dup2\n      mload\n      0x05\n      swap1\n      swap2\n      mul\n      0xf3f7a9fe364faab93b216da50a3214154f22a0a2b415b23a84c8169e8b636ee3\n      dup2\n      add\n      swap2\n      dup3\n      sstore\n      swap3\n      mload\n        /* \"contracts/LP.sol\":2076:2135  duelInfo(... */\n      swap2\n      swap3\n        /* \"contracts/LP.sol\":2065:2136  duels.push(duelInfo(... */\n      swap1\n      swap2\n      tag_210\n      swap2\n      0xf3f7a9fe364faab93b216da50a3214154f22a0a2b415b23a84c8169e8b636ee4\n      add\n      swap1\n      0x02\n      tag_211\n      jump\t// in\n    tag_210:\n      pop\n      0x40\n      dup3\n      add\n      mload\n      dup2\n      0x03\n      add\n      sstore\n      0x60\n      dup3\n      add\n      mload\n      dup2\n      0x04\n      add\n      sstore\n      pop\n      pop\n        /* \"contracts/LP.sol\":2005:2143  {... */\n      pop\n        /* \"contracts/LP.sol\":1969:2143  function createNewDuelRoom() public {... */\n      jump\t// out\n        /* \"contracts/LP.sol\":10312:11679  function fightWithBoss(uint256 _bossLevel) public  {... */\n    tag_65:\n        /* \"contracts/LP.sol\":10398:10408  msg.sender */\n      caller\n        /* \"contracts/LP.sol\":10390:10409  players[msg.sender] */\n      0x00\n      swap1\n      dup2\n      mstore\n        /* \"contracts/LP.sol\":10390:10397  players */\n      0x06\n        /* \"contracts/LP.sol\":10390:10409  players[msg.sender] */\n      0x20\n      mstore\n      0x40\n      swap1\n      keccak256\n        /* \"contracts/LP.sol\":10390:10425  players[msg.sender].qtyBossDefeated */\n      sload\n        /* \"contracts/LP.sol\":10390:10438  players[msg.sender].qtyBossDefeated < _bossLevel */\n      dup2\n      gt\n        /* \"contracts/LP.sol\":10382:10474  require(players[msg.sender].qtyBossDefeated < _bossLevel, \"you're already beaten this boss\") */\n      tag_214\n      jumpi\n      mload(0x40)\n      shl(0xe5, 0x461bcd)\n      dup2\n      mstore\n        /* \"#utility.yul\":5865:5867   */\n      0x20\n        /* \"contracts/LP.sol\":10382:10474  require(players[msg.sender].qtyBossDefeated < _bossLevel, \"you're already beaten this boss\") */\n      0x04\n      dup3\n      add\n        /* \"#utility.yul\":5847:5868   */\n      mstore\n        /* \"#utility.yul\":5904:5906   */\n      0x1f\n        /* \"#utility.yul\":5884:5902   */\n      0x24\n      dup3\n      add\n        /* \"#utility.yul\":5877:5907   */\n      mstore\n        /* \"#utility.yul\":5943:5976   */\n      0x796f7527726520616c72656164792062656174656e207468697320626f737300\n        /* \"#utility.yul\":5923:5941   */\n      0x44\n      dup3\n      add\n        /* \"#utility.yul\":5916:5977   */\n      mstore\n        /* \"#utility.yul\":5994:6012   */\n      0x64\n      add\n        /* \"contracts/LP.sol\":10382:10474  require(players[msg.sender].qtyBossDefeated < _bossLevel, \"you're already beaten this boss\") */\n      tag_191\n        /* \"#utility.yul\":5663:6018   */\n      jump\n        /* \"contracts/LP.sol\":10382:10474  require(players[msg.sender].qtyBossDefeated < _bossLevel, \"you're already beaten this boss\") */\n    tag_214:\n        /* \"contracts/LP.sol\":10700:10718  bosses[_bossLevel] */\n      0x00\n      dup2\n      dup2\n      mstore\n        /* \"contracts/LP.sol\":10700:10706  bosses */\n      0x07\n        /* \"contracts/LP.sol\":10700:10718  bosses[_bossLevel] */\n      0x20\n      swap1\n      dup2\n      mstore\n      0x40\n      dup1\n      dup4\n      keccak256\n        /* \"contracts/LP.sol\":10700:10725  bosses[_bossLevel].health */\n      sload\n        /* \"contracts/LP.sol\":10671:10681  msg.sender */\n      caller\n        /* \"contracts/LP.sol\":10663:10682  players[msg.sender] */\n      dup5\n      mstore\n        /* \"contracts/LP.sol\":10663:10670  players */\n      0x06\n        /* \"contracts/LP.sol\":10663:10682  players[msg.sender] */\n      swap1\n      swap3\n      mstore\n      swap1\n      swap2\n      keccak256\n        /* \"contracts/LP.sol\":10663:10696  players[msg.sender].energyBalance */\n      0x02\n      add\n      sload\n        /* \"contracts/LP.sol\":10663:10725  players[msg.sender].energyBalance >= bosses[_bossLevel].health */\n      lt\n      iszero\n        /* \"contracts/LP.sol\":10655:10772  require(players[msg.sender].energyBalance >= bosses[_bossLevel].health, \"you don't have enough energy for this boss\") */\n      tag_217\n      jumpi\n      mload(0x40)\n      shl(0xe5, 0x461bcd)\n      dup2\n      mstore\n        /* \"#utility.yul\":6225:6227   */\n      0x20\n        /* \"contracts/LP.sol\":10655:10772  require(players[msg.sender].energyBalance >= bosses[_bossLevel].health, \"you don't have enough energy for this boss\") */\n      0x04\n      dup3\n      add\n        /* \"#utility.yul\":6207:6228   */\n      mstore\n        /* \"#utility.yul\":6264:6266   */\n      0x2a\n        /* \"#utility.yul\":6244:6262   */\n      0x24\n      dup3\n      add\n        /* \"#utility.yul\":6237:6267   */\n      mstore\n        /* \"#utility.yul\":6303:6337   */\n      0x796f7520646f6e2774206861766520656e6f75676820656e6572677920666f72\n        /* \"#utility.yul\":6283:6301   */\n      0x44\n      dup3\n      add\n        /* \"#utility.yul\":6276:6338   */\n      mstore\n      shl(0xb0, 0x207468697320626f7373)\n        /* \"#utility.yul\":6354:6372   */\n      0x64\n      dup3\n      add\n        /* \"#utility.yul\":6347:6387   */\n      mstore\n        /* \"#utility.yul\":6404:6423   */\n      0x84\n      add\n        /* \"contracts/LP.sol\":10655:10772  require(players[msg.sender].energyBalance >= bosses[_bossLevel].health, \"you don't have enough energy for this boss\") */\n      tag_191\n        /* \"#utility.yul\":6023:6429   */\n      jump\n        /* \"contracts/LP.sol\":10655:10772  require(players[msg.sender].energyBalance >= bosses[_bossLevel].health, \"you don't have enough energy for this boss\") */\n    tag_217:\n        /* \"contracts/LP.sol\":10844:10860  new uint256[](3) */\n      0x40\n      dup1\n      mload\n        /* \"contracts/LP.sol\":10858:10859  3 */\n      0x03\n        /* \"contracts/LP.sol\":10844:10860  new uint256[](3) */\n      dup1\n      dup3\n      mstore\n      0x80\n      dup3\n      add\n      swap1\n      swap3\n      mstore\n        /* \"contracts/LP.sol\":10786:10802  uint totalDamage */\n      0x00\n      swap2\n      dup3\n      swap2\n        /* \"contracts/LP.sol\":10844:10860  new uint256[](3) */\n      swap1\n      0x20\n      dup3\n      add\n      0x60\n      dup1\n      calldatasize\n      dup4\n      calldatacopy\n      add\n      swap1\n      pop\n      pop\n        /* \"contracts/LP.sol\":10817:10860  uint256[] memory damages = new uint256[](3) */\n      swap1\n      pop\n        /* \"contracts/LP.sol\":10876:10882  uint i */\n      0x00\n        /* \"contracts/LP.sol\":10871:11091  for (uint i = 0; i <= 2; i ++) ... */\n    tag_224:\n        /* \"contracts/LP.sol\":10893:10894  2 */\n      0x02\n        /* \"contracts/LP.sol\":10888:10889  i */\n      dup2\n        /* \"contracts/LP.sol\":10888:10894  i <= 2 */\n      gt\n        /* \"contracts/LP.sol\":10871:11091  for (uint i = 0; i <= 2; i ++) ... */\n      tag_225\n      jumpi\n        /* \"contracts/LP.sol\":10984:10994  msg.sender */\n      caller\n        /* \"contracts/LP.sol\":10933:10944  uint damage */\n      0x00\n        /* \"contracts/LP.sol\":10976:10995  players[msg.sender] */\n      swap1\n      dup2\n      mstore\n        /* \"contracts/LP.sol\":10976:10983  players */\n      0x06\n        /* \"contracts/LP.sol\":10976:10995  players[msg.sender] */\n      0x20\n      mstore\n      0x40\n      dup2\n      keccak256\n        /* \"contracts/LP.sol\":10976:11008  players[msg.sender].energyFactor */\n      0x01\n      add\n      sload\n        /* \"contracts/LP.sol\":10960:10973  defaultDamage */\n      sload(0x05)\n        /* \"contracts/LP.sol\":10947:10957  random(10) */\n      tag_227\n        /* \"contracts/LP.sol\":10954:10956  10 */\n      0x0a\n        /* \"contracts/LP.sol\":10947:10953  random */\n      tag_136\n        /* \"contracts/LP.sol\":10947:10957  random(10) */\n      jump\t// in\n    tag_227:\n        /* \"contracts/LP.sol\":10947:10973  random(10) * defaultDamage */\n      tag_228\n      swap2\n      swap1\n      tag_229\n      jump\t// in\n    tag_228:\n        /* \"contracts/LP.sol\":10947:11008  random(10) * defaultDamage * players[msg.sender].energyFactor */\n      tag_230\n      swap2\n      swap1\n      tag_229\n      jump\t// in\n    tag_230:\n        /* \"contracts/LP.sol\":10933:11008  uint damage = random(10) * defaultDamage * players[msg.sender].energyFactor */\n      swap1\n      pop\n        /* \"contracts/LP.sol\":11039:11045  damage */\n      dup1\n        /* \"contracts/LP.sol\":11026:11033  damages */\n      dup4\n        /* \"contracts/LP.sol\":11034:11035  i */\n      dup4\n        /* \"contracts/LP.sol\":11026:11036  damages[i] */\n      dup2\n      mload\n      dup2\n      lt\n      tag_232\n      jumpi\n      tag_232\n      tag_195\n      jump\t// in\n    tag_232:\n      0x20\n      swap1\n      dup2\n      mul\n      swap2\n      swap1\n      swap2\n      add\n      add\n        /* \"contracts/LP.sol\":11026:11045  damages[i] = damage */\n      mstore\n        /* \"contracts/LP.sol\":11059:11080  totalDamage += damage */\n      tag_233\n        /* \"contracts/LP.sol\":11074:11080  damage */\n      dup2\n        /* \"contracts/LP.sol\":11059:11080  totalDamage += damage */\n      dup6\n      tag_234\n      jump\t// in\n    tag_233:\n      swap4\n      pop\n        /* \"contracts/LP.sol\":10911:11091  {... */\n      pop\n        /* \"contracts/LP.sol\":10896:10900  i ++ */\n      dup1\n      dup1\n      tag_235\n      swap1\n      tag_236\n      jump\t// in\n    tag_235:\n      swap2\n      pop\n      pop\n        /* \"contracts/LP.sol\":10871:11091  for (uint i = 0; i <= 2; i ++) ... */\n      jump(tag_224)\n    tag_225:\n      pop\n        /* \"contracts/LP.sol\":11101:11119  bosses[_bossLevel] */\n      0x00\n      dup4\n      dup2\n      mstore\n        /* \"contracts/LP.sol\":11101:11107  bosses */\n      0x07\n        /* \"contracts/LP.sol\":11101:11119  bosses[_bossLevel] */\n      0x20\n      mstore\n      0x40\n      dup2\n      keccak256\n        /* \"contracts/LP.sol\":11101:11141  bosses[_bossLevel].health -= totalDamage */\n      dup1\n      sload\n        /* \"contracts/LP.sol\":11130:11141  totalDamage */\n      dup5\n      swap3\n        /* \"contracts/LP.sol\":11101:11119  bosses[_bossLevel] */\n      swap1\n        /* \"contracts/LP.sol\":11101:11141  bosses[_bossLevel].health -= totalDamage */\n      tag_237\n      swap1\n        /* \"contracts/LP.sol\":11130:11141  totalDamage */\n      dup5\n      swap1\n        /* \"contracts/LP.sol\":11101:11141  bosses[_bossLevel].health -= totalDamage */\n      tag_238\n      jump\t// in\n    tag_237:\n      swap1\n      swap2\n      sstore\n      pop\n      pop\n        /* \"contracts/LP.sol\":11231:11249  bosses[_bossLevel] */\n      0x00\n      dup4\n      dup2\n      mstore\n        /* \"contracts/LP.sol\":11231:11237  bosses */\n      0x07\n        /* \"contracts/LP.sol\":11231:11249  bosses[_bossLevel] */\n      0x20\n      mstore\n      0x40\n      dup2\n      keccak256\n        /* \"contracts/LP.sol\":11231:11256  bosses[_bossLevel].health */\n      sload\n        /* \"contracts/LP.sol\":11231:11261  bosses[_bossLevel].health == 0 */\n      swap1\n      sub\n        /* \"contracts/LP.sol\":11228:11672  if(bosses[_bossLevel].health == 0) {... */\n      tag_239\n      jumpi\n        /* \"contracts/LP.sol\":11359:11369  msg.sender */\n      caller\n        /* \"contracts/LP.sol\":11351:11370  players[msg.sender] */\n      0x00\n      dup2\n      dup2\n      mstore\n        /* \"contracts/LP.sol\":11351:11358  players */\n      0x06\n        /* \"contracts/LP.sol\":11351:11370  players[msg.sender] */\n      0x20\n      mstore\n      0x40\n      swap1\n      dup2\n      swap1\n      keccak256\n        /* \"contracts/LP.sol\":11351:11399  players[msg.sender].qtyBossDefeated = _bossLevel */\n      dup6\n      swap1\n      sstore\n        /* \"contracts/LP.sol\":11418:11463  BossDefeated(msg.sender, _bossLevel, damages) */\n      mload\n        /* \"contracts/LP.sol\":11389:11399  _bossLevel */\n      dup5\n      swap2\n        /* \"contracts/LP.sol\":11359:11369  msg.sender */\n      swap1\n        /* \"contracts/LP.sol\":11418:11463  BossDefeated(msg.sender, _bossLevel, damages) */\n      0x46475d55c3bc13c229507a0915f795fd03b23601512cc1aeae9e0bf41a4075d8\n      swap1\n      tag_240\n      swap1\n        /* \"contracts/LP.sol\":11455:11462  damages */\n      dup6\n      swap1\n        /* \"contracts/LP.sol\":11418:11463  BossDefeated(msg.sender, _bossLevel, damages) */\n      tag_241\n      jump\t// in\n    tag_240:\n      mload(0x40)\n      dup1\n      swap2\n      sub\n      swap1\n      log3\n        /* \"contracts/LP.sol\":10363:11679  {... */\n      pop\n      pop\n        /* \"contracts/LP.sol\":10312:11679  function fightWithBoss(uint256 _bossLevel) public  {... */\n      pop\n      jump\t// out\n        /* \"contracts/LP.sol\":11228:11672  if(bosses[_bossLevel].health == 0) {... */\n    tag_239:\n        /* \"contracts/LP.sol\":11626:11644  bosses[_bossLevel] */\n      0x00\n      dup4\n      dup2\n      mstore\n        /* \"contracts/LP.sol\":11626:11632  bosses */\n      0x07\n        /* \"contracts/LP.sol\":11626:11644  bosses[_bossLevel] */\n      0x20\n      mstore\n      0x40\n      swap1\n      keccak256\n        /* \"contracts/LP.sol\":11626:11657  bosses[_bossLevel].attackDamage */\n      0x02\n      add\n      sload\n        /* \"contracts/LP.sol\":11626:11660  bosses[_bossLevel].attackDamage *3 */\n      tag_243\n      swap1\n        /* \"contracts/LP.sol\":11659:11660  3 */\n      0x03\n        /* \"contracts/LP.sol\":11626:11660  bosses[_bossLevel].attackDamage *3 */\n      tag_229\n      jump\t// in\n    tag_243:\n        /* \"contracts/LP.sol\":11597:11607  msg.sender */\n      caller\n        /* \"contracts/LP.sol\":11589:11608  players[msg.sender] */\n      0x00\n      swap1\n      dup2\n      mstore\n        /* \"contracts/LP.sol\":11589:11596  players */\n      0x06\n        /* \"contracts/LP.sol\":11589:11608  players[msg.sender] */\n      0x20\n      mstore\n      0x40\n      dup2\n      keccak256\n        /* \"contracts/LP.sol\":11589:11622  players[msg.sender].energyBalance */\n      0x02\n      add\n        /* \"contracts/LP.sol\":11589:11660  players[msg.sender].energyBalance -= bosses[_bossLevel].attackDamage *3 */\n      dup1\n      sload\n        /* \"contracts/LP.sol\":11589:11622  players[msg.sender].energyBalance */\n      swap1\n      swap2\n        /* \"contracts/LP.sol\":11589:11608  players[msg.sender] */\n      swap1\n        /* \"contracts/LP.sol\":11589:11660  players[msg.sender].energyBalance -= bosses[_bossLevel].attackDamage *3 */\n      tag_244\n      swap1\n      dup5\n      swap1\n      tag_238\n      jump\t// in\n    tag_244:\n      swap1\n      swap2\n      sstore\n      pop\n      pop\n        /* \"contracts/LP.sol\":10363:11679  {... */\n      pop\n      pop\n        /* \"contracts/LP.sol\":10312:11679  function fightWithBoss(uint256 _bossLevel) public  {... */\n      pop\n      jump\t// out\n        /* \"contracts/LP.sol\":7562:8547  function enterInGame(uint256[] calldata _tokenIds) public {... */\n    tag_70:\n        /* \"contracts/LP.sol\":7717:7727  msg.sender */\n      caller\n        /* \"contracts/LP.sol\":7682:7706  Player storage Newplayer */\n      0x00\n        /* \"contracts/LP.sol\":7709:7728  players[msg.sender] */\n      swap1\n      dup2\n      mstore\n        /* \"contracts/LP.sol\":7709:7716  players */\n      0x06\n        /* \"contracts/LP.sol\":7709:7728  players[msg.sender] */\n      0x20\n      mstore\n      0x40\n      dup2\n      keccak256\n        /* \"contracts/LP.sol\":7917:7946  Newplayer.qtyBossDefeated = 0 */\n      dup2\n      dup2\n      sstore\n        /* \"contracts/LP.sol\":7981:7982  1 */\n      0x01\n        /* \"contracts/LP.sol\":7956:7978  Newplayer.energyFactor */\n      dup1\n      dup3\n      add\n        /* \"contracts/LP.sol\":7956:7982  Newplayer.energyFactor = 1 */\n      sstore\n        /* \"contracts/LP.sol\":7992:8015  Newplayer.energyBalance */\n      0x02\n      dup2\n      add\n        /* \"contracts/LP.sol\":7992:8019  Newplayer.energyBalance = 0 */\n      dup3\n      swap1\n      sstore\n        /* \"contracts/LP.sol\":8071:8107  Newplayer.lastTimestampClaimedEnergy */\n      0x04\n      dup2\n      add\n        /* \"contracts/LP.sol\":8071:8111  Newplayer.lastTimestampClaimedEnergy = 0 */\n      dup3\n      swap1\n      sstore\n        /* \"contracts/LP.sol\":8029:8057  Newplayer.amountTokensInGame */\n      0x03\n      dup2\n      add\n        /* \"contracts/LP.sol\":8121:8168  Newplayer.amountTokensInGame = _tokenIds.length */\n      dup4\n      swap1\n      sstore\n        /* \"contracts/LP.sol\":7709:7728  players[msg.sender] */\n      swap1\n        /* \"contracts/LP.sol\":8264:8541  for (uint256 i = 0; i < _tokenIds.length; i++) {... */\n    tag_246:\n        /* \"contracts/LP.sol\":8284:8304  i < _tokenIds.length */\n      dup3\n      dup2\n      lt\n        /* \"contracts/LP.sol\":8264:8541  for (uint256 i = 0; i < _tokenIds.length; i++) {... */\n      iszero\n      tag_247\n      jumpi\n        /* \"contracts/LP.sol\":8325:8334  Newplayer */\n      dup2\n        /* \"contracts/LP.sol\":8325:8350  Newplayer.playingTokenIds */\n      0x05\n      add\n        /* \"contracts/LP.sol\":8356:8365  _tokenIds */\n      dup5\n      dup5\n        /* \"contracts/LP.sol\":8366:8367  i */\n      dup4\n        /* \"contracts/LP.sol\":8356:8368  _tokenIds[i] */\n      dup2\n      dup2\n      lt\n      tag_250\n      jumpi\n      tag_250\n      tag_195\n      jump\t// in\n    tag_250:\n        /* \"contracts/LP.sol\":8325:8369  Newplayer.playingTokenIds.push(_tokenIds[i]) */\n      dup4\n      sload\n      0x01\n      dup1\n      dup3\n      add\n      dup7\n      sstore\n      0x00\n      swap6\n      dup7\n      mstore\n        /* \"contracts/LP.sol\":8356:8368  _tokenIds[i] */\n      0x20\n        /* \"contracts/LP.sol\":8325:8369  Newplayer.playingTokenIds.push(_tokenIds[i]) */\n      swap6\n      dup7\n      swap1\n      keccak256\n        /* \"contracts/LP.sol\":8356:8368  _tokenIds[i] */\n      swap3\n      swap1\n      swap6\n      mul\n      swap4\n      swap1\n      swap4\n      add\n      calldataload\n        /* \"contracts/LP.sol\":8325:8369  Newplayer.playingTokenIds.push(_tokenIds[i]) */\n      swap3\n      add\n      swap2\n      swap1\n      swap2\n      sstore\n      pop\n        /* \"contracts/LP.sol\":8392:8402  Collection */\n      sload\n      sub(shl(0xa0, 0x01), 0x01)\n      and\n        /* \"contracts/LP.sol\":8392:8422  Collection.viewNotTransferable */\n      0x2862bb25\n        /* \"contracts/LP.sol\":8423:8432  _tokenIds */\n      dup6\n      dup6\n        /* \"contracts/LP.sol\":8433:8434  i */\n      dup5\n        /* \"contracts/LP.sol\":8423:8435  _tokenIds[i] */\n      dup2\n      dup2\n      lt\n      tag_253\n      jumpi\n      tag_253\n      tag_195\n      jump\t// in\n    tag_253:\n      swap1\n      pop\n      0x20\n      mul\n      add\n      calldataload\n        /* \"contracts/LP.sol\":8392:8436  Collection.viewNotTransferable(_tokenIds[i]) */\n      mload(0x40)\n      dup3\n      0xffffffff\n      and\n      0xe0\n      shl\n      dup2\n      mstore\n      0x04\n      add\n      tag_254\n      swap2\n        /* \"#utility.yul\":1481:1506   */\n      dup2\n      mstore\n        /* \"#utility.yul\":1469:1471   */\n      0x20\n        /* \"#utility.yul\":1454:1472   */\n      add\n      swap1\n        /* \"#utility.yul\":1335:1512   */\n      jump\n        /* \"contracts/LP.sol\":8392:8436  Collection.viewNotTransferable(_tokenIds[i]) */\n    tag_254:\n      0x20\n      mload(0x40)\n      dup1\n      dup4\n      sub\n      dup2\n      dup7\n      gas\n      staticcall\n      iszero\n      dup1\n      iszero\n      tag_256\n      jumpi\n      returndatasize\n      0x00\n      dup1\n      returndatacopy\n      revert(0x00, returndatasize)\n    tag_256:\n      pop\n      pop\n      pop\n      pop\n      mload(0x40)\n      returndatasize\n      not(0x1f)\n      0x1f\n      dup3\n      add\n      and\n      dup3\n      add\n      dup1\n      0x40\n      mstore\n      pop\n      dup2\n      add\n      swap1\n      tag_257\n      swap2\n      swap1\n      tag_258\n      jump\t// in\n    tag_257:\n        /* \"contracts/LP.sol\":8391:8436  !Collection.viewNotTransferable(_tokenIds[i]) */\n      iszero\n        /* \"contracts/LP.sol\":8383:8467  require(!Collection.viewNotTransferable(_tokenIds[i]), \"This token already in game\") */\n      tag_259\n      jumpi\n      mload(0x40)\n      shl(0xe5, 0x461bcd)\n      dup2\n      mstore\n        /* \"#utility.yul\":8332:8334   */\n      0x20\n        /* \"contracts/LP.sol\":8383:8467  require(!Collection.viewNotTransferable(_tokenIds[i]), \"This token already in game\") */\n      0x04\n      dup3\n      add\n        /* \"#utility.yul\":8314:8335   */\n      mstore\n        /* \"#utility.yul\":8371:8373   */\n      0x1a\n        /* \"#utility.yul\":8351:8369   */\n      0x24\n      dup3\n      add\n        /* \"#utility.yul\":8344:8374   */\n      mstore\n        /* \"#utility.yul\":8410:8438   */\n      0x5468697320746f6b656e20616c726561647920696e2067616d65000000000000\n        /* \"#utility.yul\":8390:8408   */\n      0x44\n      dup3\n      add\n        /* \"#utility.yul\":8383:8439   */\n      mstore\n        /* \"#utility.yul\":8456:8474   */\n      0x64\n      add\n        /* \"contracts/LP.sol\":8383:8467  require(!Collection.viewNotTransferable(_tokenIds[i]), \"This token already in game\") */\n      tag_191\n        /* \"#utility.yul\":8130:8480   */\n      jump\n        /* \"contracts/LP.sol\":8383:8467  require(!Collection.viewNotTransferable(_tokenIds[i]), \"This token already in game\") */\n    tag_259:\n        /* \"contracts/LP.sol\":8481:8491  Collection */\n      and(sub(shl(0xa0, 0x01), 0x01), sload(0x01))\n        /* \"contracts/LP.sol\":8481:8510  Collection.setNotTransferable */\n      0xfb4f8197\n        /* \"contracts/LP.sol\":8511:8520  _tokenIds */\n      dup6\n      dup6\n        /* \"contracts/LP.sol\":8521:8522  i */\n      dup5\n        /* \"contracts/LP.sol\":8511:8523  _tokenIds[i] */\n      dup2\n      dup2\n      lt\n      tag_263\n      jumpi\n      tag_263\n      tag_195\n      jump\t// in\n    tag_263:\n        /* \"contracts/LP.sol\":8481:8530  Collection.setNotTransferable(_tokenIds[i], true) */\n      mload(0x40)\n      not(sub(shl(0xe0, 0x01), 0x01))\n      0xe0\n      dup7\n      swap1\n      shl\n      and\n      dup2\n      mstore\n        /* \"contracts/LP.sol\":8511:8523  _tokenIds[i] */\n      0x20\n      swap1\n      swap2\n      mul\n      swap3\n      swap1\n      swap3\n      add\n      calldataload\n        /* \"contracts/LP.sol\":8481:8530  Collection.setNotTransferable(_tokenIds[i], true) */\n      0x04\n      dup4\n      add\n        /* \"#utility.yul\":8653:8678   */\n      mstore\n      pop\n        /* \"contracts/LP.sol\":8525:8529  true */\n      0x01\n        /* \"#utility.yul\":8694:8712   */\n      0x24\n      dup3\n      add\n        /* \"#utility.yul\":8687:8737   */\n      mstore\n        /* \"#utility.yul\":8626:8644   */\n      0x44\n      add\n        /* \"contracts/LP.sol\":8481:8530  Collection.setNotTransferable(_tokenIds[i], true) */\n      0x00\n      mload(0x40)\n      dup1\n      dup4\n      sub\n      dup2\n      0x00\n      dup8\n      dup1\n      extcodesize\n      iszero\n      dup1\n      iszero\n      tag_266\n      jumpi\n      0x00\n      dup1\n      revert\n    tag_266:\n      pop\n      gas\n      call\n      iszero\n      dup1\n      iszero\n      tag_268\n      jumpi\n      returndatasize\n      0x00\n      dup1\n      returndatacopy\n      revert(0x00, returndatasize)\n    tag_268:\n      pop\n      pop\n      pop\n      pop\n        /* \"contracts/LP.sol\":8306:8309  i++ */\n      dup1\n      dup1\n      tag_269\n      swap1\n      tag_236\n      jump\t// in\n    tag_269:\n      swap2\n      pop\n      pop\n        /* \"contracts/LP.sol\":8264:8541  for (uint256 i = 0; i < _tokenIds.length; i++) {... */\n      jump(tag_246)\n    tag_247:\n      pop\n        /* \"contracts/LP.sol\":7620:8547  {... */\n      pop\n        /* \"contracts/LP.sol\":7562:8547  function enterInGame(uint256[] calldata _tokenIds) public {... */\n      pop\n      pop\n      jump\t// out\n        /* \"contracts/LP.sol\":3500:3679  function calculateTestDamage() public view returns(uint) {... */\n    tag_73:\n        /* \"contracts/LP.sol\":3551:3555  uint */\n      0x00\n        /* \"contracts/LP.sol\":3648:3651  100 */\n      0x64\n        /* \"contracts/LP.sol\":3630:3640  random(20) */\n      tag_271\n        /* \"contracts/LP.sol\":3637:3639  20 */\n      0x14\n        /* \"contracts/LP.sol\":3630:3636  random */\n      tag_136\n        /* \"contracts/LP.sol\":3630:3640  random(20) */\n      jump\t// in\n    tag_271:\n        /* \"contracts/LP.sol\":3630:3646  random(20) + 100 */\n      tag_272\n      swap1\n        /* \"contracts/LP.sol\":3643:3646  100 */\n      0x64\n        /* \"contracts/LP.sol\":3630:3646  random(20) + 100 */\n      tag_234\n      jump\t// in\n    tag_272:\n        /* \"contracts/LP.sol\":3629:3651  (random(20) + 100)/100 */\n      tag_273\n      swap2\n      swap1\n      tag_274\n      jump\t// in\n    tag_273:\n        /* \"contracts/LP.sol\":3600:3610  msg.sender */\n      caller\n        /* \"contracts/LP.sol\":3592:3611  players[msg.sender] */\n      0x00\n      swap1\n      dup2\n      mstore\n        /* \"contracts/LP.sol\":3592:3599  players */\n      0x06\n        /* \"contracts/LP.sol\":3592:3611  players[msg.sender] */\n      0x20\n      mstore\n      0x40\n      swap1\n      keccak256\n        /* \"contracts/LP.sol\":3592:3624  players[msg.sender].energyFactor */\n      0x01\n      add\n      sload\n        /* \"contracts/LP.sol\":3576:3589  defaultDamage */\n      sload(0x05)\n        /* \"contracts/LP.sol\":3576:3624  defaultDamage * players[msg.sender].energyFactor */\n      tag_275\n      swap2\n        /* \"contracts/LP.sol\":3592:3624  players[msg.sender].energyFactor */\n      swap1\n        /* \"contracts/LP.sol\":3576:3624  defaultDamage * players[msg.sender].energyFactor */\n      tag_229\n      jump\t// in\n    tag_275:\n        /* \"contracts/LP.sol\":3575:3653  (defaultDamage * players[msg.sender].energyFactor) * ((random(20) + 100)/100 ) */\n      tag_276\n      swap2\n      swap1\n      tag_229\n      jump\t// in\n    tag_276:\n        /* \"contracts/LP.sol\":3567:3653  return  (defaultDamage * players[msg.sender].energyFactor) * ((random(20) + 100)/100 ) */\n      swap1\n      pop\n        /* \"contracts/LP.sol\":3500:3679  function calculateTestDamage() public view returns(uint) {... */\n      swap1\n      jump\t// out\n        /* \"contracts/LP.sol\":14197:15064  function claimMysticEffect(uint _orderPosition) public {... */\n    tag_79:\n        /* \"contracts/LP.sol\":14283:14293  msg.sender */\n      caller\n        /* \"contracts/LP.sol\":14275:14294  players[msg.sender] */\n      0x00\n      swap1\n      dup2\n      mstore\n        /* \"contracts/LP.sol\":14275:14282  players */\n      0x06\n        /* \"contracts/LP.sol\":14275:14294  players[msg.sender] */\n      0x20\n      mstore\n      0x40\n      swap1\n      keccak256\n        /* \"contracts/LP.sol\":14275:14310  players[msg.sender].qtyBossDefeated */\n      sload\n        /* \"contracts/LP.sol\":14275:14328  players[msg.sender].qtyBossDefeated >= _orderPosition */\n      dup2\n      gt\n      iszero\n        /* \"contracts/LP.sol\":14267:14368  require(players[msg.sender].qtyBossDefeated >= _orderPosition, \"before you need beat necessary boss\") */\n      tag_278\n      jumpi\n      mload(0x40)\n      shl(0xe5, 0x461bcd)\n      dup2\n      mstore\n      0x04\n      add\n      tag_191\n      swap1\n      tag_280\n      jump\t// in\n    tag_278:\n        /* \"contracts/LP.sol\":14724:14734  msg.sender */\n      caller\n        /* \"contracts/LP.sol\":14711:14735  RiseClaimMap[msg.sender] */\n      0x00\n      swap1\n      dup2\n      mstore\n        /* \"contracts/LP.sol\":14711:14723  RiseClaimMap */\n      0x0c\n        /* \"contracts/LP.sol\":14711:14735  RiseClaimMap[msg.sender] */\n      0x20\n      mstore\n      0x40\n      swap1\n      keccak256\n        /* \"contracts/LP.sol\":14736:14752  _orderPosition-1 */\n      tag_281\n        /* \"contracts/LP.sol\":14751:14752  1 */\n      0x01\n        /* \"contracts/LP.sol\":14736:14750  _orderPosition */\n      dup4\n        /* \"contracts/LP.sol\":14736:14752  _orderPosition-1 */\n      tag_238\n      jump\t// in\n    tag_281:\n        /* \"contracts/LP.sol\":14711:14753  RiseClaimMap[msg.sender][_orderPosition-1] */\n      0x05\n      dup2\n      lt\n      tag_283\n      jumpi\n      tag_283\n      tag_195\n      jump\t// in\n    tag_283:\n      0x20\n      dup2\n      div\n      swap1\n      swap2\n      add\n      sload\n      0xff\n      0x1f\n      swap1\n      swap3\n      and\n      0x0100\n      exp\n      swap1\n      div\n      and\n        /* \"contracts/LP.sol\":14710:14753  !RiseClaimMap[msg.sender][_orderPosition-1] */\n      iszero\n        /* \"contracts/LP.sol\":14702:14792  require(!RiseClaimMap[msg.sender][_orderPosition-1], \"you're already claimed this effect\") */\n      tag_285\n      jumpi\n      mload(0x40)\n      shl(0xe5, 0x461bcd)\n      dup2\n      mstore\n        /* \"#utility.yul\":9611:9613   */\n      0x20\n        /* \"contracts/LP.sol\":14702:14792  require(!RiseClaimMap[msg.sender][_orderPosition-1], \"you're already claimed this effect\") */\n      0x04\n      dup3\n      add\n        /* \"#utility.yul\":9593:9614   */\n      mstore\n        /* \"#utility.yul\":9650:9652   */\n      0x22\n        /* \"#utility.yul\":9630:9648   */\n      0x24\n      dup3\n      add\n        /* \"#utility.yul\":9623:9653   */\n      mstore\n        /* \"#utility.yul\":9689:9723   */\n      0x796f7527726520616c726561647920636c61696d656420746869732065666665\n        /* \"#utility.yul\":9669:9687   */\n      0x44\n      dup3\n      add\n        /* \"#utility.yul\":9662:9724   */\n      mstore\n      shl(0xf2, 0x18dd)\n        /* \"#utility.yul\":9740:9758   */\n      0x64\n      dup3\n      add\n        /* \"#utility.yul\":9733:9765   */\n      mstore\n        /* \"#utility.yul\":9782:9801   */\n      0x84\n      add\n        /* \"contracts/LP.sol\":14702:14792  require(!RiseClaimMap[msg.sender][_orderPosition-1], \"you're already claimed this effect\") */\n      tag_191\n        /* \"#utility.yul\":9409:9807   */\n      jump\n        /* \"contracts/LP.sol\":14702:14792  require(!RiseClaimMap[msg.sender][_orderPosition-1], \"you're already claimed this effect\") */\n    tag_285:\n        /* \"contracts/LP.sol\":14802:14813  uint chance */\n      0x00\n        /* \"contracts/LP.sol\":14816:14826  random(10) */\n      tag_288\n        /* \"contracts/LP.sol\":14823:14825  10 */\n      0x0a\n        /* \"contracts/LP.sol\":14816:14822  random */\n      tag_136\n        /* \"contracts/LP.sol\":14816:14826  random(10) */\n      jump\t// in\n    tag_288:\n        /* \"contracts/LP.sol\":14802:14826  uint chance = random(10) */\n      swap1\n      pop\n        /* \"contracts/LP.sol\":14850:14851  2 */\n      0x02\n        /* \"contracts/LP.sol\":14841:14847  chance */\n      dup2\n        /* \"contracts/LP.sol\":14841:14851  chance <=2 */\n      gt\n        /* \"contracts/LP.sol\":14838:15063  if(chance <=2) {... */\n      tag_289\n      jumpi\n        /* \"contracts/LP.sol\":14875:14885  msg.sender */\n      caller\n        /* \"contracts/LP.sol\":14867:14886  players[msg.sender] */\n      0x00\n      swap1\n      dup2\n      mstore\n        /* \"contracts/LP.sol\":14867:14874  players */\n      0x06\n        /* \"contracts/LP.sol\":14867:14886  players[msg.sender] */\n      0x20\n      mstore\n      0x40\n      dup2\n      keccak256\n        /* \"contracts/LP.sol\":14867:14899  players[msg.sender].energyFactor */\n      0x01\n      add\n        /* \"contracts/LP.sol\":14867:14905  players[msg.sender].energyFactor += 10 */\n      dup1\n      sload\n        /* \"contracts/LP.sol\":14903:14905  10 */\n      0x0a\n      swap3\n        /* \"contracts/LP.sol\":14867:14886  players[msg.sender] */\n      swap1\n        /* \"contracts/LP.sol\":14867:14905  players[msg.sender].energyFactor += 10 */\n      tag_290\n      swap1\n        /* \"contracts/LP.sol\":14903:14905  10 */\n      dup5\n      swap1\n        /* \"contracts/LP.sol\":14867:14905  players[msg.sender].energyFactor += 10 */\n      tag_234\n      jump\t// in\n    tag_290:\n      swap1\n      swap2\n      sstore\n      pop\n        /* \"contracts/LP.sol\":14838:15063  if(chance <=2) {... */\n      tag_291\n      swap1\n      pop\n      jump\n    tag_289:\n        /* \"contracts/LP.sol\":14962:14972  msg.sender */\n      caller\n        /* \"contracts/LP.sol\":14954:14973  players[msg.sender] */\n      0x00\n      swap1\n      dup2\n      mstore\n        /* \"contracts/LP.sol\":14954:14961  players */\n      0x06\n        /* \"contracts/LP.sol\":14954:14973  players[msg.sender] */\n      0x20\n      mstore\n      0x40\n      dup2\n      keccak256\n        /* \"contracts/LP.sol\":14954:14986  players[msg.sender].energyFactor */\n      0x01\n      add\n        /* \"contracts/LP.sol\":14954:14992  players[msg.sender].energyFactor -= 10 */\n      dup1\n      sload\n        /* \"contracts/LP.sol\":14990:14992  10 */\n      0x0a\n      swap3\n        /* \"contracts/LP.sol\":14954:14973  players[msg.sender] */\n      swap1\n        /* \"contracts/LP.sol\":14954:14992  players[msg.sender].energyFactor -= 10 */\n      tag_292\n      swap1\n        /* \"contracts/LP.sol\":14990:14992  10 */\n      dup5\n      swap1\n        /* \"contracts/LP.sol\":14954:14992  players[msg.sender].energyFactor -= 10 */\n      tag_238\n      jump\t// in\n    tag_292:\n      swap1\n      swap2\n      sstore\n      pop\n      pop\n        /* \"contracts/LP.sol\":15020:15030  msg.sender */\n      caller\n        /* \"contracts/LP.sol\":15007:15031  RiseClaimMap[msg.sender] */\n      0x00\n      swap1\n      dup2\n      mstore\n        /* \"contracts/LP.sol\":15007:15019  RiseClaimMap */\n      0x0c\n        /* \"contracts/LP.sol\":15007:15031  RiseClaimMap[msg.sender] */\n      0x20\n      mstore\n      0x40\n      swap1\n      keccak256\n        /* \"contracts/LP.sol\":15052:15056  true */\n      0x01\n      swap1\n        /* \"contracts/LP.sol\":15032:15048  _orderPosition-1 */\n      tag_293\n        /* \"contracts/LP.sol\":15052:15056  true */\n      dup3\n        /* \"contracts/LP.sol\":15032:15046  _orderPosition */\n      dup6\n        /* \"contracts/LP.sol\":15032:15048  _orderPosition-1 */\n      tag_238\n      jump\t// in\n    tag_293:\n        /* \"contracts/LP.sol\":15007:15049  RiseClaimMap[msg.sender][_orderPosition-1] */\n      0x05\n      dup2\n      lt\n      tag_295\n      jumpi\n      tag_295\n      tag_195\n      jump\t// in\n    tag_295:\n      0x20\n      swap2\n      dup3\n      dup3\n      div\n      add\n      swap2\n      swap1\n      mod\n        /* \"contracts/LP.sol\":15007:15056  RiseClaimMap[msg.sender][_orderPosition-1] = true */\n      0x0100\n      exp\n      dup2\n      sload\n      dup2\n      0xff\n      mul\n      not\n      and\n      swap1\n      dup4\n      iszero\n      iszero\n      mul\n      or\n      swap1\n      sstore\n      pop\n        /* \"contracts/LP.sol\":14838:15063  if(chance <=2) {... */\n    tag_291:\n        /* \"contracts/LP.sol\":14252:15064  {... */\n      pop\n        /* \"contracts/LP.sol\":14197:15064  function claimMysticEffect(uint _orderPosition) public {... */\n      pop\n      jump\t// out\n        /* \"contracts/LP.sol\":1233:1348  function getInfoPlayer(address _player) public view returns(Player memory) {... */\n    tag_84:\n        /* \"contracts/LP.sol\":1293:1306  Player memory */\n      tag_297\n      mload(0x40)\n      dup1\n      0xc0\n      add\n      0x40\n      mstore\n      dup1\n      0x00\n      dup2\n      mstore\n      0x20\n      add\n      0x00\n      dup2\n      mstore\n      0x20\n      add\n      0x00\n      dup2\n      mstore\n      0x20\n      add\n      0x00\n      dup2\n      mstore\n      0x20\n      add\n      0x00\n      dup2\n      mstore\n      0x20\n      add\n      0x60\n      dup2\n      mstore\n      pop\n      swap1\n      jump\n    tag_297:\n      sub(shl(0xa0, 0x01), 0x01)\n        /* \"contracts/LP.sol\":1325:1341  players[_player] */\n      dup3\n      and\n      0x00\n      swap1\n      dup2\n      mstore\n        /* \"contracts/LP.sol\":1325:1332  players */\n      0x06\n        /* \"contracts/LP.sol\":1325:1341  players[_player] */\n      0x20\n      swap1\n      dup2\n      mstore\n      0x40\n      swap2\n      dup3\n      swap1\n      keccak256\n        /* \"contracts/LP.sol\":1318:1341  return players[_player] */\n      dup3\n      mload\n      0xc0\n      dup2\n      add\n      dup5\n      mstore\n      dup2\n      sload\n      dup2\n      mstore\n      0x01\n      dup3\n      add\n      sload\n      dup2\n      dup5\n      add\n      mstore\n      0x02\n      dup3\n      add\n      sload\n      dup2\n      dup6\n      add\n      mstore\n      0x03\n      dup3\n      add\n      sload\n      0x60\n      dup3\n      add\n      mstore\n      0x04\n      dup3\n      add\n      sload\n      0x80\n      dup3\n      add\n      mstore\n      0x05\n      dup3\n      add\n      dup1\n      sload\n      dup6\n      mload\n      dup2\n      dup7\n      mul\n      dup2\n      add\n      dup7\n      add\n      swap1\n      swap7\n      mstore\n      dup1\n      dup7\n      mstore\n      swap2\n      swap5\n        /* \"contracts/LP.sol\":1325:1341  players[_player] */\n      swap3\n      swap4\n        /* \"contracts/LP.sol\":1318:1341  return players[_player] */\n      0xa0\n      dup7\n      add\n      swap4\n      swap3\n      swap1\n      dup4\n      add\n      dup3\n      dup3\n      dup1\n      iszero\n      tag_300\n      jumpi\n      0x20\n      mul\n      dup3\n      add\n      swap2\n      swap1\n      0x00\n      mstore\n      keccak256(0x00, 0x20)\n      swap1\n    tag_301:\n      dup2\n      sload\n      dup2\n      mstore\n      0x20\n      add\n      swap1\n      0x01\n      add\n      swap1\n      dup1\n      dup4\n      gt\n      tag_301\n      jumpi\n    tag_300:\n      pop\n      pop\n      pop\n      pop\n      pop\n      dup2\n      mstore\n      pop\n      pop\n      swap1\n      pop\n        /* \"contracts/LP.sol\":1233:1348  function getInfoPlayer(address _player) public view returns(Player memory) {... */\n      swap2\n      swap1\n      pop\n      jump\t// out\n        /* \"contracts/LP.sol\":5446:5966  function enterInDuel() public {... */\n    tag_93:\n        /* \"contracts/LP.sol\":5487:5515  duelInfo storage currentDuel */\n      0x00\n        /* \"contracts/LP.sol\":5518:5523  duels */\n      0x08\n        /* \"contracts/LP.sol\":5524:5543  findAvailableDuel() */\n      tag_304\n        /* \"contracts/LP.sol\":5524:5541  findAvailableDuel */\n      tag_150\n        /* \"contracts/LP.sol\":5524:5543  findAvailableDuel() */\n      jump\t// in\n    tag_304:\n        /* \"contracts/LP.sol\":5518:5544  duels[findAvailableDuel()] */\n      dup2\n      sload\n      dup2\n      lt\n      tag_306\n      jumpi\n      tag_306\n      tag_195\n      jump\t// in\n    tag_306:\n      swap1\n      0x00\n      mstore\n      keccak256(0x00, 0x20)\n      swap1\n      0x05\n      mul\n      add\n        /* \"contracts/LP.sol\":5487:5544  duelInfo storage currentDuel = duels[findAvailableDuel()] */\n      swap1\n      pop\n        /* \"contracts/LP.sol\":5737:5747  msg.sender */\n      caller\n        /* \"contracts/LP.sol\":5712:5723  currentDuel */\n      dup2\n        /* \"contracts/LP.sol\":5712:5731  currentDuel.players */\n      0x01\n      add\n        /* \"contracts/LP.sol\":5732:5733  0 */\n      0x00\n        /* \"contracts/LP.sol\":5712:5734  currentDuel.players[0] */\n      0x02\n      dup2\n      lt\n      tag_309\n      jumpi\n      tag_309\n      tag_195\n      jump\t// in\n    tag_309:\n      add\n        /* \"contracts/LP.sol\":5712:5747  currentDuel.players[0] = msg.sender */\n      dup1\n      sload\n      not(sub(shl(0xa0, 0x01), 0x01))\n      and\n      sub(shl(0xa0, 0x01), 0x01)\n      swap3\n      dup4\n      and\n      or\n      swap1\n      sstore\n        /* \"contracts/LP.sol\":5761:5768  LPToken */\n      sload(0x02)\n        /* \"contracts/LP.sol\":5809:5818  duelPrice */\n      sload(0x09)\n        /* \"contracts/LP.sol\":5761:5820  LPToken.transferFrom(msg.sender, address(this), duelPrice ) */\n      mload(0x40)\n      shl(0xe0, 0x23b872dd)\n      dup2\n      mstore\n        /* \"contracts/LP.sol\":5782:5792  msg.sender */\n      caller\n        /* \"contracts/LP.sol\":5761:5820  LPToken.transferFrom(msg.sender, address(this), duelPrice ) */\n      0x04\n      dup3\n      add\n        /* \"#utility.yul\":10052:10086   */\n      mstore\n        /* \"contracts/LP.sol\":5802:5806  this */\n      address\n        /* \"#utility.yul\":10102:10120   */\n      0x24\n      dup3\n      add\n        /* \"#utility.yul\":10095:10138   */\n      mstore\n        /* \"#utility.yul\":10154:10172   */\n      0x44\n      dup2\n      add\n        /* \"#utility.yul\":10147:10181   */\n      swap2\n      swap1\n      swap2\n      mstore\n        /* \"contracts/LP.sol\":5761:5768  LPToken */\n      swap2\n      and\n      swap1\n        /* \"contracts/LP.sol\":5761:5781  LPToken.transferFrom */\n      0x23b872dd\n      swap1\n        /* \"#utility.yul\":9987:10005   */\n      0x64\n      add\n        /* \"contracts/LP.sol\":5761:5820  LPToken.transferFrom(msg.sender, address(this), duelPrice ) */\n      0x20\n      mload(0x40)\n      dup1\n      dup4\n      sub\n      dup2\n      0x00\n      dup8\n      gas\n      call\n      iszero\n      dup1\n      iszero\n      tag_314\n      jumpi\n      returndatasize\n      0x00\n      dup1\n      returndatacopy\n      revert(0x00, returndatasize)\n    tag_314:\n      pop\n      pop\n      pop\n      pop\n      mload(0x40)\n      returndatasize\n      not(0x1f)\n      0x1f\n      dup3\n      add\n      and\n      dup3\n      add\n      dup1\n      0x40\n      mstore\n      pop\n      dup2\n      add\n      swap1\n      tag_315\n      swap2\n      swap1\n      tag_258\n      jump\t// in\n    tag_315:\n      pop\n        /* \"contracts/LP.sol\":5835:5859  currentDuel.playersNow++ */\n      dup1\n      sload\n        /* \"contracts/LP.sol\":5835:5846  currentDuel */\n      dup2\n        /* \"contracts/LP.sol\":5835:5857  currentDuel.playersNow */\n      0x00\n        /* \"contracts/LP.sol\":5835:5859  currentDuel.playersNow++ */\n      tag_316\n      dup4\n      tag_236\n      jump\t// in\n    tag_316:\n      swap2\n      swap1\n      pop\n      sstore\n      pop\n        /* \"contracts/LP.sol\":5476:5966  {... */\n      pop\n        /* \"contracts/LP.sol\":5446:5966  function enterInDuel() public {... */\n      jump\t// out\n        /* \"contracts/LP.sol\":13971:14019  mapping (address => bool[5]) public RiseClaimMap */\n    tag_98:\n      mstore(0x20, 0x0c)\n      dup2\n      0x00\n      mstore\n      keccak256(0x00, 0x40)\n      dup2\n      0x05\n      dup2\n      lt\n      tag_317\n      jumpi\n      0x00\n      dup1\n      revert\n    tag_317:\n      0x20\n      dup2\n      div\n      swap1\n      swap2\n      add\n      sload\n      0xff\n      0x1f\n      swap1\n      swap3\n      and\n      0x0100\n      exp\n      swap1\n      div\n      and\n      swap2\n      pop\n      dup3\n      swap1\n      pop\n      jump\t// out\n        /* \"@openzeppelin/contracts/access/Ownable.sol\":1824:1925  function renounceOwnership() public virtual onlyOwner {... */\n    tag_102:\n        /* \"@openzeppelin/contracts/access/Ownable.sol\":1094:1107  _checkOwner() */\n      tag_320\n        /* \"@openzeppelin/contracts/access/Ownable.sol\":1094:1105  _checkOwner */\n      tag_321\n        /* \"@openzeppelin/contracts/access/Ownable.sol\":1094:1107  _checkOwner() */\n      jump\t// in\n    tag_320:\n        /* \"@openzeppelin/contracts/access/Ownable.sol\":1888:1918  _transferOwnership(address(0)) */\n      tag_323\n        /* \"@openzeppelin/contracts/access/Ownable.sol\":1915:1916  0 */\n      0x00\n        /* \"@openzeppelin/contracts/access/Ownable.sol\":1888:1906  _transferOwnership */\n      tag_324\n        /* \"@openzeppelin/contracts/access/Ownable.sol\":1888:1918  _transferOwnership(address(0)) */\n      jump\t// in\n    tag_323:\n        /* \"@openzeppelin/contracts/access/Ownable.sol\":1824:1925  function renounceOwnership() public virtual onlyOwner {... */\n      jump\t// out\n        /* \"contracts/LP.sol\":1748:1771  duelInfo[] public duels */\n    tag_119:\n      0x08\n      dup2\n      dup2\n      sload\n      dup2\n      lt\n      tag_327\n      jumpi\n      0x00\n      dup1\n      revert\n    tag_327:\n      0x00\n      swap2\n      dup3\n      mstore\n      0x20\n      swap1\n      swap2\n      keccak256\n      0x05\n      swap1\n      swap2\n      mul\n      add\n      dup1\n      sload\n      0x03\n      dup3\n      add\n      sload\n      0x04\n      swap1\n      swap3\n      add\n      sload\n      swap1\n      swap3\n      pop\n      dup4\n      jump\t// out\n        /* \"contracts/LP.sol\":3781:5131  function doAttackInDuel(uint256 _indexRoom) public {... */\n    tag_129:\n        /* \"contracts/LP.sol\":3861:3889  duelInfo storage currentDuel */\n      0x00\n        /* \"contracts/LP.sol\":3892:3897  duels */\n      0x08\n        /* \"contracts/LP.sol\":3898:3908  _indexRoom */\n      dup3\n        /* \"contracts/LP.sol\":3892:3909  duels[_indexRoom] */\n      dup2\n      sload\n      dup2\n      lt\n      tag_332\n      jumpi\n      tag_332\n      tag_195\n      jump\t// in\n    tag_332:\n      swap1\n      0x00\n      mstore\n      keccak256(0x00, 0x20)\n      swap1\n      0x05\n      mul\n      add\n        /* \"contracts/LP.sol\":3861:3909  duelInfo storage currentDuel = duels[_indexRoom] */\n      swap1\n      pop\n        /* \"contracts/LP.sol\":3928:3965  isPlayerInDuelAtIndexRoom(_indexRoom) */\n      tag_334\n        /* \"contracts/LP.sol\":3954:3964  _indexRoom */\n      dup3\n        /* \"contracts/LP.sol\":3928:3953  isPlayerInDuelAtIndexRoom */\n      tag_46\n        /* \"contracts/LP.sol\":3928:3965  isPlayerInDuelAtIndexRoom(_indexRoom) */\n      jump\t// in\n    tag_334:\n        /* \"contracts/LP.sol\":3920:3988  require(isPlayerInDuelAtIndexRoom(_indexRoom), \"you're not in room\") */\n      tag_335\n      jumpi\n      mload(0x40)\n      shl(0xe5, 0x461bcd)\n      dup2\n      mstore\n        /* \"#utility.yul\":10394:10396   */\n      0x20\n        /* \"contracts/LP.sol\":3920:3988  require(isPlayerInDuelAtIndexRoom(_indexRoom), \"you're not in room\") */\n      0x04\n      dup3\n      add\n        /* \"#utility.yul\":10376:10397   */\n      mstore\n        /* \"#utility.yul\":10433:10435   */\n      0x12\n        /* \"#utility.yul\":10413:10431   */\n      0x24\n      dup3\n      add\n        /* \"#utility.yul\":10406:10436   */\n      mstore\n      shl(0x70, 0x796f75277265206e6f7420696e20726f6f6d)\n        /* \"#utility.yul\":10452:10470   */\n      0x44\n      dup3\n      add\n        /* \"#utility.yul\":10445:10493   */\n      mstore\n        /* \"#utility.yul\":10510:10528   */\n      0x64\n      add\n        /* \"contracts/LP.sol\":3920:3988  require(isPlayerInDuelAtIndexRoom(_indexRoom), \"you're not in room\") */\n      tag_191\n        /* \"#utility.yul\":10192:10534   */\n      jump\n        /* \"contracts/LP.sol\":3920:3988  require(isPlayerInDuelAtIndexRoom(_indexRoom), \"you're not in room\") */\n    tag_335:\n        /* \"contracts/LP.sol\":4258:4274  new uint256[](3) */\n      0x40\n      dup1\n      mload\n        /* \"contracts/LP.sol\":4272:4273  3 */\n      0x03\n        /* \"contracts/LP.sol\":4258:4274  new uint256[](3) */\n      dup1\n      dup3\n      mstore\n      0x80\n      dup3\n      add\n      swap1\n      swap3\n      mstore\n        /* \"contracts/LP.sol\":4231:4255  uint256[] memory damages */\n      0x00\n      swap2\n        /* \"contracts/LP.sol\":4258:4274  new uint256[](3) */\n      0x20\n      dup3\n      add\n      0x60\n      dup1\n      calldatasize\n      dup4\n      calldatacopy\n      add\n      swap1\n      pop\n      pop\n        /* \"contracts/LP.sol\":4231:4274  uint256[] memory damages = new uint256[](3) */\n      swap1\n      pop\n        /* \"contracts/LP.sol\":4285:4301  uint totalDamage */\n      0x00\n      dup1\n        /* \"contracts/LP.sol\":4312:4532  for (uint i = 0; i <= 2; i ++) ... */\n    tag_341:\n        /* \"contracts/LP.sol\":4334:4335  2 */\n      0x02\n        /* \"contracts/LP.sol\":4329:4330  i */\n      dup2\n        /* \"contracts/LP.sol\":4329:4335  i <= 2 */\n      gt\n        /* \"contracts/LP.sol\":4312:4532  for (uint i = 0; i <= 2; i ++) ... */\n      tag_342\n      jumpi\n        /* \"contracts/LP.sol\":4425:4435  msg.sender */\n      caller\n        /* \"contracts/LP.sol\":4374:4385  uint damage */\n      0x00\n        /* \"contracts/LP.sol\":4417:4436  players[msg.sender] */\n      swap1\n      dup2\n      mstore\n        /* \"contracts/LP.sol\":4417:4424  players */\n      0x06\n        /* \"contracts/LP.sol\":4417:4436  players[msg.sender] */\n      0x20\n      mstore\n      0x40\n      dup2\n      keccak256\n        /* \"contracts/LP.sol\":4417:4449  players[msg.sender].energyFactor */\n      0x01\n      add\n      sload\n        /* \"contracts/LP.sol\":4401:4414  defaultDamage */\n      sload(0x05)\n        /* \"contracts/LP.sol\":4388:4398  random(10) */\n      tag_344\n        /* \"contracts/LP.sol\":4395:4397  10 */\n      0x0a\n        /* \"contracts/LP.sol\":4388:4394  random */\n      tag_136\n        /* \"contracts/LP.sol\":4388:4398  random(10) */\n      jump\t// in\n    tag_344:\n        /* \"contracts/LP.sol\":4388:4414  random(10) * defaultDamage */\n      tag_345\n      swap2\n      swap1\n      tag_229\n      jump\t// in\n    tag_345:\n        /* \"contracts/LP.sol\":4388:4449  random(10) * defaultDamage * players[msg.sender].energyFactor */\n      tag_346\n      swap2\n      swap1\n      tag_229\n      jump\t// in\n    tag_346:\n        /* \"contracts/LP.sol\":4374:4449  uint damage = random(10) * defaultDamage * players[msg.sender].energyFactor */\n      swap1\n      pop\n        /* \"contracts/LP.sol\":4480:4486  damage */\n      dup1\n        /* \"contracts/LP.sol\":4467:4474  damages */\n      dup5\n        /* \"contracts/LP.sol\":4475:4476  i */\n      dup4\n        /* \"contracts/LP.sol\":4467:4477  damages[i] */\n      dup2\n      mload\n      dup2\n      lt\n      tag_348\n      jumpi\n      tag_348\n      tag_195\n      jump\t// in\n    tag_348:\n      0x20\n      swap1\n      dup2\n      mul\n      swap2\n      swap1\n      swap2\n      add\n      add\n        /* \"contracts/LP.sol\":4467:4486  damages[i] = damage */\n      mstore\n        /* \"contracts/LP.sol\":4500:4521  totalDamage += damage */\n      tag_349\n        /* \"contracts/LP.sol\":4515:4521  damage */\n      dup2\n        /* \"contracts/LP.sol\":4500:4521  totalDamage += damage */\n      dup5\n      tag_234\n      jump\t// in\n    tag_349:\n      swap3\n      pop\n        /* \"contracts/LP.sol\":4352:4532  {... */\n      pop\n        /* \"contracts/LP.sol\":4337:4341  i ++ */\n      dup1\n      dup1\n      tag_350\n      swap1\n      tag_236\n      jump\t// in\n    tag_350:\n      swap2\n      pop\n      pop\n        /* \"contracts/LP.sol\":4312:4532  for (uint i = 0; i <= 2; i ++) ... */\n      jump(tag_341)\n    tag_342:\n      pop\n        /* \"contracts/LP.sol\":4578:4588  msg.sender */\n      caller\n        /* \"contracts/LP.sol\":4552:4571  currentDuel.players */\n      0x01\n      dup5\n      add\n        /* \"contracts/LP.sol\":4572:4573  0 */\n      0x00\n        /* \"contracts/LP.sol\":4552:4574  currentDuel.players[0] */\n      add\n      sload\n      sub(shl(0xa0, 0x01), 0x01)\n      and\n        /* \"contracts/LP.sol\":4552:4588  currentDuel.players[0] == msg.sender */\n      sub\n        /* \"contracts/LP.sol\":4548:5049  if (currentDuel.players[0] == msg.sender) {... */\n      tag_354\n      jumpi\n        /* \"contracts/LP.sol\":4651:4662  totalDamage */\n      dup1\n        /* \"contracts/LP.sol\":4617:4628  currentDuel */\n      dup4\n        /* \"contracts/LP.sol\":4617:4647  currentDuel.totalDamagePlayer0 */\n      0x03\n      add\n      0x00\n        /* \"contracts/LP.sol\":4617:4662  currentDuel.totalDamagePlayer0 += totalDamage */\n      dup3\n      dup3\n      sload\n      tag_355\n      swap2\n      swap1\n      tag_234\n      jump\t// in\n    tag_355:\n      swap1\n      swap2\n      sstore\n      pop\n      pop\n        /* \"contracts/LP.sol\":4721:4751  currentDuel.totalDamagePlayer0 */\n      0x03\n      dup4\n      add\n      sload\n        /* \"contracts/LP.sol\":4721:4756  currentDuel.totalDamagePlayer0 == 0 */\n      iszero\n        /* \"contracts/LP.sol\":4713:4792  require(currentDuel.totalDamagePlayer0 == 0, \"you're already attacked in duel\") */\n      tag_356\n      jumpi\n      mload(0x40)\n      shl(0xe5, 0x461bcd)\n      dup2\n      mstore\n        /* \"#utility.yul\":10741:10743   */\n      0x20\n        /* \"contracts/LP.sol\":4713:4792  require(currentDuel.totalDamagePlayer0 == 0, \"you're already attacked in duel\") */\n      0x04\n      dup3\n      add\n        /* \"#utility.yul\":10723:10744   */\n      mstore\n        /* \"#utility.yul\":10780:10782   */\n      0x1f\n        /* \"#utility.yul\":10760:10778   */\n      0x24\n      dup3\n      add\n        /* \"#utility.yul\":10753:10783   */\n      mstore\n        /* \"#utility.yul\":10819:10852   */\n      0x796f7527726520616c72656164792061747461636b656420696e206475656c00\n        /* \"#utility.yul\":10799:10817   */\n      0x44\n      dup3\n      add\n        /* \"#utility.yul\":10792:10853   */\n      mstore\n        /* \"#utility.yul\":10870:10888   */\n      0x64\n      add\n        /* \"contracts/LP.sol\":4713:4792  require(currentDuel.totalDamagePlayer0 == 0, \"you're already attacked in duel\") */\n      tag_191\n        /* \"#utility.yul\":10539:10894   */\n      jump\n        /* \"contracts/LP.sol\":4713:4792  require(currentDuel.totalDamagePlayer0 == 0, \"you're already attacked in duel\") */\n    tag_356:\n        /* \"contracts/LP.sol\":4548:5049  if (currentDuel.players[0] == msg.sender) {... */\n      jump(tag_361)\n    tag_354:\n        /* \"contracts/LP.sol\":4866:4877  totalDamage */\n      dup1\n        /* \"contracts/LP.sol\":4832:4843  currentDuel */\n      dup4\n        /* \"contracts/LP.sol\":4832:4862  currentDuel.totalDamagePlayer1 */\n      0x04\n      add\n      0x00\n        /* \"contracts/LP.sol\":4832:4877  currentDuel.totalDamagePlayer1 += totalDamage */\n      dup3\n      dup3\n      sload\n      tag_360\n      swap2\n      swap1\n      tag_234\n      jump\t// in\n    tag_360:\n      swap1\n      swap2\n      sstore\n      pop\n      pop\n        /* \"contracts/LP.sol\":4966:4996  currentDuel.totalDamagePlayer0 */\n      0x03\n      dup4\n      add\n      sload\n        /* \"contracts/LP.sol\":4966:5001  currentDuel.totalDamagePlayer0 == 0 */\n      iszero\n        /* \"contracts/LP.sol\":4958:5037  require(currentDuel.totalDamagePlayer0 == 0, \"you're already attacked in duel\") */\n      tag_361\n      jumpi\n      mload(0x40)\n      shl(0xe5, 0x461bcd)\n      dup2\n      mstore\n        /* \"#utility.yul\":10741:10743   */\n      0x20\n        /* \"contracts/LP.sol\":4958:5037  require(currentDuel.totalDamagePlayer0 == 0, \"you're already attacked in duel\") */\n      0x04\n      dup3\n      add\n        /* \"#utility.yul\":10723:10744   */\n      mstore\n        /* \"#utility.yul\":10780:10782   */\n      0x1f\n        /* \"#utility.yul\":10760:10778   */\n      0x24\n      dup3\n      add\n        /* \"#utility.yul\":10753:10783   */\n      mstore\n        /* \"#utility.yul\":10819:10852   */\n      0x796f7527726520616c72656164792061747461636b656420696e206475656c00\n        /* \"#utility.yul\":10799:10817   */\n      0x44\n      dup3\n      add\n        /* \"#utility.yul\":10792:10853   */\n      mstore\n        /* \"#utility.yul\":10870:10888   */\n      0x64\n      add\n        /* \"contracts/LP.sol\":4958:5037  require(currentDuel.totalDamagePlayer0 == 0, \"you're already attacked in duel\") */\n      tag_191\n        /* \"#utility.yul\":10539:10894   */\n      jump\n        /* \"contracts/LP.sol\":4958:5037  require(currentDuel.totalDamagePlayer0 == 0, \"you're already attacked in duel\") */\n    tag_361:\n        /* \"contracts/LP.sol\":5080:5090  msg.sender */\n      caller\n      sub(shl(0xa0, 0x01), 0x01)\n        /* \"contracts/LP.sol\":5065:5112  duelAttackLogs(msg.sender, _indexRoom, damages) */\n      and\n      0x0f2ba4445fbd3af142b7a1251df18b6d462b23687b1bc8799a1c3eddb4ff0826\n        /* \"contracts/LP.sol\":5092:5102  _indexRoom */\n      dup6\n        /* \"contracts/LP.sol\":5104:5111  damages */\n      dup5\n        /* \"contracts/LP.sol\":5065:5112  duelAttackLogs(msg.sender, _indexRoom, damages) */\n      mload(0x40)\n      tag_363\n      swap3\n      swap2\n      swap1\n      tag_364\n      jump\t// in\n    tag_363:\n      mload(0x40)\n      dup1\n      swap2\n      sub\n      swap1\n      log2\n        /* \"contracts/LP.sol\":3832:5131  {... */\n      pop\n      pop\n      pop\n        /* \"contracts/LP.sol\":3781:5131  function doAttackInDuel(uint256 _indexRoom) public {... */\n      pop\n      jump\t// out\n        /* \"contracts/LP.sol\":8553:9102  function leaveGame() public {... */\n    tag_132:\n        /* \"contracts/LP.sol\":8709:8718  uint256 i */\n      0x00\n        /* \"contracts/LP.sol\":8691:9059  for (... */\n    tag_366:\n        /* \"contracts/LP.sol\":8748:8758  msg.sender */\n      caller\n        /* \"contracts/LP.sol\":8740:8759  players[msg.sender] */\n      0x00\n      swap1\n      dup2\n      mstore\n        /* \"contracts/LP.sol\":8740:8747  players */\n      0x06\n        /* \"contracts/LP.sol\":8740:8759  players[msg.sender] */\n      0x20\n      mstore\n      0x40\n      swap1\n      keccak256\n        /* \"contracts/LP.sol\":8740:8775  players[msg.sender].playingTokenIds */\n      0x05\n      add\n        /* \"contracts/LP.sol\":8740:8782  players[msg.sender].playingTokenIds.length */\n      sload\n        /* \"contracts/LP.sol\":8736:8782  i < players[msg.sender].playingTokenIds.length */\n      dup2\n      lt\n        /* \"contracts/LP.sol\":8691:9059  for (... */\n      iszero\n      tag_367\n      jumpi\n        /* \"contracts/LP.sol\":8824:8834  Collection */\n      sload(0x01)\n        /* \"contracts/LP.sol\":8879:8889  msg.sender */\n      caller\n        /* \"contracts/LP.sol\":8824:8834  Collection */\n      0x00\n        /* \"contracts/LP.sol\":8871:8890  players[msg.sender] */\n      swap1\n      dup2\n      mstore\n        /* \"contracts/LP.sol\":8871:8878  players */\n      0x06\n        /* \"contracts/LP.sol\":8871:8890  players[msg.sender] */\n      0x20\n      mstore\n      0x40\n      swap1\n      keccak256\n        /* \"contracts/LP.sol\":8871:8906  players[msg.sender].playingTokenIds */\n      0x05\n      add\n        /* \"contracts/LP.sol\":8871:8909  players[msg.sender].playingTokenIds[i] */\n      dup1\n      sload\n      sub(shl(0xa0, 0x01), 0x01)\n        /* \"contracts/LP.sol\":8824:8834  Collection */\n      swap1\n      swap3\n      and\n      swap2\n        /* \"contracts/LP.sol\":8824:8853  Collection.setNotTransferable */\n      0xfb4f8197\n      swap2\n        /* \"contracts/LP.sol\":8871:8906  players[msg.sender].playingTokenIds */\n      swap1\n        /* \"contracts/LP.sol\":8907:8908  i */\n      dup5\n      swap1\n        /* \"contracts/LP.sol\":8871:8909  players[msg.sender].playingTokenIds[i] */\n      dup2\n      lt\n      tag_370\n      jumpi\n      tag_370\n      tag_195\n      jump\t// in\n    tag_370:\n      swap1\n      0x00\n      mstore\n      keccak256(0x00, 0x20)\n      add\n      sload\n        /* \"contracts/LP.sol\":8927:8932  false */\n      0x00\n        /* \"contracts/LP.sol\":8824:8946  Collection.setNotTransferable(... */\n      mload(0x40)\n      dup4\n      0xffffffff\n      and\n      0xe0\n      shl\n      dup2\n      mstore\n      0x04\n      add\n      tag_372\n      swap3\n      swap2\n      swap1\n        /* \"#utility.yul\":8653:8678   */\n      swap2\n      dup3\n      mstore\n        /* \"#utility.yul\":8721:8735   */\n      iszero\n        /* \"#utility.yul\":8714:8736   */\n      iszero\n        /* \"#utility.yul\":8709:8711   */\n      0x20\n        /* \"#utility.yul\":8694:8712   */\n      dup3\n      add\n        /* \"#utility.yul\":8687:8737   */\n      mstore\n        /* \"#utility.yul\":8641:8643   */\n      0x40\n        /* \"#utility.yul\":8626:8644   */\n      add\n      swap1\n        /* \"#utility.yul\":8485:8743   */\n      jump\n        /* \"contracts/LP.sol\":8824:8946  Collection.setNotTransferable(... */\n    tag_372:\n      0x00\n      mload(0x40)\n      dup1\n      dup4\n      sub\n      dup2\n      0x00\n      dup8\n      dup1\n      extcodesize\n      iszero\n      dup1\n      iszero\n      tag_373\n      jumpi\n      0x00\n      dup1\n      revert\n    tag_373:\n      pop\n      gas\n      call\n      iszero\n      dup1\n      iszero\n      tag_375\n      jumpi\n      returndatasize\n      0x00\n      dup1\n      returndatacopy\n      revert(0x00, returndatasize)\n    tag_375:\n      pop\n      pop\n      pop\n      pop\n        /* \"contracts/LP.sol\":8796:8799  i++ */\n      dup1\n      dup1\n      tag_376\n      swap1\n      tag_236\n      jump\t// in\n    tag_376:\n      swap2\n      pop\n      pop\n        /* \"contracts/LP.sol\":8691:9059  for (... */\n      jump(tag_366)\n    tag_367:\n      pop\n        /* \"contracts/LP.sol\":9084:9094  msg.sender */\n      caller\n        /* \"contracts/LP.sol\":9076:9095  players[msg.sender] */\n      0x00\n      swap1\n      dup2\n      mstore\n        /* \"contracts/LP.sol\":9076:9083  players */\n      0x06\n        /* \"contracts/LP.sol\":9076:9095  players[msg.sender] */\n      0x20\n      mstore\n      0x40\n      dup2\n      keccak256\n        /* \"contracts/LP.sol\":9069:9095  delete players[msg.sender] */\n      dup2\n      dup2\n      sstore\n      0x01\n      dup2\n      add\n      dup3\n      swap1\n      sstore\n      0x02\n      dup2\n      add\n      dup3\n      swap1\n      sstore\n      0x03\n      dup2\n      add\n      dup3\n      swap1\n      sstore\n      0x04\n      dup2\n      add\n      dup3\n      swap1\n      sstore\n        /* \"contracts/LP.sol\":9076:9095  players[msg.sender] */\n      swap1\n        /* \"contracts/LP.sol\":9069:9095  delete players[msg.sender] */\n      tag_291\n      0x05\n      dup4\n      add\n        /* \"contracts/LP.sol\":9076:9095  players[msg.sender] */\n      dup3\n        /* \"contracts/LP.sol\":9069:9095  delete players[msg.sender] */\n      tag_378\n      jump\t// in\n        /* \"contracts/LP.sol\":2151:2556  function random(uint256 _value) public view returns (uint256) {... */\n    tag_136:\n        /* \"contracts/LP.sol\":2204:2211  uint256 */\n      0x00\n        /* \"contracts/LP.sol\":2543:2549  _value */\n      dup2\n        /* \"contracts/LP.sol\":2340:2355  block.timestamp */\n      timestamp\n        /* \"contracts/LP.sol\":2381:2397  block.difficulty */\n      difficulty\n        /* \"contracts/LP.sol\":2433:2449  block.number - 1 */\n      tag_380\n        /* \"contracts/LP.sol\":2448:2449  1 */\n      0x01\n        /* \"contracts/LP.sol\":2433:2445  block.number */\n      number\n        /* \"contracts/LP.sol\":2433:2449  block.number - 1 */\n      tag_238\n      jump\t// in\n    tag_380:\n        /* \"contracts/LP.sol\":2298:2508  abi.encodePacked(... */\n      0x40\n      dup1\n      mload\n      0x20\n      dup2\n      add\n        /* \"#utility.yul\":11449:11468   */\n      swap5\n      swap1\n      swap5\n      mstore\n        /* \"#utility.yul\":11484:11496   */\n      dup4\n      add\n        /* \"#utility.yul\":11477:11505   */\n      swap2\n      swap1\n      swap2\n      mstore\n        /* \"contracts/LP.sol\":2423:2450  blockhash(block.number - 1) */\n      blockhash\n        /* \"#utility.yul\":11521:11533   */\n      0x60\n      dup1\n      dup4\n      add\n        /* \"#utility.yul\":11514:11542   */\n      swap2\n      swap1\n      swap2\n      mstore\n        /* \"contracts/LP.sol\":2476:2486  msg.sender */\n      caller\n        /* \"#utility.yul\":11576:11591   */\n      swap1\n      shl\n      not(0xffffffffffffffffffffffff)\n        /* \"#utility.yul\":11572:11625   */\n      and\n        /* \"#utility.yul\":11558:11570   */\n      0x80\n      dup3\n      add\n        /* \"#utility.yul\":11551:11626   */\n      mstore\n        /* \"#utility.yul\":11642:11655   */\n      0x94\n      add\n        /* \"contracts/LP.sol\":2298:2508  abi.encodePacked(... */\n      mload(0x40)\n      0x20\n      dup2\n      dup4\n      sub\n      sub\n      dup2\n      mstore\n      swap1\n      0x40\n      mstore\n        /* \"contracts/LP.sol\":2267:2526  keccak256(... */\n      dup1\n      mload\n      swap1\n      0x20\n      add\n      keccak256\n        /* \"contracts/LP.sol\":2242:2540  uint256(... */\n      0x00\n      shr\n        /* \"contracts/LP.sol\":2242:2549  uint256(... */\n      tag_383\n      swap2\n      swap1\n      tag_384\n      jump\t// in\n    tag_383:\n        /* \"contracts/LP.sol\":2223:2549  return... */\n      swap3\n        /* \"contracts/LP.sol\":2151:2556  function random(uint256 _value) public view returns (uint256) {... */\n      swap2\n      pop\n      pop\n      jump\t// out\n        /* \"contracts/LP.sol\":11691:12013  function checkOwnershipOfTokens(uint256[] memory _tokenIds) public view returns(bool) {... */\n    tag_142:\n        /* \"contracts/LP.sol\":11771:11775  bool */\n      0x00\n      dup1\n        /* \"contracts/LP.sol\":11788:11986  for (uint i = 0; i < _tokenIds.length; i++) ... */\n    tag_386:\n        /* \"contracts/LP.sol\":11809:11818  _tokenIds */\n      dup3\n        /* \"contracts/LP.sol\":11809:11825  _tokenIds.length */\n      mload\n        /* \"contracts/LP.sol\":11805:11806  i */\n      dup2\n        /* \"contracts/LP.sol\":11805:11825  i < _tokenIds.length */\n      lt\n        /* \"contracts/LP.sol\":11788:11986  for (uint i = 0; i < _tokenIds.length; i++) ... */\n      iszero\n      tag_387\n      jumpi\n        /* \"contracts/LP.sol\":11886:11896  Collection */\n      sload(0x01)\n        /* \"contracts/LP.sol\":11905:11917  _tokenIds[i] */\n      dup4\n      mload\n        /* \"contracts/LP.sol\":11922:11931  tx.origin */\n      origin\n      swap2\n      sub(shl(0xa0, 0x01), 0x01)\n        /* \"contracts/LP.sol\":11886:11896  Collection */\n      and\n      swap1\n        /* \"contracts/LP.sol\":11886:11904  Collection.ownerOf */\n      0x6352211e\n      swap1\n        /* \"contracts/LP.sol\":11905:11914  _tokenIds */\n      dup7\n      swap1\n        /* \"contracts/LP.sol\":11915:11916  i */\n      dup6\n      swap1\n        /* \"contracts/LP.sol\":11905:11917  _tokenIds[i] */\n      dup2\n      lt\n      tag_390\n      jumpi\n      tag_390\n      tag_195\n      jump\t// in\n    tag_390:\n      0x20\n      mul\n      0x20\n      add\n      add\n      mload\n        /* \"contracts/LP.sol\":11886:11918  Collection.ownerOf(_tokenIds[i]) */\n      mload(0x40)\n      dup3\n      0xffffffff\n      and\n      0xe0\n      shl\n      dup2\n      mstore\n      0x04\n      add\n      tag_391\n      swap2\n        /* \"#utility.yul\":1481:1506   */\n      dup2\n      mstore\n        /* \"#utility.yul\":1469:1471   */\n      0x20\n        /* \"#utility.yul\":1454:1472   */\n      add\n      swap1\n        /* \"#utility.yul\":1335:1512   */\n      jump\n        /* \"contracts/LP.sol\":11886:11918  Collection.ownerOf(_tokenIds[i]) */\n    tag_391:\n      0x20\n      mload(0x40)\n      dup1\n      dup4\n      sub\n      dup2\n      dup7\n      gas\n      staticcall\n      iszero\n      dup1\n      iszero\n      tag_393\n      jumpi\n      returndatasize\n      0x00\n      dup1\n      returndatacopy\n      revert(0x00, returndatasize)\n    tag_393:\n      pop\n      pop\n      pop\n      pop\n      mload(0x40)\n      returndatasize\n      not(0x1f)\n      0x1f\n      dup3\n      add\n      and\n      dup3\n      add\n      dup1\n      0x40\n      mstore\n      pop\n      dup2\n      add\n      swap1\n      tag_394\n      swap2\n      swap1\n      tag_395\n      jump\t// in\n    tag_394:\n      sub(shl(0xa0, 0x01), 0x01)\n        /* \"contracts/LP.sol\":11886:11931  Collection.ownerOf(_tokenIds[i]) != tx.origin */\n      and\n      eq\n        /* \"contracts/LP.sol\":11883:11976  if(Collection.ownerOf(_tokenIds[i]) != tx.origin) {... */\n      tag_396\n      jumpi\n      pop\n        /* \"contracts/LP.sol\":11957:11962  false */\n      0x00\n      swap3\n        /* \"contracts/LP.sol\":11691:12013  function checkOwnershipOfTokens(uint256[] memory _tokenIds) public view returns(bool) {... */\n      swap2\n      pop\n      pop\n      jump\t// out\n        /* \"contracts/LP.sol\":11883:11976  if(Collection.ownerOf(_tokenIds[i]) != tx.origin) {... */\n    tag_396:\n        /* \"contracts/LP.sol\":11827:11830  i++ */\n      dup1\n      tag_397\n      dup2\n      tag_236\n      jump\t// in\n    tag_397:\n      swap2\n      pop\n      pop\n        /* \"contracts/LP.sol\":11788:11986  for (uint i = 0; i < _tokenIds.length; i++) ... */\n      jump(tag_386)\n    tag_387:\n      pop\n        /* \"contracts/LP.sol\":12002:12006  true */\n      0x01\n      swap3\n        /* \"contracts/LP.sol\":11691:12013  function checkOwnershipOfTokens(uint256[] memory _tokenIds) public view returns(bool) {... */\n      swap2\n      pop\n      pop\n      jump\t// out\n        /* \"contracts/LP.sol\":9850:10195  function buyEnergyForTokens(uint256 _amountEnergy) public {... */\n    tag_147:\n        /* \"contracts/LP.sol\":9918:9943  uint256 amountToPayTokens */\n      0x00\n        /* \"contracts/LP.sol\":9962:9981  energyPriceInTokens */\n      sload(0x04)\n        /* \"contracts/LP.sol\":9946:9959  _amountEnergy */\n      dup3\n        /* \"contracts/LP.sol\":9946:9981  _amountEnergy * energyPriceInTokens */\n      tag_399\n      swap2\n      swap1\n      tag_229\n      jump\t// in\n    tag_399:\n        /* \"contracts/LP.sol\":9992:9999  LPToken */\n      sload(0x02)\n        /* \"contracts/LP.sol\":9992:10058  LPToken.transferFrom(msg.sender, address(this), amountToPayTokens) */\n      mload(0x40)\n      shl(0xe0, 0x23b872dd)\n      dup2\n      mstore\n        /* \"contracts/LP.sol\":10013:10023  msg.sender */\n      caller\n        /* \"contracts/LP.sol\":9992:10058  LPToken.transferFrom(msg.sender, address(this), amountToPayTokens) */\n      0x04\n      dup3\n      add\n        /* \"#utility.yul\":10052:10086   */\n      mstore\n        /* \"contracts/LP.sol\":10033:10037  this */\n      address\n        /* \"#utility.yul\":10102:10120   */\n      0x24\n      dup3\n      add\n        /* \"#utility.yul\":10095:10138   */\n      mstore\n        /* \"#utility.yul\":10154:10172   */\n      0x44\n      dup2\n      add\n        /* \"#utility.yul\":10147:10181   */\n      dup4\n      swap1\n      mstore\n        /* \"contracts/LP.sol\":9918:9981  uint256 amountToPayTokens = _amountEnergy * energyPriceInTokens */\n      swap2\n      swap3\n      pop\n      sub(shl(0xa0, 0x01), 0x01)\n        /* \"contracts/LP.sol\":9992:9999  LPToken */\n      and\n      swap1\n        /* \"contracts/LP.sol\":9992:10012  LPToken.transferFrom */\n      0x23b872dd\n      swap1\n        /* \"#utility.yul\":9987:10005   */\n      0x64\n      add\n        /* \"contracts/LP.sol\":9992:10058  LPToken.transferFrom(msg.sender, address(this), amountToPayTokens) */\n      0x20\n      mload(0x40)\n      dup1\n      dup4\n      sub\n      dup2\n      0x00\n      dup8\n      gas\n      call\n      iszero\n      dup1\n      iszero\n      tag_402\n      jumpi\n      returndatasize\n      0x00\n      dup1\n      returndatacopy\n      revert(0x00, returndatasize)\n    tag_402:\n      pop\n      pop\n      pop\n      pop\n      mload(0x40)\n      returndatasize\n      not(0x1f)\n      0x1f\n      dup3\n      add\n      and\n      dup3\n      add\n      dup1\n      0x40\n      mstore\n      pop\n      dup2\n      add\n      swap1\n      tag_403\n      swap2\n      swap1\n      tag_258\n      jump\t// in\n    tag_403:\n      pop\n        /* \"contracts/LP.sol\":10077:10087  msg.sender */\n      caller\n        /* \"contracts/LP.sol\":10069:10088  players[msg.sender] */\n      0x00\n      swap1\n      dup2\n      mstore\n        /* \"contracts/LP.sol\":10069:10076  players */\n      0x06\n        /* \"contracts/LP.sol\":10069:10088  players[msg.sender] */\n      0x20\n      mstore\n      0x40\n      dup2\n      keccak256\n        /* \"contracts/LP.sol\":10069:10102  players[msg.sender].energyBalance */\n      0x02\n      add\n        /* \"contracts/LP.sol\":10069:10119  players[msg.sender].energyBalance += _amountEnergy */\n      dup1\n      sload\n        /* \"contracts/LP.sol\":10106:10119  _amountEnergy */\n      dup5\n      swap3\n        /* \"contracts/LP.sol\":10069:10088  players[msg.sender] */\n      swap1\n        /* \"contracts/LP.sol\":10069:10119  players[msg.sender].energyBalance += _amountEnergy */\n      tag_404\n      swap1\n        /* \"contracts/LP.sol\":10106:10119  _amountEnergy */\n      dup5\n      swap1\n        /* \"contracts/LP.sol\":10069:10119  players[msg.sender].energyBalance += _amountEnergy */\n      tag_234\n      jump\t// in\n    tag_404:\n      swap1\n      swap2\n      sstore\n      pop\n      pop\n      pop\n      pop\n        /* \"contracts/LP.sol\":9850:10195  function buyEnergyForTokens(uint256 _amountEnergy) public {... */\n      jump\t// out\n        /* \"contracts/LP.sol\":5176:5440  function findAvailableDuel() public view returns(uint256) {... */\n    tag_150:\n        /* \"contracts/LP.sol\":5225:5232  uint256 */\n      0x00\n      dup1\n        /* \"contracts/LP.sol\":5245:5377  for (uint i = 0; i < duels.length; i++) {... */\n    tag_406:\n        /* \"contracts/LP.sol\":5266:5271  duels */\n      0x08\n        /* \"contracts/LP.sol\":5266:5278  duels.length */\n      sload\n        /* \"contracts/LP.sol\":5262:5278  i < duels.length */\n      dup2\n      lt\n        /* \"contracts/LP.sol\":5245:5377  for (uint i = 0; i < duels.length; i++) {... */\n      iszero\n      tag_407\n      jumpi\n        /* \"contracts/LP.sol\":5308:5313  duels */\n      0x08\n        /* \"contracts/LP.sol\":5314:5315  i */\n      dup2\n        /* \"contracts/LP.sol\":5308:5316  duels[i] */\n      dup2\n      sload\n      dup2\n      lt\n      tag_410\n      jumpi\n      tag_410\n      tag_195\n      jump\t// in\n    tag_410:\n      swap1\n      0x00\n      mstore\n      keccak256(0x00, 0x20)\n      swap1\n      0x05\n      mul\n      add\n        /* \"contracts/LP.sol\":5308:5327  duels[i].playersNow */\n      0x00\n      add\n      sload\n        /* \"contracts/LP.sol\":5330:5331  2 */\n      0x02\n        /* \"contracts/LP.sol\":5308:5331  duels[i].playersNow !=2 */\n      eq\n        /* \"contracts/LP.sol\":5305:5366  if(duels[i].playersNow !=2) {... */\n      tag_412\n      jumpi\n        /* \"contracts/LP.sol\":5354:5355  i */\n      swap2\n        /* \"contracts/LP.sol\":5176:5440  function findAvailableDuel() public view returns(uint256) {... */\n      swap1\n      pop\n      jump\t// out\n        /* \"contracts/LP.sol\":5305:5366  if(duels[i].playersNow !=2) {... */\n    tag_412:\n        /* \"contracts/LP.sol\":5280:5283  i++ */\n      dup1\n      tag_413\n      dup2\n      tag_236\n      jump\t// in\n    tag_413:\n      swap2\n      pop\n      pop\n        /* \"contracts/LP.sol\":5245:5377  for (uint i = 0; i < duels.length; i++) {... */\n      jump(tag_406)\n    tag_407:\n      pop\n        /* \"contracts/LP.sol\":5387:5431  revert(\"could not find available duel room\") */\n      mload(0x40)\n      shl(0xe5, 0x461bcd)\n      dup2\n      mstore\n        /* \"#utility.yul\":12241:12243   */\n      0x20\n        /* \"contracts/LP.sol\":5387:5431  revert(\"could not find available duel room\") */\n      0x04\n      dup3\n      add\n        /* \"#utility.yul\":12223:12244   */\n      mstore\n        /* \"#utility.yul\":12280:12282   */\n      0x22\n        /* \"#utility.yul\":12260:12278   */\n      0x24\n      dup3\n      add\n        /* \"#utility.yul\":12253:12283   */\n      mstore\n        /* \"#utility.yul\":12319:12353   */\n      0x636f756c64206e6f742066696e6420617661696c61626c65206475656c20726f\n        /* \"#utility.yul\":12299:12317   */\n      0x44\n      dup3\n      add\n        /* \"#utility.yul\":12292:12354   */\n      mstore\n      shl(0xf0, 0x6f6d)\n        /* \"#utility.yul\":12370:12388   */\n      0x64\n      dup3\n      add\n        /* \"#utility.yul\":12363:12395   */\n      mstore\n        /* \"#utility.yul\":12412:12431   */\n      0x84\n      add\n        /* \"contracts/LP.sol\":5387:5431  revert(\"could not find available duel room\") */\n      tag_191\n        /* \"#utility.yul\":12039:12437   */\n      jump\n        /* \"contracts/LP.sol\":12442:13606  function getFinalTreasures(uint256[] memory _tokenIds) public payable  {... */\n    tag_154:\n        /* \"contracts/LP.sol\":12861:12871  msg.sender */\n      caller\n        /* \"contracts/LP.sol\":12853:12872  players[msg.sender] */\n      0x00\n      swap1\n      dup2\n      mstore\n        /* \"contracts/LP.sol\":12853:12860  players */\n      0x06\n        /* \"contracts/LP.sol\":12853:12872  players[msg.sender] */\n      0x20\n      mstore\n      0x40\n      swap1\n      keccak256\n        /* \"contracts/LP.sol\":12853:12888  players[msg.sender].qtyBossDefeated */\n      sload\n        /* \"contracts/LP.sol\":12892:12893  3 */\n      0x03\n        /* \"contracts/LP.sol\":12853:12893  players[msg.sender].qtyBossDefeated == 3 */\n      eq\n        /* \"contracts/LP.sol\":12845:12927  require(players[msg.sender].qtyBossDefeated == 3, \"you have to defeat all bosses\") */\n      tag_417\n      jumpi\n      mload(0x40)\n      shl(0xe5, 0x461bcd)\n      dup2\n      mstore\n        /* \"#utility.yul\":12644:12646   */\n      0x20\n        /* \"contracts/LP.sol\":12845:12927  require(players[msg.sender].qtyBossDefeated == 3, \"you have to defeat all bosses\") */\n      0x04\n      dup3\n      add\n        /* \"#utility.yul\":12626:12647   */\n      mstore\n        /* \"#utility.yul\":12683:12685   */\n      0x1d\n        /* \"#utility.yul\":12663:12681   */\n      0x24\n      dup3\n      add\n        /* \"#utility.yul\":12656:12686   */\n      mstore\n        /* \"#utility.yul\":12722:12753   */\n      0x796f75206861766520746f2064656665617420616c6c20626f73736573000000\n        /* \"#utility.yul\":12702:12720   */\n      0x44\n      dup3\n      add\n        /* \"#utility.yul\":12695:12754   */\n      mstore\n        /* \"#utility.yul\":12771:12789   */\n      0x64\n      add\n        /* \"contracts/LP.sol\":12845:12927  require(players[msg.sender].qtyBossDefeated == 3, \"you have to defeat all bosses\") */\n      tag_191\n        /* \"#utility.yul\":12442:12795   */\n      jump\n        /* \"contracts/LP.sol\":12845:12927  require(players[msg.sender].qtyBossDefeated == 3, \"you have to defeat all bosses\") */\n    tag_417:\n        /* \"contracts/LP.sol\":12944:12978  checkOwnershipOfTokens( _tokenIds) */\n      tag_420\n        /* \"contracts/LP.sol\":12968:12977  _tokenIds */\n      dup2\n        /* \"contracts/LP.sol\":12944:12966  checkOwnershipOfTokens */\n      tag_142\n        /* \"contracts/LP.sol\":12944:12978  checkOwnershipOfTokens( _tokenIds) */\n      jump\t// in\n    tag_420:\n        /* \"contracts/LP.sol\":12936:13017  require(checkOwnershipOfTokens( _tokenIds), \"you're not owner of these tokenIds\") */\n      tag_421\n      jumpi\n      mload(0x40)\n      shl(0xe5, 0x461bcd)\n      dup2\n      mstore\n        /* \"#utility.yul\":13002:13004   */\n      0x20\n        /* \"contracts/LP.sol\":12936:13017  require(checkOwnershipOfTokens( _tokenIds), \"you're not owner of these tokenIds\") */\n      0x04\n      dup3\n      add\n        /* \"#utility.yul\":12984:13005   */\n      mstore\n        /* \"#utility.yul\":13041:13043   */\n      0x22\n        /* \"#utility.yul\":13021:13039   */\n      0x24\n      dup3\n      add\n        /* \"#utility.yul\":13014:13044   */\n      mstore\n        /* \"#utility.yul\":13080:13114   */\n      0x796f75277265206e6f74206f776e6572206f6620746865736520746f6b656e49\n        /* \"#utility.yul\":13060:13078   */\n      0x44\n      dup3\n      add\n        /* \"#utility.yul\":13053:13115   */\n      mstore\n      shl(0xf0, 0x6473)\n        /* \"#utility.yul\":13131:13149   */\n      0x64\n      dup3\n      add\n        /* \"#utility.yul\":13124:13156   */\n      mstore\n        /* \"#utility.yul\":13173:13192   */\n      0x84\n      add\n        /* \"contracts/LP.sol\":12936:13017  require(checkOwnershipOfTokens( _tokenIds), \"you're not owner of these tokenIds\") */\n      tag_191\n        /* \"#utility.yul\":12800:13198   */\n      jump\n        /* \"contracts/LP.sol\":12936:13017  require(checkOwnershipOfTokens( _tokenIds), \"you're not owner of these tokenIds\") */\n    tag_421:\n        /* \"contracts/LP.sol\":13035:13071  isTokensClaimedTreasures( _tokenIds) */\n      tag_424\n        /* \"contracts/LP.sol\":13061:13070  _tokenIds */\n      dup2\n        /* \"contracts/LP.sol\":13035:13059  isTokensClaimedTreasures */\n      tag_180\n        /* \"contracts/LP.sol\":13035:13071  isTokensClaimedTreasures( _tokenIds) */\n      jump\t// in\n    tag_424:\n        /* \"contracts/LP.sol\":13034:13071  !isTokensClaimedTreasures( _tokenIds) */\n      iszero\n        /* \"contracts/LP.sol\":13026:13095  require(!isTokensClaimedTreasures( _tokenIds), \"tokens were claimed\") */\n      tag_425\n      jumpi\n      mload(0x40)\n      shl(0xe5, 0x461bcd)\n      dup2\n      mstore\n        /* \"#utility.yul\":13405:13407   */\n      0x20\n        /* \"contracts/LP.sol\":13026:13095  require(!isTokensClaimedTreasures( _tokenIds), \"tokens were claimed\") */\n      0x04\n      dup3\n      add\n        /* \"#utility.yul\":13387:13408   */\n      mstore\n        /* \"#utility.yul\":13444:13446   */\n      0x13\n        /* \"#utility.yul\":13424:13442   */\n      0x24\n      dup3\n      add\n        /* \"#utility.yul\":13417:13447   */\n      mstore\n      shl(0x6a, 0x1d1bdad95b9cc81dd95c994818db185a5b5959)\n        /* \"#utility.yul\":13463:13481   */\n      0x44\n      dup3\n      add\n        /* \"#utility.yul\":13456:13505   */\n      mstore\n        /* \"#utility.yul\":13522:13540   */\n      0x64\n      add\n        /* \"contracts/LP.sol\":13026:13095  require(!isTokensClaimedTreasures( _tokenIds), \"tokens were claimed\") */\n      tag_191\n        /* \"#utility.yul\":13203:13546   */\n      jump\n        /* \"contracts/LP.sol\":13026:13095  require(!isTokensClaimedTreasures( _tokenIds), \"tokens were claimed\") */\n    tag_425:\n        /* \"contracts/LP.sol\":13107:13125  uint totalMsgValue */\n      0x00\n      dup1\n        /* \"contracts/LP.sol\":13136:13516  for (uint i = 0; i < _tokenIds.length; i++) {... */\n    tag_428:\n        /* \"contracts/LP.sol\":13157:13166  _tokenIds */\n      dup3\n        /* \"contracts/LP.sol\":13157:13173  _tokenIds.length */\n      mload\n        /* \"contracts/LP.sol\":13153:13154  i */\n      dup2\n        /* \"contracts/LP.sol\":13153:13173  i < _tokenIds.length */\n      lt\n        /* \"contracts/LP.sol\":13136:13516  for (uint i = 0; i < _tokenIds.length; i++) {... */\n      iszero\n      tag_429\n      jumpi\n        /* \"contracts/LP.sol\":13228:13232  true */\n      0x01\n        /* \"contracts/LP.sol\":13195:13211  isTokenIdClaimed */\n      0x0b\n        /* \"contracts/LP.sol\":13195:13225  isTokenIdClaimed[_tokenIds[i]] */\n      0x00\n        /* \"contracts/LP.sol\":13212:13221  _tokenIds */\n      dup6\n        /* \"contracts/LP.sol\":13222:13223  i */\n      dup5\n        /* \"contracts/LP.sol\":13212:13224  _tokenIds[i] */\n      dup2\n      mload\n      dup2\n      lt\n      tag_432\n      jumpi\n      tag_432\n      tag_195\n      jump\t// in\n    tag_432:\n      0x20\n      mul\n      0x20\n      add\n      add\n      mload\n        /* \"contracts/LP.sol\":13195:13225  isTokenIdClaimed[_tokenIds[i]] */\n      dup2\n      mstore\n      0x20\n      add\n      swap1\n      dup2\n      mstore\n      0x20\n      add\n      0x00\n      keccak256\n      0x00\n        /* \"contracts/LP.sol\":13195:13232  isTokenIdClaimed[_tokenIds[i]] = true */\n      0x0100\n      exp\n      dup2\n      sload\n      dup2\n      0xff\n      mul\n      not\n      and\n      swap1\n      dup4\n      iszero\n      iszero\n      mul\n      or\n      swap1\n      sstore\n      pop\n        /* \"contracts/LP.sol\":13246:13257  uint chance */\n      0x00\n        /* \"contracts/LP.sol\":13260:13270  random(10) */\n      tag_433\n        /* \"contracts/LP.sol\":13267:13269  10 */\n      0x0a\n        /* \"contracts/LP.sol\":13260:13266  random */\n      tag_136\n        /* \"contracts/LP.sol\":13260:13270  random(10) */\n      jump\t// in\n    tag_433:\n        /* \"contracts/LP.sol\":13246:13270  uint chance = random(10) */\n      swap1\n      pop\n        /* \"contracts/LP.sol\":13293:13294  2 */\n      0x02\n        /* \"contracts/LP.sol\":13284:13290  chance */\n      dup2\n        /* \"contracts/LP.sol\":13284:13294  chance <=2 */\n      gt\n        /* \"contracts/LP.sol\":13281:13515  if(chance <=2) {... */\n      tag_434\n      jumpi\n        /* \"contracts/LP.sol\":13328:13338  Collection */\n      sload(0x01)\n        /* \"contracts/LP.sol\":13328:13352  Collection.viewNFTCost() */\n      0x40\n      dup1\n      mload\n      shl(0xe0, 0xa9113247)\n      dup2\n      mstore\n      swap1\n      mload\n        /* \"contracts/LP.sol\":13360:13363  100 */\n      0x64\n      swap3\n      sub(shl(0xa0, 0x01), 0x01)\n        /* \"contracts/LP.sol\":13328:13338  Collection */\n      and\n      swap2\n        /* \"contracts/LP.sol\":13328:13350  Collection.viewNFTCost */\n      0xa9113247\n      swap2\n        /* \"contracts/LP.sol\":13328:13352  Collection.viewNFTCost() */\n      0x04\n      dup1\n      dup4\n      add\n      swap3\n      0x20\n      swap3\n      swap2\n      swap1\n      dup3\n      swap1\n      sub\n      add\n      dup2\n        /* \"contracts/LP.sol\":13328:13338  Collection */\n      dup7\n        /* \"contracts/LP.sol\":13328:13352  Collection.viewNFTCost() */\n      gas\n      staticcall\n      iszero\n      dup1\n      iszero\n      tag_436\n      jumpi\n      returndatasize\n      0x00\n      dup1\n      returndatacopy\n      revert(0x00, returndatasize)\n    tag_436:\n      pop\n      pop\n      pop\n      pop\n      mload(0x40)\n      returndatasize\n      not(0x1f)\n      0x1f\n      dup3\n      add\n      and\n      dup3\n      add\n      dup1\n      0x40\n      mstore\n      pop\n      dup2\n      add\n      swap1\n      tag_437\n      swap2\n      swap1\n      tag_438\n      jump\t// in\n    tag_437:\n        /* \"contracts/LP.sol\":13328:13357  Collection.viewNFTCost() * 20 */\n      tag_439\n      swap1\n        /* \"contracts/LP.sol\":13355:13357  20 */\n      0x14\n        /* \"contracts/LP.sol\":13328:13357  Collection.viewNFTCost() * 20 */\n      tag_229\n      jump\t// in\n    tag_439:\n        /* \"contracts/LP.sol\":13327:13363  (Collection.viewNFTCost() * 20) /100 */\n      tag_440\n      swap2\n      swap1\n      tag_274\n      jump\t// in\n    tag_440:\n        /* \"contracts/LP.sol\":13310:13363  totalMsgValue += (Collection.viewNFTCost() * 20) /100 */\n      tag_441\n      swap1\n      dup5\n      tag_234\n      jump\t// in\n    tag_441:\n        /* \"contracts/LP.sol\":13382:13392  Collection */\n      0x01\n      dup1\n      sload\n        /* \"contracts/LP.sol\":13382:13408  Collection.mintFromGame(1) */\n      mload(0x40)\n      shl(0xe1, 0x4261cadd)\n      dup2\n      mstore\n        /* \"contracts/LP.sol\":13310:13363  totalMsgValue += (Collection.viewNFTCost() * 20) /100 */\n      swap3\n      swap6\n      pop\n      sub(shl(0xa0, 0x01), 0x01)\n        /* \"contracts/LP.sol\":13382:13392  Collection */\n      and\n      swap2\n        /* \"contracts/LP.sol\":13382:13405  Collection.mintFromGame */\n      0x84c395ba\n      swap2\n        /* \"contracts/LP.sol\":13382:13408  Collection.mintFromGame(1) */\n      tag_442\n      swap2\n      0x04\n      add\n        /* \"#utility.yul\":1481:1506   */\n      swap1\n      dup2\n      mstore\n        /* \"#utility.yul\":1469:1471   */\n      0x20\n        /* \"#utility.yul\":1454:1472   */\n      add\n      swap1\n        /* \"#utility.yul\":1335:1512   */\n      jump\n        /* \"contracts/LP.sol\":13382:13408  Collection.mintFromGame(1) */\n    tag_442:\n      0x00\n      mload(0x40)\n      dup1\n      dup4\n      sub\n      dup2\n      0x00\n      dup8\n      dup1\n      extcodesize\n      iszero\n      dup1\n      iszero\n      tag_444\n      jumpi\n      0x00\n      dup1\n      revert\n    tag_444:\n      pop\n      gas\n      call\n      iszero\n      dup1\n      iszero\n      tag_446\n      jumpi\n      returndatasize\n      0x00\n      dup1\n      returndatacopy\n      revert(0x00, returndatasize)\n    tag_446:\n      pop\n      pop\n      pop\n      pop\n        /* \"contracts/LP.sol\":13281:13515  if(chance <=2) {... */\n      jump(tag_447)\n    tag_434:\n        /* \"contracts/LP.sol\":13448:13455  LPToken */\n      sload(0x02)\n        /* \"contracts/LP.sol\":13448:13502  LPToken.transferFrom(address(this), msg.sender, 10000) */\n      mload(0x40)\n      shl(0xe0, 0x23b872dd)\n      dup2\n      mstore\n        /* \"contracts/LP.sol\":13477:13481  this */\n      address\n        /* \"contracts/LP.sol\":13448:13502  LPToken.transferFrom(address(this), msg.sender, 10000) */\n      0x04\n      dup3\n      add\n        /* \"#utility.yul\":10052:10086   */\n      mstore\n        /* \"contracts/LP.sol\":13484:13494  msg.sender */\n      caller\n        /* \"#utility.yul\":10102:10120   */\n      0x24\n      dup3\n      add\n        /* \"#utility.yul\":10095:10138   */\n      mstore\n        /* \"contracts/LP.sol\":13496:13501  10000 */\n      0x2710\n        /* \"#utility.yul\":10154:10172   */\n      0x44\n      dup3\n      add\n        /* \"#utility.yul\":10147:10181   */\n      mstore\n      sub(shl(0xa0, 0x01), 0x01)\n        /* \"contracts/LP.sol\":13448:13455  LPToken */\n      swap1\n      swap2\n      and\n      swap1\n        /* \"contracts/LP.sol\":13448:13468  LPToken.transferFrom */\n      0x23b872dd\n      swap1\n        /* \"#utility.yul\":9987:10005   */\n      0x64\n      add\n        /* \"contracts/LP.sol\":13448:13502  LPToken.transferFrom(address(this), msg.sender, 10000) */\n      0x20\n      mload(0x40)\n      dup1\n      dup4\n      sub\n      dup2\n      0x00\n      dup8\n      gas\n      call\n      iszero\n      dup1\n      iszero\n      tag_451\n      jumpi\n      returndatasize\n      0x00\n      dup1\n      returndatacopy\n      revert(0x00, returndatasize)\n    tag_451:\n      pop\n      pop\n      pop\n      pop\n      mload(0x40)\n      returndatasize\n      not(0x1f)\n      0x1f\n      dup3\n      add\n      and\n      dup3\n      add\n      dup1\n      0x40\n      mstore\n      pop\n      dup2\n      add\n      swap1\n      tag_452\n      swap2\n      swap1\n      tag_258\n      jump\t// in\n    tag_452:\n      pop\n        /* \"contracts/LP.sol\":13281:13515  if(chance <=2) {... */\n    tag_447:\n      pop\n        /* \"contracts/LP.sol\":13175:13178  i++ */\n      dup1\n      tag_453\n      dup2\n      tag_236\n      jump\t// in\n    tag_453:\n      swap2\n      pop\n      pop\n        /* \"contracts/LP.sol\":13136:13516  for (uint i = 0; i < _tokenIds.length; i++) {... */\n      jump(tag_428)\n    tag_429:\n      pop\n        /* \"contracts/LP.sol\":13548:13561  totalMsgValue */\n      dup1\n        /* \"contracts/LP.sol\":13535:13544  msg.value */\n      callvalue\n        /* \"contracts/LP.sol\":13535:13561  msg.value >= totalMsgValue */\n      lt\n      iszero\n        /* \"contracts/LP.sol\":13527:13584  require(msg.value >= totalMsgValue, \"insufficient funds\") */\n      tag_291\n      jumpi\n      mload(0x40)\n      shl(0xe5, 0x461bcd)\n      dup2\n      mstore\n        /* \"#utility.yul\":14524:14526   */\n      0x20\n        /* \"contracts/LP.sol\":13527:13584  require(msg.value >= totalMsgValue, \"insufficient funds\") */\n      0x04\n      dup3\n      add\n        /* \"#utility.yul\":14506:14527   */\n      mstore\n        /* \"#utility.yul\":14563:14565   */\n      0x12\n        /* \"#utility.yul\":14543:14561   */\n      0x24\n      dup3\n      add\n        /* \"#utility.yul\":14536:14566   */\n      mstore\n      shl(0x70, 0x696e73756666696369656e742066756e6473)\n        /* \"#utility.yul\":14582:14600   */\n      0x44\n      dup3\n      add\n        /* \"#utility.yul\":14575:14623   */\n      mstore\n        /* \"#utility.yul\":14640:14658   */\n      0x64\n      add\n        /* \"contracts/LP.sol\":13527:13584  require(msg.value >= totalMsgValue, \"insufficient funds\") */\n      tag_191\n        /* \"#utility.yul\":14322:14664   */\n      jump\n        /* \"contracts/LP.sol\":9299:9844  function claimDailyEnergy() public {... */\n    tag_157:\n        /* \"contracts/LP.sol\":9558:9568  msg.sender */\n      caller\n        /* \"contracts/LP.sol\":9550:9569  players[msg.sender] */\n      0x00\n      swap1\n      dup2\n      mstore\n        /* \"contracts/LP.sol\":9550:9557  players */\n      0x06\n        /* \"contracts/LP.sol\":9550:9569  players[msg.sender] */\n      0x20\n      mstore\n      0x40\n      swap1\n      keccak256\n        /* \"contracts/LP.sol\":9550:9596  players[msg.sender].lastTimestampClaimedEnergy */\n      0x04\n      add\n      sload\n        /* \"contracts/LP.sol\":9550:9605  players[msg.sender].lastTimestampClaimedEnergy + 1 days */\n      tag_458\n      swap1\n        /* \"contracts/LP.sol\":9599:9605  1 days */\n      0x015180\n        /* \"contracts/LP.sol\":9550:9605  players[msg.sender].lastTimestampClaimedEnergy + 1 days */\n      tag_234\n      jump\t// in\n    tag_458:\n        /* \"contracts/LP.sol\":9515:9530  block.timestamp */\n      timestamp\n        /* \"contracts/LP.sol\":9515:9605  block.timestamp >=... */\n      lt\n      iszero\n        /* \"contracts/LP.sol\":9494:9640  require(... */\n      tag_459\n      jumpi\n      mload(0x40)\n      shl(0xe5, 0x461bcd)\n      dup2\n      mstore\n        /* \"#utility.yul\":14871:14873   */\n      0x20\n        /* \"contracts/LP.sol\":9494:9640  require(... */\n      0x04\n      dup3\n      add\n        /* \"#utility.yul\":14853:14874   */\n      mstore\n        /* \"#utility.yul\":14910:14911   */\n      0x09\n        /* \"#utility.yul\":14890:14908   */\n      0x24\n      dup3\n      add\n        /* \"#utility.yul\":14883:14912   */\n      mstore\n      shl(0xb9, 0x3a393c903630ba32b9)\n        /* \"#utility.yul\":14928:14946   */\n      0x44\n      dup3\n      add\n        /* \"#utility.yul\":14921:14960   */\n      mstore\n        /* \"#utility.yul\":14977:14995   */\n      0x64\n      add\n        /* \"contracts/LP.sol\":9494:9640  require(... */\n      tag_191\n        /* \"#utility.yul\":14669:15001   */\n      jump\n        /* \"contracts/LP.sol\":9494:9640  require(... */\n    tag_459:\n        /* \"contracts/LP.sol\":9659:9669  msg.sender */\n      caller\n        /* \"contracts/LP.sol\":9651:9670  players[msg.sender] */\n      0x00\n      swap1\n      dup2\n      mstore\n        /* \"contracts/LP.sol\":9651:9658  players */\n      0x06\n        /* \"contracts/LP.sol\":9651:9670  players[msg.sender] */\n      0x20\n      mstore\n      0x40\n      swap1\n      keccak256\n        /* \"contracts/LP.sol\":9700:9715  block.timestamp */\n      timestamp\n        /* \"contracts/LP.sol\":9651:9697  players[msg.sender].lastTimestampClaimedEnergy */\n      0x04\n      dup3\n      add\n        /* \"contracts/LP.sol\":9651:9715  players[msg.sender].lastTimestampClaimedEnergy = block.timestamp */\n      sstore\n        /* \"contracts/LP.sol\":9805:9837  players[msg.sender].energyFactor */\n      0x01\n      add\n      sload\n        /* \"contracts/LP.sol\":9774:9790  defEnergyAccrual */\n      sload(0x03)\n        /* \"contracts/LP.sol\":9774:9837  defEnergyAccrual *... */\n      tag_462\n      swap2\n        /* \"contracts/LP.sol\":9805:9837  players[msg.sender].energyFactor */\n      swap1\n        /* \"contracts/LP.sol\":9774:9837  defEnergyAccrual *... */\n      tag_229\n      jump\t// in\n    tag_462:\n        /* \"contracts/LP.sol\":9733:9743  msg.sender */\n      caller\n        /* \"contracts/LP.sol\":9725:9744  players[msg.sender] */\n      0x00\n      swap1\n      dup2\n      mstore\n        /* \"contracts/LP.sol\":9725:9732  players */\n      0x06\n        /* \"contracts/LP.sol\":9725:9744  players[msg.sender] */\n      0x20\n      mstore\n      0x40\n      dup2\n      keccak256\n        /* \"contracts/LP.sol\":9725:9758  players[msg.sender].energyBalance */\n      0x02\n      add\n        /* \"contracts/LP.sol\":9725:9837  players[msg.sender].energyBalance +=... */\n      dup1\n      sload\n        /* \"contracts/LP.sol\":9725:9758  players[msg.sender].energyBalance */\n      swap1\n      swap2\n        /* \"contracts/LP.sol\":9725:9744  players[msg.sender] */\n      swap1\n        /* \"contracts/LP.sol\":9725:9837  players[msg.sender].energyBalance +=... */\n      tag_463\n      swap1\n      dup5\n      swap1\n      tag_234\n      jump\t// in\n    tag_463:\n      swap1\n      swap2\n      sstore\n      pop\n      pop\n        /* \"contracts/LP.sol\":9299:9844  function claimDailyEnergy() public {... */\n      jump\t// out\n        /* \"contracts/LP.sol\":15077:16019  function claimBonus(uint _orderPosition) public {... */\n    tag_166:\n        /* \"contracts/LP.sol\":15216:15226  msg.sender */\n      caller\n        /* \"contracts/LP.sol\":15208:15227  players[msg.sender] */\n      0x00\n      swap1\n      dup2\n      mstore\n        /* \"contracts/LP.sol\":15208:15215  players */\n      0x06\n        /* \"contracts/LP.sol\":15208:15227  players[msg.sender] */\n      0x20\n      mstore\n      0x40\n      swap1\n      keccak256\n        /* \"contracts/LP.sol\":15208:15243  players[msg.sender].qtyBossDefeated */\n      sload\n        /* \"contracts/LP.sol\":15208:15261  players[msg.sender].qtyBossDefeated >= _orderPosition */\n      dup2\n      gt\n      iszero\n        /* \"contracts/LP.sol\":15200:15301  require(players[msg.sender].qtyBossDefeated >= _orderPosition, \"before you need beat necessary boss\") */\n      tag_465\n      jumpi\n      mload(0x40)\n      shl(0xe5, 0x461bcd)\n      dup2\n      mstore\n      0x04\n      add\n      tag_191\n      swap1\n      tag_280\n      jump\t// in\n    tag_465:\n        /* \"contracts/LP.sol\":15657:15667  msg.sender */\n      caller\n        /* \"contracts/LP.sol\":15644:15668  RiseClaimMap[msg.sender] */\n      0x00\n      swap1\n      dup2\n      mstore\n        /* \"contracts/LP.sol\":15644:15656  RiseClaimMap */\n      0x0c\n        /* \"contracts/LP.sol\":15644:15668  RiseClaimMap[msg.sender] */\n      0x20\n      mstore\n      0x40\n      swap1\n      keccak256\n        /* \"contracts/LP.sol\":15669:15685  _orderPosition-1 */\n      tag_467\n        /* \"contracts/LP.sol\":15684:15685  1 */\n      0x01\n        /* \"contracts/LP.sol\":15669:15683  _orderPosition */\n      dup4\n        /* \"contracts/LP.sol\":15669:15685  _orderPosition-1 */\n      tag_238\n      jump\t// in\n    tag_467:\n        /* \"contracts/LP.sol\":15644:15686  RiseClaimMap[msg.sender][_orderPosition-1] */\n      0x05\n      dup2\n      lt\n      tag_469\n      jumpi\n      tag_469\n      tag_195\n      jump\t// in\n    tag_469:\n      0x20\n      dup2\n      div\n      swap1\n      swap2\n      add\n      sload\n      0xff\n      0x1f\n      swap1\n      swap3\n      and\n      0x0100\n      exp\n      swap1\n      div\n      and\n        /* \"contracts/LP.sol\":15643:15686  !RiseClaimMap[msg.sender][_orderPosition-1] */\n      iszero\n        /* \"contracts/LP.sol\":15635:15724  require(!RiseClaimMap[msg.sender][_orderPosition-1], \"you're already claimed this bonus\") */\n      tag_471\n      jumpi\n      mload(0x40)\n      shl(0xe5, 0x461bcd)\n      dup2\n      mstore\n        /* \"#utility.yul\":15208:15210   */\n      0x20\n        /* \"contracts/LP.sol\":15635:15724  require(!RiseClaimMap[msg.sender][_orderPosition-1], \"you're already claimed this bonus\") */\n      0x04\n      dup3\n      add\n        /* \"#utility.yul\":15190:15211   */\n      mstore\n        /* \"#utility.yul\":15247:15249   */\n      0x21\n        /* \"#utility.yul\":15227:15245   */\n      0x24\n      dup3\n      add\n        /* \"#utility.yul\":15220:15250   */\n      mstore\n        /* \"#utility.yul\":15286:15320   */\n      0x796f7527726520616c726561647920636c61696d6564207468697320626f6e75\n        /* \"#utility.yul\":15266:15284   */\n      0x44\n      dup3\n      add\n        /* \"#utility.yul\":15259:15321   */\n      mstore\n      shl(0xf8, 0x73)\n        /* \"#utility.yul\":15337:15355   */\n      0x64\n      dup3\n      add\n        /* \"#utility.yul\":15330:15361   */\n      mstore\n        /* \"#utility.yul\":15378:15397   */\n      0x84\n      add\n        /* \"contracts/LP.sol\":15635:15724  require(!RiseClaimMap[msg.sender][_orderPosition-1], \"you're already claimed this bonus\") */\n      tag_191\n        /* \"#utility.yul\":15006:15403   */\n      jump\n        /* \"contracts/LP.sol\":15635:15724  require(!RiseClaimMap[msg.sender][_orderPosition-1], \"you're already claimed this bonus\") */\n    tag_471:\n        /* \"contracts/LP.sol\":15735:15746  uint chance */\n      0x00\n        /* \"contracts/LP.sol\":15749:15759  random(10) */\n      tag_474\n        /* \"contracts/LP.sol\":15756:15758  10 */\n      0x0a\n        /* \"contracts/LP.sol\":15749:15755  random */\n      tag_136\n        /* \"contracts/LP.sol\":15749:15759  random(10) */\n      jump\t// in\n    tag_474:\n        /* \"contracts/LP.sol\":15735:15759  uint chance = random(10) */\n      swap1\n      pop\n        /* \"contracts/LP.sol\":15783:15784  2 */\n      0x02\n        /* \"contracts/LP.sol\":15774:15780  chance */\n      dup2\n        /* \"contracts/LP.sol\":15774:15784  chance <=2 */\n      gt\n        /* \"contracts/LP.sol\":15771:15944  if(chance <=2) {... */\n      tag_475\n      jumpi\n        /* \"contracts/LP.sol\":15808:15818  msg.sender */\n      caller\n        /* \"contracts/LP.sol\":15800:15819  players[msg.sender] */\n      0x00\n      swap1\n      dup2\n      mstore\n        /* \"contracts/LP.sol\":15800:15807  players */\n      0x06\n        /* \"contracts/LP.sol\":15800:15819  players[msg.sender] */\n      0x20\n      mstore\n      0x40\n      dup2\n      keccak256\n        /* \"contracts/LP.sol\":15800:15832  players[msg.sender].energyFactor */\n      0x01\n      add\n        /* \"contracts/LP.sol\":15800:15838  players[msg.sender].energyFactor += 10 */\n      dup1\n      sload\n        /* \"contracts/LP.sol\":15836:15838  10 */\n      0x0a\n      swap3\n        /* \"contracts/LP.sol\":15800:15819  players[msg.sender] */\n      swap1\n        /* \"contracts/LP.sol\":15800:15838  players[msg.sender].energyFactor += 10 */\n      tag_476\n      swap1\n        /* \"contracts/LP.sol\":15836:15838  10 */\n      dup5\n      swap1\n        /* \"contracts/LP.sol\":15800:15838  players[msg.sender].energyFactor += 10 */\n      tag_234\n      jump\t// in\n    tag_476:\n      swap1\n      swap2\n      sstore\n      pop\n        /* \"contracts/LP.sol\":15771:15944  if(chance <=2) {... */\n      tag_477\n      swap1\n      pop\n      jump\n    tag_475:\n        /* \"contracts/LP.sol\":15895:15905  msg.sender */\n      caller\n        /* \"contracts/LP.sol\":15887:15906  players[msg.sender] */\n      0x00\n      swap1\n      dup2\n      mstore\n        /* \"contracts/LP.sol\":15887:15894  players */\n      0x06\n        /* \"contracts/LP.sol\":15887:15906  players[msg.sender] */\n      0x20\n      mstore\n      0x40\n      dup2\n      keccak256\n        /* \"contracts/LP.sol\":15887:15920  players[msg.sender].energyBalance */\n      0x02\n      add\n        /* \"contracts/LP.sol\":15887:15928  players[msg.sender].energyBalance += 1000 */\n      dup1\n      sload\n        /* \"contracts/LP.sol\":15924:15928  1000 */\n      0x03e8\n      swap3\n        /* \"contracts/LP.sol\":15887:15906  players[msg.sender] */\n      swap1\n        /* \"contracts/LP.sol\":15887:15928  players[msg.sender].energyBalance += 1000 */\n      tag_292\n      swap1\n        /* \"contracts/LP.sol\":15924:15928  1000 */\n      dup5\n      swap1\n        /* \"contracts/LP.sol\":15887:15928  players[msg.sender].energyBalance += 1000 */\n      tag_234\n      jump\t// in\n        /* \"contracts/LP.sol\":15771:15944  if(chance <=2) {... */\n    tag_477:\n        /* \"contracts/LP.sol\":15975:15985  msg.sender */\n      caller\n        /* \"contracts/LP.sol\":15962:15986  RiseClaimMap[msg.sender] */\n      0x00\n      swap1\n      dup2\n      mstore\n        /* \"contracts/LP.sol\":15962:15974  RiseClaimMap */\n      0x0c\n        /* \"contracts/LP.sol\":15962:15986  RiseClaimMap[msg.sender] */\n      0x20\n      mstore\n      0x40\n      swap1\n      keccak256\n        /* \"contracts/LP.sol\":16007:16011  true */\n      0x01\n      swap1\n        /* \"contracts/LP.sol\":15987:16003  _orderPosition-1 */\n      tag_293\n        /* \"contracts/LP.sol\":16007:16011  true */\n      dup3\n        /* \"contracts/LP.sol\":15987:16001  _orderPosition */\n      dup6\n        /* \"contracts/LP.sol\":15987:16003  _orderPosition-1 */\n      tag_238\n      jump\t// in\n        /* \"contracts/LP.sol\":5972:6781  function claimDuel() public view returns (uint256) {... */\n    tag_169:\n        /* \"contracts/LP.sol\":6014:6021  uint256 */\n      0x00\n        /* \"contracts/LP.sol\":6134:6162  duelInfo storage currentDuel */\n      dup1\n        /* \"contracts/LP.sol\":6165:6170  duels */\n      0x08\n        /* \"contracts/LP.sol\":6171:6190  findAvailableDuel() */\n      tag_484\n        /* \"contracts/LP.sol\":6171:6188  findAvailableDuel */\n      tag_150\n        /* \"contracts/LP.sol\":6171:6190  findAvailableDuel() */\n      jump\t// in\n    tag_484:\n        /* \"contracts/LP.sol\":6165:6191  duels[findAvailableDuel()] */\n      dup2\n      sload\n      dup2\n      lt\n      tag_486\n      jumpi\n      tag_486\n      tag_195\n      jump\t// in\n    tag_486:\n      swap1\n      0x00\n      mstore\n      keccak256(0x00, 0x20)\n      swap1\n      0x05\n      mul\n      add\n        /* \"contracts/LP.sol\":6134:6191  duelInfo storage currentDuel = duels[findAvailableDuel()] */\n      swap1\n      pop\n        /* \"contracts/LP.sol\":6203:6222  uint256 winnerIndex */\n      0x00\n        /* \"contracts/LP.sol\":6269:6280  currentDuel */\n      dup2\n        /* \"contracts/LP.sol\":6269:6299  currentDuel.totalDamagePlayer1 */\n      0x04\n      add\n      sload\n        /* \"contracts/LP.sol\":6236:6247  currentDuel */\n      dup3\n        /* \"contracts/LP.sol\":6236:6266  currentDuel.totalDamagePlayer0 */\n      0x03\n      add\n      sload\n        /* \"contracts/LP.sol\":6236:6299  currentDuel.totalDamagePlayer0 > currentDuel.totalDamagePlayer1 */\n      gt\n        /* \"contracts/LP.sol\":6232:6387  if (currentDuel.totalDamagePlayer0 > currentDuel.totalDamagePlayer1) {... */\n      iszero\n      tag_488\n      jumpi\n      pop\n        /* \"contracts/LP.sol\":6329:6330  0 */\n      0x00\n        /* \"contracts/LP.sol\":6232:6387  if (currentDuel.totalDamagePlayer0 > currentDuel.totalDamagePlayer1) {... */\n      jump(tag_489)\n    tag_488:\n      pop\n        /* \"contracts/LP.sol\":6375:6376  1 */\n      0x01\n        /* \"contracts/LP.sol\":6232:6387  if (currentDuel.totalDamagePlayer0 > currentDuel.totalDamagePlayer1) {... */\n    tag_489:\n        /* \"contracts/LP.sol\":6773:6774  1 */\n      0x01\n        /* \"contracts/LP.sol\":6766:6774  return 1 */\n      swap3\n      pop\n      pop\n      pop\n        /* \"contracts/LP.sol\":5972:6781  function claimDuel() public view returns (uint256) {... */\n      swap1\n      jump\t// out\n        /* \"contracts/LP.sol\":12074:12364  function isTokensClaimedTreasures(uint256[] memory _tokenIds) public view returns(bool) {... */\n    tag_180:\n        /* \"contracts/LP.sol\":12156:12160  bool */\n      0x00\n      dup1\n        /* \"contracts/LP.sol\":12179:12333  for (uint i = 0; i < _tokenIds.length; i++) ... */\n    tag_491:\n        /* \"contracts/LP.sol\":12200:12209  _tokenIds */\n      dup3\n        /* \"contracts/LP.sol\":12200:12216  _tokenIds.length */\n      mload\n        /* \"contracts/LP.sol\":12196:12197  i */\n      dup2\n        /* \"contracts/LP.sol\":12196:12216  i < _tokenIds.length */\n      lt\n        /* \"contracts/LP.sol\":12179:12333  for (uint i = 0; i < _tokenIds.length; i++) ... */\n      iszero\n      tag_205\n      jumpi\n        /* \"contracts/LP.sol\":12248:12264  isTokenIdClaimed */\n      0x0b\n        /* \"contracts/LP.sol\":12248:12278  isTokenIdClaimed[_tokenIds[i]] */\n      0x00\n        /* \"contracts/LP.sol\":12265:12274  _tokenIds */\n      dup5\n        /* \"contracts/LP.sol\":12275:12276  i */\n      dup4\n        /* \"contracts/LP.sol\":12265:12277  _tokenIds[i] */\n      dup2\n      mload\n      dup2\n      lt\n      tag_495\n      jumpi\n      tag_495\n      tag_195\n      jump\t// in\n    tag_495:\n      0x20\n      swap1\n      dup2\n      mul\n      swap2\n      swap1\n      swap2\n      add\n      dup2\n      add\n      mload\n        /* \"contracts/LP.sol\":12248:12278  isTokenIdClaimed[_tokenIds[i]] */\n      dup3\n      mstore\n      dup2\n      add\n      swap2\n      swap1\n      swap2\n      mstore\n      0x40\n      add\n      0x00\n      keccak256\n      sload\n      0xff\n      and\n        /* \"contracts/LP.sol\":12245:12323  if(isTokenIdClaimed[_tokenIds[i]] ) {... */\n      iszero\n      tag_496\n      jumpi\n      pop\n        /* \"contracts/LP.sol\":12305:12309  true */\n      0x01\n      swap3\n        /* \"contracts/LP.sol\":12074:12364  function isTokensClaimedTreasures(uint256[] memory _tokenIds) public view returns(bool) {... */\n      swap2\n      pop\n      pop\n      jump\t// out\n        /* \"contracts/LP.sol\":12245:12323  if(isTokenIdClaimed[_tokenIds[i]] ) {... */\n    tag_496:\n        /* \"contracts/LP.sol\":12218:12221  i++ */\n      dup1\n      tag_497\n      dup2\n      tag_236\n      jump\t// in\n    tag_497:\n      swap2\n      pop\n      pop\n        /* \"contracts/LP.sol\":12179:12333  for (uint i = 0; i < _tokenIds.length; i++) ... */\n      jump(tag_491)\n        /* \"@openzeppelin/contracts/access/Ownable.sol\":2074:2272  function transferOwnership(address newOwner) public virtual onlyOwner {... */\n    tag_185:\n        /* \"@openzeppelin/contracts/access/Ownable.sol\":1094:1107  _checkOwner() */\n      tag_499\n        /* \"@openzeppelin/contracts/access/Ownable.sol\":1094:1105  _checkOwner */\n      tag_321\n        /* \"@openzeppelin/contracts/access/Ownable.sol\":1094:1107  _checkOwner() */\n      jump\t// in\n    tag_499:\n      sub(shl(0xa0, 0x01), 0x01)\n        /* \"@openzeppelin/contracts/access/Ownable.sol\":2162:2184  newOwner != address(0) */\n      dup2\n      and\n        /* \"@openzeppelin/contracts/access/Ownable.sol\":2154:2227  require(newOwner != address(0), \"Ownable: new owner is the zero address\") */\n      tag_501\n      jumpi\n      mload(0x40)\n      shl(0xe5, 0x461bcd)\n      dup2\n      mstore\n        /* \"#utility.yul\":15610:15612   */\n      0x20\n        /* \"@openzeppelin/contracts/access/Ownable.sol\":2154:2227  require(newOwner != address(0), \"Ownable: new owner is the zero address\") */\n      0x04\n      dup3\n      add\n        /* \"#utility.yul\":15592:15613   */\n      mstore\n        /* \"#utility.yul\":15649:15651   */\n      0x26\n        /* \"#utility.yul\":15629:15647   */\n      0x24\n      dup3\n      add\n        /* \"#utility.yul\":15622:15652   */\n      mstore\n        /* \"#utility.yul\":15688:15722   */\n      0x4f776e61626c653a206e6577206f776e657220697320746865207a65726f2061\n        /* \"#utility.yul\":15668:15686   */\n      0x44\n      dup3\n      add\n        /* \"#utility.yul\":15661:15723   */\n      mstore\n      shl(0xd0, 0x646472657373)\n        /* \"#utility.yul\":15739:15757   */\n      0x64\n      dup3\n      add\n        /* \"#utility.yul\":15732:15768   */\n      mstore\n        /* \"#utility.yul\":15785:15804   */\n      0x84\n      add\n        /* \"@openzeppelin/contracts/access/Ownable.sol\":2154:2227  require(newOwner != address(0), \"Ownable: new owner is the zero address\") */\n      tag_191\n        /* \"#utility.yul\":15408:15810   */\n      jump\n        /* \"@openzeppelin/contracts/access/Ownable.sol\":2154:2227  require(newOwner != address(0), \"Ownable: new owner is the zero address\") */\n    tag_501:\n        /* \"@openzeppelin/contracts/access/Ownable.sol\":2237:2265  _transferOwnership(newOwner) */\n      tag_504\n        /* \"@openzeppelin/contracts/access/Ownable.sol\":2256:2264  newOwner */\n      dup2\n        /* \"@openzeppelin/contracts/access/Ownable.sol\":2237:2255  _transferOwnership */\n      tag_324\n        /* \"@openzeppelin/contracts/access/Ownable.sol\":2237:2265  _transferOwnership(newOwner) */\n      jump\t// in\n    tag_504:\n        /* \"@openzeppelin/contracts/access/Ownable.sol\":2074:2272  function transferOwnership(address newOwner) public virtual onlyOwner {... */\n      pop\n      jump\t// out\n        /* \"contracts/LP.sol\":13612:13709  function testMintDirectFromGame() public {... */\n    tag_188:\n        /* \"contracts/LP.sol\":13675:13685  Collection */\n      0x01\n      dup1\n      sload\n        /* \"contracts/LP.sol\":13675:13701  Collection.mintFromGame(1) */\n      mload(0x40)\n      shl(0xe1, 0x4261cadd)\n      dup2\n      mstore\n      0x04\n      dup2\n      add\n        /* \"#utility.yul\":1481:1506   */\n      swap3\n      swap1\n      swap3\n      mstore\n      sub(shl(0xa0, 0x01), 0x01)\n        /* \"contracts/LP.sol\":13675:13685  Collection */\n      and\n      swap1\n        /* \"contracts/LP.sol\":13675:13698  Collection.mintFromGame */\n      0x84c395ba\n      swap1\n        /* \"#utility.yul\":1454:1472   */\n      0x24\n      add\n        /* \"contracts/LP.sol\":13675:13701  Collection.mintFromGame(1) */\n      0x00\n      mload(0x40)\n      dup1\n      dup4\n      sub\n      dup2\n      0x00\n      dup8\n      dup1\n      extcodesize\n      iszero\n      dup1\n      iszero\n      tag_507\n      jumpi\n      0x00\n      dup1\n      revert\n    tag_507:\n      pop\n      gas\n      call\n      iszero\n      dup1\n      iszero\n      tag_247\n      jumpi\n      returndatasize\n      0x00\n      dup1\n      returndatacopy\n      revert(0x00, returndatasize)\n        /* \"@openzeppelin/contracts/access/Ownable.sol\":1359:1489  function _checkOwner() internal view virtual {... */\n    tag_321:\n        /* \"@openzeppelin/contracts/access/Ownable.sol\":1247:1254  address */\n      0x00\n        /* \"@openzeppelin/contracts/access/Ownable.sol\":1273:1279  _owner */\n      sload\n      sub(shl(0xa0, 0x01), 0x01)\n      and\n        /* \"@openzeppelin/contracts/utils/Context.sol\":719:729  msg.sender */\n      caller\n        /* \"@openzeppelin/contracts/access/Ownable.sol\":1422:1445  owner() == _msgSender() */\n      eq\n        /* \"@openzeppelin/contracts/access/Ownable.sol\":1414:1482  require(owner() == _msgSender(), \"Ownable: caller is not the owner\") */\n      tag_323\n      jumpi\n      mload(0x40)\n      shl(0xe5, 0x461bcd)\n      dup2\n      mstore\n        /* \"#utility.yul\":16017:16019   */\n      0x20\n        /* \"@openzeppelin/contracts/access/Ownable.sol\":1414:1482  require(owner() == _msgSender(), \"Ownable: caller is not the owner\") */\n      0x04\n      dup3\n      add\n        /* \"#utility.yul\":15999:16020   */\n      dup2\n      swap1\n      mstore\n        /* \"#utility.yul\":16036:16054   */\n      0x24\n      dup3\n      add\n        /* \"#utility.yul\":16029:16059   */\n      mstore\n        /* \"#utility.yul\":16095:16129   */\n      0x4f776e61626c653a2063616c6c6572206973206e6f7420746865206f776e6572\n        /* \"#utility.yul\":16075:16093   */\n      0x44\n      dup3\n      add\n        /* \"#utility.yul\":16068:16130   */\n      mstore\n        /* \"#utility.yul\":16147:16165   */\n      0x64\n      add\n        /* \"@openzeppelin/contracts/access/Ownable.sol\":1414:1482  require(owner() == _msgSender(), \"Ownable: caller is not the owner\") */\n      tag_191\n        /* \"#utility.yul\":15815:16171   */\n      jump\n        /* \"@openzeppelin/contracts/access/Ownable.sol\":2426:2613  function _transferOwnership(address newOwner) internal virtual {... */\n    tag_324:\n        /* \"@openzeppelin/contracts/access/Ownable.sol\":2499:2515  address oldOwner */\n      0x00\n        /* \"@openzeppelin/contracts/access/Ownable.sol\":2518:2524  _owner */\n      dup1\n      sload\n      sub(shl(0xa0, 0x01), 0x01)\n        /* \"@openzeppelin/contracts/access/Ownable.sol\":2534:2551  _owner = newOwner */\n      dup4\n      dup2\n      and\n      not(sub(shl(0xa0, 0x01), 0x01))\n      dup4\n      and\n      dup2\n      or\n      dup5\n      sstore\n        /* \"@openzeppelin/contracts/access/Ownable.sol\":2566:2606  OwnershipTransferred(oldOwner, newOwner) */\n      mload(0x40)\n        /* \"@openzeppelin/contracts/access/Ownable.sol\":2518:2524  _owner */\n      swap2\n      swap1\n      swap3\n      and\n      swap3\n      dup4\n      swap2\n        /* \"@openzeppelin/contracts/access/Ownable.sol\":2566:2606  OwnershipTransferred(oldOwner, newOwner) */\n      0x8be0079c531659141344cd1fd0a4f28419497f9722a3daafe3b4186f6b6457e0\n      swap2\n        /* \"@openzeppelin/contracts/access/Ownable.sol\":2499:2515  address oldOwner */\n      swap1\n        /* \"@openzeppelin/contracts/access/Ownable.sol\":2566:2606  OwnershipTransferred(oldOwner, newOwner) */\n      log3\n        /* \"@openzeppelin/contracts/access/Ownable.sol\":2489:2613  {... */\n      pop\n        /* \"@openzeppelin/contracts/access/Ownable.sol\":2426:2613  function _transferOwnership(address newOwner) internal virtual {... */\n      pop\n      jump\t// out\n    tag_208:\n      mload(0x40)\n      dup1\n      0x40\n      add\n      0x40\n      mstore\n      dup1\n      0x02\n      swap1\n      0x20\n      dup3\n      mul\n      dup1\n      calldatasize\n      dup4\n      calldatacopy\n      pop\n      swap2\n      swap3\n      swap2\n      pop\n      pop\n      jump\t// out\n    tag_211:\n      dup3\n      0x02\n      dup2\n      add\n      swap3\n      dup3\n      iszero\n      tag_521\n      jumpi\n      swap2\n      0x20\n      mul\n      dup3\n      add\n    tag_520:\n      dup3\n      dup2\n      gt\n      iszero\n      tag_521\n      jumpi\n      dup3\n      mload\n      dup3\n      sload\n      not(sub(shl(0xa0, 0x01), 0x01))\n      and\n      sub(shl(0xa0, 0x01), 0x01)\n      swap1\n      swap2\n      and\n      or\n      dup3\n      sstore\n      0x20\n      swap1\n      swap3\n      add\n      swap2\n      0x01\n      swap1\n      swap2\n      add\n      swap1\n      jump(tag_520)\n    tag_521:\n      pop\n      tag_522\n      swap3\n      swap2\n      pop\n      tag_523\n      jump\t// in\n    tag_522:\n      pop\n      swap1\n      jump\t// out\n    tag_378:\n      pop\n      dup1\n      sload\n      0x00\n      dup3\n      sstore\n      swap1\n      0x00\n      mstore\n      keccak256(0x00, 0x20)\n      swap1\n      dup2\n      add\n      swap1\n      tag_504\n      swap2\n      swap1\n    tag_523:\n    tag_526:\n      dup1\n      dup3\n      gt\n      iszero\n      tag_522\n      jumpi\n      0x00\n      dup2\n      sstore\n      0x01\n      add\n      jump(tag_526)\n        /* \"#utility.yul\":14:194   */\n    tag_45:\n        /* \"#utility.yul\":73:79   */\n      0x00\n        /* \"#utility.yul\":126:128   */\n      0x20\n        /* \"#utility.yul\":114:123   */\n      dup3\n        /* \"#utility.yul\":105:112   */\n      dup5\n        /* \"#utility.yul\":101:124   */\n      sub\n        /* \"#utility.yul\":97:129   */\n      slt\n        /* \"#utility.yul\":94:146   */\n      iszero\n      tag_534\n      jumpi\n        /* \"#utility.yul\":142:143   */\n      0x00\n        /* \"#utility.yul\":139:140   */\n      dup1\n        /* \"#utility.yul\":132:144   */\n      revert\n        /* \"#utility.yul\":94:146   */\n    tag_534:\n      pop\n        /* \"#utility.yul\":165:188   */\n      calldataload\n      swap2\n        /* \"#utility.yul\":14:194   */\n      swap1\n      pop\n      jump\t// out\n        /* \"#utility.yul\":715:1330   */\n    tag_69:\n        /* \"#utility.yul\":801:807   */\n      0x00\n        /* \"#utility.yul\":809:815   */\n      dup1\n        /* \"#utility.yul\":862:864   */\n      0x20\n        /* \"#utility.yul\":850:859   */\n      dup4\n        /* \"#utility.yul\":841:848   */\n      dup6\n        /* \"#utility.yul\":837:860   */\n      sub\n        /* \"#utility.yul\":833:865   */\n      slt\n        /* \"#utility.yul\":830:882   */\n      iszero\n      tag_538\n      jumpi\n        /* \"#utility.yul\":878:879   */\n      0x00\n        /* \"#utility.yul\":875:876   */\n      dup1\n        /* \"#utility.yul\":868:880   */\n      revert\n        /* \"#utility.yul\":830:882   */\n    tag_538:\n        /* \"#utility.yul\":918:927   */\n      dup3\n        /* \"#utility.yul\":905:928   */\n      calldataload\n        /* \"#utility.yul\":947:965   */\n      0xffffffffffffffff\n        /* \"#utility.yul\":988:990   */\n      dup1\n        /* \"#utility.yul\":980:986   */\n      dup3\n        /* \"#utility.yul\":977:991   */\n      gt\n        /* \"#utility.yul\":974:1008   */\n      iszero\n      tag_539\n      jumpi\n        /* \"#utility.yul\":1004:1005   */\n      0x00\n        /* \"#utility.yul\":1001:1002   */\n      dup1\n        /* \"#utility.yul\":994:1006   */\n      revert\n        /* \"#utility.yul\":974:1008   */\n    tag_539:\n        /* \"#utility.yul\":1042:1048   */\n      dup2\n        /* \"#utility.yul\":1031:1040   */\n      dup6\n        /* \"#utility.yul\":1027:1049   */\n      add\n        /* \"#utility.yul\":1017:1049   */\n      swap2\n      pop\n        /* \"#utility.yul\":1087:1094   */\n      dup6\n        /* \"#utility.yul\":1080:1084   */\n      0x1f\n        /* \"#utility.yul\":1076:1078   */\n      dup4\n        /* \"#utility.yul\":1072:1085   */\n      add\n        /* \"#utility.yul\":1068:1095   */\n      slt\n        /* \"#utility.yul\":1058:1113   */\n      tag_540\n      jumpi\n        /* \"#utility.yul\":1109:1110   */\n      0x00\n        /* \"#utility.yul\":1106:1107   */\n      dup1\n        /* \"#utility.yul\":1099:1111   */\n      revert\n        /* \"#utility.yul\":1058:1113   */\n    tag_540:\n        /* \"#utility.yul\":1149:1151   */\n      dup2\n        /* \"#utility.yul\":1136:1152   */\n      calldataload\n        /* \"#utility.yul\":1175:1177   */\n      dup2\n        /* \"#utility.yul\":1167:1173   */\n      dup2\n        /* \"#utility.yul\":1164:1178   */\n      gt\n        /* \"#utility.yul\":1161:1195   */\n      iszero\n      tag_541\n      jumpi\n        /* \"#utility.yul\":1191:1192   */\n      0x00\n        /* \"#utility.yul\":1188:1189   */\n      dup1\n        /* \"#utility.yul\":1181:1193   */\n      revert\n        /* \"#utility.yul\":1161:1195   */\n    tag_541:\n        /* \"#utility.yul\":1244:1251   */\n      dup7\n        /* \"#utility.yul\":1239:1241   */\n      0x20\n        /* \"#utility.yul\":1229:1235   */\n      dup3\n        /* \"#utility.yul\":1226:1227   */\n      0x05\n        /* \"#utility.yul\":1222:1236   */\n      shl\n        /* \"#utility.yul\":1218:1220   */\n      dup6\n        /* \"#utility.yul\":1214:1237   */\n      add\n        /* \"#utility.yul\":1210:1242   */\n      add\n        /* \"#utility.yul\":1207:1252   */\n      gt\n        /* \"#utility.yul\":1204:1269   */\n      iszero\n      tag_542\n      jumpi\n        /* \"#utility.yul\":1265:1266   */\n      0x00\n        /* \"#utility.yul\":1262:1263   */\n      dup1\n        /* \"#utility.yul\":1255:1267   */\n      revert\n        /* \"#utility.yul\":1204:1269   */\n    tag_542:\n        /* \"#utility.yul\":1296:1298   */\n      0x20\n        /* \"#utility.yul\":1288:1299   */\n      swap3\n      swap1\n      swap3\n      add\n      swap7\n        /* \"#utility.yul\":1318:1324   */\n      swap2\n      swap6\n      pop\n        /* \"#utility.yul\":715:1330   */\n      swap1\n      swap4\n      pop\n      pop\n      pop\n      pop\n      jump\t// out\n        /* \"#utility.yul\":1517:1648   */\n    tag_528:\n      sub(shl(0xa0, 0x01), 0x01)\n        /* \"#utility.yul\":1592:1623   */\n      dup2\n      and\n        /* \"#utility.yul\":1582:1624   */\n      dup2\n      eq\n        /* \"#utility.yul\":1572:1642   */\n      tag_504\n      jumpi\n        /* \"#utility.yul\":1638:1639   */\n      0x00\n        /* \"#utility.yul\":1635:1636   */\n      dup1\n        /* \"#utility.yul\":1628:1640   */\n      revert\n        /* \"#utility.yul\":1653:1900   */\n    tag_83:\n        /* \"#utility.yul\":1712:1718   */\n      0x00\n        /* \"#utility.yul\":1765:1767   */\n      0x20\n        /* \"#utility.yul\":1753:1762   */\n      dup3\n        /* \"#utility.yul\":1744:1751   */\n      dup5\n        /* \"#utility.yul\":1740:1763   */\n      sub\n        /* \"#utility.yul\":1736:1768   */\n      slt\n        /* \"#utility.yul\":1733:1785   */\n      iszero\n      tag_547\n      jumpi\n        /* \"#utility.yul\":1781:1782   */\n      0x00\n        /* \"#utility.yul\":1778:1779   */\n      dup1\n        /* \"#utility.yul\":1771:1783   */\n      revert\n        /* \"#utility.yul\":1733:1785   */\n    tag_547:\n        /* \"#utility.yul\":1820:1829   */\n      dup2\n        /* \"#utility.yul\":1807:1830   */\n      calldataload\n        /* \"#utility.yul\":1839:1870   */\n      tag_548\n        /* \"#utility.yul\":1864:1869   */\n      dup2\n        /* \"#utility.yul\":1839:1870   */\n      tag_528\n      jump\t// in\n    tag_548:\n        /* \"#utility.yul\":1889:1894   */\n      swap4\n        /* \"#utility.yul\":1653:1900   */\n      swap3\n      pop\n      pop\n      pop\n      jump\t// out\n        /* \"#utility.yul\":1905:2931   */\n    tag_86:\n        /* \"#utility.yul\":2043:2047   */\n      0x00\n        /* \"#utility.yul\":2072:2074   */\n      0x20\n        /* \"#utility.yul\":2101:2103   */\n      dup1\n        /* \"#utility.yul\":2090:2099   */\n      dup4\n        /* \"#utility.yul\":2083:2104   */\n      mstore\n        /* \"#utility.yul\":2142:2145   */\n      0xe0\n        /* \"#utility.yul\":2131:2140   */\n      dup4\n        /* \"#utility.yul\":2127:2146   */\n      add\n        /* \"#utility.yul\":2188:2194   */\n      dup5\n        /* \"#utility.yul\":2182:2195   */\n      mload\n        /* \"#utility.yul\":2177:2179   */\n      dup3\n        /* \"#utility.yul\":2166:2175   */\n      dup6\n        /* \"#utility.yul\":2162:2180   */\n      add\n        /* \"#utility.yul\":2155:2196   */\n      mstore\n        /* \"#utility.yul\":2250:2252   */\n      dup2\n        /* \"#utility.yul\":2242:2248   */\n      dup6\n        /* \"#utility.yul\":2238:2253   */\n      add\n        /* \"#utility.yul\":2232:2254   */\n      mload\n        /* \"#utility.yul\":2227:2229   */\n      0x40\n        /* \"#utility.yul\":2216:2225   */\n      dup6\n        /* \"#utility.yul\":2212:2230   */\n      add\n        /* \"#utility.yul\":2205:2255   */\n      mstore\n        /* \"#utility.yul\":2309:2311   */\n      0x40\n        /* \"#utility.yul\":2301:2307   */\n      dup6\n        /* \"#utility.yul\":2297:2312   */\n      add\n        /* \"#utility.yul\":2291:2313   */\n      mload\n        /* \"#utility.yul\":2286:2288   */\n      0x60\n        /* \"#utility.yul\":2275:2284   */\n      dup6\n        /* \"#utility.yul\":2271:2289   */\n      add\n        /* \"#utility.yul\":2264:2314   */\n      mstore\n        /* \"#utility.yul\":2369:2371   */\n      0x60\n        /* \"#utility.yul\":2361:2367   */\n      dup6\n        /* \"#utility.yul\":2357:2372   */\n      add\n        /* \"#utility.yul\":2351:2373   */\n      mload\n        /* \"#utility.yul\":2345:2348   */\n      0x80\n        /* \"#utility.yul\":2334:2343   */\n      dup6\n        /* \"#utility.yul\":2330:2349   */\n      add\n        /* \"#utility.yul\":2323:2374   */\n      mstore\n        /* \"#utility.yul\":2429:2432   */\n      0x80\n        /* \"#utility.yul\":2421:2427   */\n      dup6\n        /* \"#utility.yul\":2417:2433   */\n      add\n        /* \"#utility.yul\":2411:2434   */\n      mload\n        /* \"#utility.yul\":2405:2408   */\n      0xa0\n        /* \"#utility.yul\":2394:2403   */\n      dup6\n        /* \"#utility.yul\":2390:2409   */\n      add\n        /* \"#utility.yul\":2383:2435   */\n      mstore\n        /* \"#utility.yul\":2482:2485   */\n      0xa0\n        /* \"#utility.yul\":2474:2480   */\n      dup6\n        /* \"#utility.yul\":2470:2486   */\n      add\n        /* \"#utility.yul\":2464:2487   */\n      mload\n        /* \"#utility.yul\":2525:2529   */\n      0xc0\n        /* \"#utility.yul\":2518:2522   */\n      dup1\n        /* \"#utility.yul\":2507:2516   */\n      dup7\n        /* \"#utility.yul\":2503:2523   */\n      add\n        /* \"#utility.yul\":2496:2530   */\n      mstore\n        /* \"#utility.yul\":2550:2556   */\n      dup2\n        /* \"#utility.yul\":2585:2597   */\n      dup2\n        /* \"#utility.yul\":2579:2598   */\n      mload\n        /* \"#utility.yul\":2622:2628   */\n      dup1\n        /* \"#utility.yul\":2614:2620   */\n      dup5\n        /* \"#utility.yul\":2607:2629   */\n      mstore\n        /* \"#utility.yul\":2660:2663   */\n      0x0100\n        /* \"#utility.yul\":2649:2658   */\n      dup8\n        /* \"#utility.yul\":2645:2664   */\n      add\n        /* \"#utility.yul\":2638:2664   */\n      swap2\n      pop\n        /* \"#utility.yul\":2705:2707   */\n      dup5\n        /* \"#utility.yul\":2691:2703   */\n      dup4\n        /* \"#utility.yul\":2687:2708   */\n      add\n        /* \"#utility.yul\":2673:2708   */\n      swap4\n      pop\n        /* \"#utility.yul\":2726:2727   */\n      0x00\n        /* \"#utility.yul\":2717:2727   */\n      swap3\n      pop\n        /* \"#utility.yul\":2736:2905   */\n    tag_550:\n        /* \"#utility.yul\":2750:2756   */\n      dup1\n        /* \"#utility.yul\":2747:2748   */\n      dup4\n        /* \"#utility.yul\":2744:2757   */\n      lt\n        /* \"#utility.yul\":2736:2905   */\n      iszero\n      tag_552\n      jumpi\n        /* \"#utility.yul\":2811:2824   */\n      dup4\n      mload\n        /* \"#utility.yul\":2799:2825   */\n      dup3\n      mstore\n        /* \"#utility.yul\":2880:2895   */\n      swap3\n      dup5\n      add\n      swap3\n        /* \"#utility.yul\":2772:2773   */\n      0x01\n        /* \"#utility.yul\":2765:2774   */\n      swap3\n      swap1\n      swap3\n      add\n      swap2\n        /* \"#utility.yul\":2845:2857   */\n      swap1\n      dup5\n      add\n      swap1\n        /* \"#utility.yul\":2736:2905   */\n      jump(tag_550)\n    tag_552:\n      pop\n        /* \"#utility.yul\":2922:2925   */\n      swap7\n        /* \"#utility.yul\":1905:2931   */\n      swap6\n      pop\n      pop\n      pop\n      pop\n      pop\n      pop\n      jump\t// out\n        /* \"#utility.yul\":2936:3251   */\n    tag_97:\n        /* \"#utility.yul\":3004:3010   */\n      0x00\n        /* \"#utility.yul\":3012:3018   */\n      dup1\n        /* \"#utility.yul\":3065:3067   */\n      0x40\n        /* \"#utility.yul\":3053:3062   */\n      dup4\n        /* \"#utility.yul\":3044:3051   */\n      dup6\n        /* \"#utility.yul\":3040:3063   */\n      sub\n        /* \"#utility.yul\":3036:3068   */\n      slt\n        /* \"#utility.yul\":3033:3085   */\n      iszero\n      tag_554\n      jumpi\n        /* \"#utility.yul\":3081:3082   */\n      0x00\n        /* \"#utility.yul\":3078:3079   */\n      dup1\n        /* \"#utility.yul\":3071:3083   */\n      revert\n        /* \"#utility.yul\":3033:3085   */\n    tag_554:\n        /* \"#utility.yul\":3120:3129   */\n      dup3\n        /* \"#utility.yul\":3107:3130   */\n      calldataload\n        /* \"#utility.yul\":3139:3170   */\n      tag_555\n        /* \"#utility.yul\":3164:3169   */\n      dup2\n        /* \"#utility.yul\":3139:3170   */\n      tag_528\n      jump\t// in\n    tag_555:\n        /* \"#utility.yul\":3189:3194   */\n      swap5\n        /* \"#utility.yul\":3241:3243   */\n      0x20\n        /* \"#utility.yul\":3226:3244   */\n      swap4\n      swap1\n      swap4\n      add\n        /* \"#utility.yul\":3213:3245   */\n      calldataload\n      swap4\n      pop\n      pop\n      pop\n        /* \"#utility.yul\":2936:3251   */\n      jump\t// out\n        /* \"#utility.yul\":3464:3591   */\n    tag_222:\n        /* \"#utility.yul\":3525:3535   */\n      0x4e487b71\n        /* \"#utility.yul\":3520:3523   */\n      0xe0\n        /* \"#utility.yul\":3516:3536   */\n      shl\n        /* \"#utility.yul\":3513:3514   */\n      0x00\n        /* \"#utility.yul\":3506:3537   */\n      mstore\n        /* \"#utility.yul\":3556:3560   */\n      0x41\n        /* \"#utility.yul\":3553:3554   */\n      0x04\n        /* \"#utility.yul\":3546:3561   */\n      mstore\n        /* \"#utility.yul\":3580:3584   */\n      0x24\n        /* \"#utility.yul\":3577:3578   */\n      0x00\n        /* \"#utility.yul\":3570:3585   */\n      revert\n        /* \"#utility.yul\":3596:4711   */\n    tag_141:\n        /* \"#utility.yul\":3680:3686   */\n      0x00\n        /* \"#utility.yul\":3711:3713   */\n      0x20\n        /* \"#utility.yul\":3754:3756   */\n      dup1\n        /* \"#utility.yul\":3742:3751   */\n      dup4\n        /* \"#utility.yul\":3733:3740   */\n      dup6\n        /* \"#utility.yul\":3729:3752   */\n      sub\n        /* \"#utility.yul\":3725:3757   */\n      slt\n        /* \"#utility.yul\":3722:3774   */\n      iszero\n      tag_559\n      jumpi\n        /* \"#utility.yul\":3770:3771   */\n      0x00\n        /* \"#utility.yul\":3767:3768   */\n      dup1\n        /* \"#utility.yul\":3760:3772   */\n      revert\n        /* \"#utility.yul\":3722:3774   */\n    tag_559:\n        /* \"#utility.yul\":3810:3819   */\n      dup3\n        /* \"#utility.yul\":3797:3820   */\n      calldataload\n        /* \"#utility.yul\":3839:3857   */\n      0xffffffffffffffff\n        /* \"#utility.yul\":3880:3882   */\n      dup1\n        /* \"#utility.yul\":3872:3878   */\n      dup3\n        /* \"#utility.yul\":3869:3883   */\n      gt\n        /* \"#utility.yul\":3866:3900   */\n      iszero\n      tag_560\n      jumpi\n        /* \"#utility.yul\":3896:3897   */\n      0x00\n        /* \"#utility.yul\":3893:3894   */\n      dup1\n        /* \"#utility.yul\":3886:3898   */\n      revert\n        /* \"#utility.yul\":3866:3900   */\n    tag_560:\n        /* \"#utility.yul\":3934:3940   */\n      dup2\n        /* \"#utility.yul\":3923:3932   */\n      dup6\n        /* \"#utility.yul\":3919:3941   */\n      add\n        /* \"#utility.yul\":3909:3941   */\n      swap2\n      pop\n        /* \"#utility.yul\":3979:3986   */\n      dup6\n        /* \"#utility.yul\":3972:3976   */\n      0x1f\n        /* \"#utility.yul\":3968:3970   */\n      dup4\n        /* \"#utility.yul\":3964:3977   */\n      add\n        /* \"#utility.yul\":3960:3987   */\n      slt\n        /* \"#utility.yul\":3950:4005   */\n      tag_561\n      jumpi\n        /* \"#utility.yul\":4001:4002   */\n      0x00\n        /* \"#utility.yul\":3998:3999   */\n      dup1\n        /* \"#utility.yul\":3991:4003   */\n      revert\n        /* \"#utility.yul\":3950:4005   */\n    tag_561:\n        /* \"#utility.yul\":4037:4039   */\n      dup2\n        /* \"#utility.yul\":4024:4040   */\n      calldataload\n        /* \"#utility.yul\":4059:4061   */\n      dup2\n        /* \"#utility.yul\":4055:4057   */\n      dup2\n        /* \"#utility.yul\":4052:4062   */\n      gt\n        /* \"#utility.yul\":4049:4085   */\n      iszero\n      tag_563\n      jumpi\n        /* \"#utility.yul\":4065:4083   */\n      tag_563\n      tag_222\n      jump\t// in\n    tag_563:\n        /* \"#utility.yul\":4111:4113   */\n      dup1\n        /* \"#utility.yul\":4108:4109   */\n      0x05\n        /* \"#utility.yul\":4104:4114   */\n      shl\n        /* \"#utility.yul\":4143:4145   */\n      0x40\n        /* \"#utility.yul\":4137:4146   */\n      mload\n        /* \"#utility.yul\":4206:4208   */\n      0x1f\n        /* \"#utility.yul\":4202:4209   */\n      not\n        /* \"#utility.yul\":4197:4199   */\n      0x3f\n        /* \"#utility.yul\":4193:4195   */\n      dup4\n        /* \"#utility.yul\":4189:4200   */\n      add\n        /* \"#utility.yul\":4185:4210   */\n      and\n        /* \"#utility.yul\":4177:4183   */\n      dup2\n        /* \"#utility.yul\":4173:4211   */\n      add\n        /* \"#utility.yul\":4261:4267   */\n      dup2\n        /* \"#utility.yul\":4249:4259   */\n      dup2\n        /* \"#utility.yul\":4246:4268   */\n      lt\n        /* \"#utility.yul\":4241:4243   */\n      dup6\n        /* \"#utility.yul\":4229:4239   */\n      dup3\n        /* \"#utility.yul\":4226:4244   */\n      gt\n        /* \"#utility.yul\":4223:4269   */\n      or\n        /* \"#utility.yul\":4220:4292   */\n      iszero\n      tag_565\n      jumpi\n        /* \"#utility.yul\":4272:4290   */\n      tag_565\n      tag_222\n      jump\t// in\n    tag_565:\n        /* \"#utility.yul\":4308:4310   */\n      0x40\n        /* \"#utility.yul\":4301:4323   */\n      mstore\n        /* \"#utility.yul\":4358:4376   */\n      swap2\n      dup3\n      mstore\n        /* \"#utility.yul\":4392:4407   */\n      dup5\n      dup3\n      add\n      swap3\n      pop\n        /* \"#utility.yul\":4434:4445   */\n      dup4\n      dup2\n      add\n        /* \"#utility.yul\":4430:4450   */\n      dup6\n      add\n      swap2\n        /* \"#utility.yul\":4462:4481   */\n      dup9\n      dup4\n      gt\n        /* \"#utility.yul\":4459:4498   */\n      iszero\n      tag_566\n      jumpi\n        /* \"#utility.yul\":4494:4495   */\n      0x00\n        /* \"#utility.yul\":4491:4492   */\n      dup1\n        /* \"#utility.yul\":4484:4496   */\n      revert\n        /* \"#utility.yul\":4459:4498   */\n    tag_566:\n        /* \"#utility.yul\":4518:4529   */\n      swap4\n      dup6\n      add\n      swap4\n        /* \"#utility.yul\":4538:4680   */\n    tag_567:\n        /* \"#utility.yul\":4554:4560   */\n      dup3\n        /* \"#utility.yul\":4549:4552   */\n      dup6\n        /* \"#utility.yul\":4546:4561   */\n      lt\n        /* \"#utility.yul\":4538:4680   */\n      iszero\n      tag_569\n      jumpi\n        /* \"#utility.yul\":4620:4637   */\n      dup5\n      calldataload\n        /* \"#utility.yul\":4608:4638   */\n      dup5\n      mstore\n        /* \"#utility.yul\":4571:4583   */\n      swap4\n      dup6\n      add\n      swap4\n        /* \"#utility.yul\":4658:4670   */\n      swap3\n      dup6\n      add\n      swap3\n        /* \"#utility.yul\":4538:4680   */\n      jump(tag_567)\n    tag_569:\n        /* \"#utility.yul\":4699:4705   */\n      swap9\n        /* \"#utility.yul\":3596:4711   */\n      swap8\n      pop\n      pop\n      pop\n      pop\n      pop\n      pop\n      pop\n      pop\n      jump\t// out\n        /* \"#utility.yul\":5531:5658   */\n    tag_195:\n        /* \"#utility.yul\":5592:5602   */\n      0x4e487b71\n        /* \"#utility.yul\":5587:5590   */\n      0xe0\n        /* \"#utility.yul\":5583:5603   */\n      shl\n        /* \"#utility.yul\":5580:5581   */\n      0x00\n        /* \"#utility.yul\":5573:5604   */\n      mstore\n        /* \"#utility.yul\":5623:5627   */\n      0x32\n        /* \"#utility.yul\":5620:5621   */\n      0x04\n        /* \"#utility.yul\":5613:5628   */\n      mstore\n        /* \"#utility.yul\":5647:5651   */\n      0x24\n        /* \"#utility.yul\":5644:5645   */\n      0x00\n        /* \"#utility.yul\":5637:5652   */\n      revert\n        /* \"#utility.yul\":6434:6561   */\n    tag_529:\n        /* \"#utility.yul\":6495:6505   */\n      0x4e487b71\n        /* \"#utility.yul\":6490:6493   */\n      0xe0\n        /* \"#utility.yul\":6486:6506   */\n      shl\n        /* \"#utility.yul\":6483:6484   */\n      0x00\n        /* \"#utility.yul\":6476:6507   */\n      mstore\n        /* \"#utility.yul\":6526:6530   */\n      0x11\n        /* \"#utility.yul\":6523:6524   */\n      0x04\n        /* \"#utility.yul\":6516:6531   */\n      mstore\n        /* \"#utility.yul\":6550:6554   */\n      0x24\n        /* \"#utility.yul\":6547:6548   */\n      0x00\n        /* \"#utility.yul\":6540:6555   */\n      revert\n        /* \"#utility.yul\":6566:6734   */\n    tag_229:\n        /* \"#utility.yul\":6639:6648   */\n      dup1\n      dup3\n      mul\n        /* \"#utility.yul\":6670:6679   */\n      dup2\n      iszero\n        /* \"#utility.yul\":6687:6702   */\n      dup3\n      dup3\n      div\n        /* \"#utility.yul\":6681:6703   */\n      dup5\n      eq\n        /* \"#utility.yul\":6667:6704   */\n      or\n        /* \"#utility.yul\":6657:6728   */\n      tag_383\n      jumpi\n        /* \"#utility.yul\":6708:6726   */\n      tag_383\n      tag_529\n      jump\t// in\n        /* \"#utility.yul\":6739:6864   */\n    tag_234:\n        /* \"#utility.yul\":6804:6813   */\n      dup1\n      dup3\n      add\n        /* \"#utility.yul\":6825:6835   */\n      dup1\n      dup3\n      gt\n        /* \"#utility.yul\":6822:6858   */\n      iszero\n      tag_383\n      jumpi\n        /* \"#utility.yul\":6838:6856   */\n      tag_383\n      tag_529\n      jump\t// in\n        /* \"#utility.yul\":6869:7004   */\n    tag_236:\n        /* \"#utility.yul\":6908:6911   */\n      0x00\n        /* \"#utility.yul\":6929:6946   */\n      0x01\n      dup3\n      add\n        /* \"#utility.yul\":6926:6969   */\n      tag_584\n      jumpi\n        /* \"#utility.yul\":6949:6967   */\n      tag_584\n      tag_529\n      jump\t// in\n    tag_584:\n      pop\n        /* \"#utility.yul\":6996:6997   */\n      0x01\n        /* \"#utility.yul\":6985:6998   */\n      add\n      swap1\n        /* \"#utility.yul\":6869:7004   */\n      jump\t// out\n        /* \"#utility.yul\":7009:7137   */\n    tag_238:\n        /* \"#utility.yul\":7076:7085   */\n      dup2\n      dup2\n      sub\n        /* \"#utility.yul\":7097:7108   */\n      dup2\n      dup2\n      gt\n        /* \"#utility.yul\":7094:7131   */\n      iszero\n      tag_383\n      jumpi\n        /* \"#utility.yul\":7111:7129   */\n      tag_383\n      tag_529\n      jump\t// in\n        /* \"#utility.yul\":7142:7577   */\n    tag_530:\n        /* \"#utility.yul\":7195:7198   */\n      0x00\n        /* \"#utility.yul\":7233:7238   */\n      dup2\n        /* \"#utility.yul\":7227:7239   */\n      mload\n        /* \"#utility.yul\":7260:7266   */\n      dup1\n        /* \"#utility.yul\":7255:7258   */\n      dup5\n        /* \"#utility.yul\":7248:7267   */\n      mstore\n        /* \"#utility.yul\":7286:7290   */\n      0x20\n        /* \"#utility.yul\":7315:7317   */\n      dup1\n        /* \"#utility.yul\":7310:7313   */\n      dup6\n        /* \"#utility.yul\":7306:7318   */\n      add\n        /* \"#utility.yul\":7299:7318   */\n      swap5\n      pop\n        /* \"#utility.yul\":7352:7354   */\n      dup1\n        /* \"#utility.yul\":7345:7350   */\n      dup5\n        /* \"#utility.yul\":7341:7355   */\n      add\n        /* \"#utility.yul\":7373:7374   */\n      0x00\n        /* \"#utility.yul\":7383:7552   */\n    tag_589:\n        /* \"#utility.yul\":7397:7403   */\n      dup4\n        /* \"#utility.yul\":7394:7395   */\n      dup2\n        /* \"#utility.yul\":7391:7404   */\n      lt\n        /* \"#utility.yul\":7383:7552   */\n      iszero\n      tag_591\n      jumpi\n        /* \"#utility.yul\":7458:7471   */\n      dup2\n      mload\n        /* \"#utility.yul\":7446:7472   */\n      dup8\n      mstore\n        /* \"#utility.yul\":7492:7504   */\n      swap6\n      dup3\n      add\n      swap6\n        /* \"#utility.yul\":7527:7542   */\n      swap1\n      dup3\n      add\n      swap1\n        /* \"#utility.yul\":7419:7420   */\n      0x01\n        /* \"#utility.yul\":7412:7421   */\n      add\n        /* \"#utility.yul\":7383:7552   */\n      jump(tag_589)\n    tag_591:\n      pop\n        /* \"#utility.yul\":7568:7571   */\n      swap5\n      swap6\n        /* \"#utility.yul\":7142:7577   */\n      swap5\n      pop\n      pop\n      pop\n      pop\n      pop\n      jump\t// out\n        /* \"#utility.yul\":7582:7843   */\n    tag_241:\n        /* \"#utility.yul\":7761:7763   */\n      0x20\n        /* \"#utility.yul\":7750:7759   */\n      dup2\n        /* \"#utility.yul\":7743:7764   */\n      mstore\n        /* \"#utility.yul\":7724:7728   */\n      0x00\n        /* \"#utility.yul\":7781:7837   */\n      tag_548\n        /* \"#utility.yul\":7833:7835   */\n      0x20\n        /* \"#utility.yul\":7822:7831   */\n      dup4\n        /* \"#utility.yul\":7818:7836   */\n      add\n        /* \"#utility.yul\":7810:7816   */\n      dup5\n        /* \"#utility.yul\":7781:7837   */\n      tag_530\n      jump\t// in\n        /* \"#utility.yul\":7848:8125   */\n    tag_258:\n        /* \"#utility.yul\":7915:7921   */\n      0x00\n        /* \"#utility.yul\":7968:7970   */\n      0x20\n        /* \"#utility.yul\":7956:7965   */\n      dup3\n        /* \"#utility.yul\":7947:7954   */\n      dup5\n        /* \"#utility.yul\":7943:7966   */\n      sub\n        /* \"#utility.yul\":7939:7971   */\n      slt\n        /* \"#utility.yul\":7936:7988   */\n      iszero\n      tag_595\n      jumpi\n        /* \"#utility.yul\":7984:7985   */\n      0x00\n        /* \"#utility.yul\":7981:7982   */\n      dup1\n        /* \"#utility.yul\":7974:7986   */\n      revert\n        /* \"#utility.yul\":7936:7988   */\n    tag_595:\n        /* \"#utility.yul\":8016:8025   */\n      dup2\n        /* \"#utility.yul\":8010:8026   */\n      mload\n        /* \"#utility.yul\":8069:8074   */\n      dup1\n        /* \"#utility.yul\":8062:8075   */\n      iszero\n        /* \"#utility.yul\":8055:8076   */\n      iszero\n        /* \"#utility.yul\":8048:8053   */\n      dup2\n        /* \"#utility.yul\":8045:8077   */\n      eq\n        /* \"#utility.yul\":8035:8095   */\n      tag_548\n      jumpi\n        /* \"#utility.yul\":8091:8092   */\n      0x00\n        /* \"#utility.yul\":8088:8089   */\n      dup1\n        /* \"#utility.yul\":8081:8093   */\n      revert\n        /* \"#utility.yul\":8748:8875   */\n    tag_531:\n        /* \"#utility.yul\":8809:8819   */\n      0x4e487b71\n        /* \"#utility.yul\":8804:8807   */\n      0xe0\n        /* \"#utility.yul\":8800:8820   */\n      shl\n        /* \"#utility.yul\":8797:8798   */\n      0x00\n        /* \"#utility.yul\":8790:8821   */\n      mstore\n        /* \"#utility.yul\":8840:8844   */\n      0x12\n        /* \"#utility.yul\":8837:8838   */\n      0x04\n        /* \"#utility.yul\":8830:8845   */\n      mstore\n        /* \"#utility.yul\":8864:8868   */\n      0x24\n        /* \"#utility.yul\":8861:8862   */\n      0x00\n        /* \"#utility.yul\":8854:8869   */\n      revert\n        /* \"#utility.yul\":8880:9000   */\n    tag_274:\n        /* \"#utility.yul\":8920:8921   */\n      0x00\n        /* \"#utility.yul\":8946:8947   */\n      dup3\n        /* \"#utility.yul\":8936:8971   */\n      tag_602\n      jumpi\n        /* \"#utility.yul\":8951:8969   */\n      tag_602\n      tag_531\n      jump\t// in\n    tag_602:\n      pop\n        /* \"#utility.yul\":8985:8994   */\n      div\n      swap1\n        /* \"#utility.yul\":8880:9000   */\n      jump\t// out\n        /* \"#utility.yul\":9005:9404   */\n    tag_280:\n        /* \"#utility.yul\":9207:9209   */\n      0x20\n        /* \"#utility.yul\":9189:9210   */\n      dup1\n      dup3\n      mstore\n        /* \"#utility.yul\":9246:9248   */\n      0x23\n        /* \"#utility.yul\":9226:9244   */\n      swap1\n      dup3\n      add\n        /* \"#utility.yul\":9219:9249   */\n      mstore\n        /* \"#utility.yul\":9285:9319   */\n      0x6265666f726520796f75206e6565642062656174206e65636573736172792062\n        /* \"#utility.yul\":9280:9282   */\n      0x40\n        /* \"#utility.yul\":9265:9283   */\n      dup3\n      add\n        /* \"#utility.yul\":9258:9320   */\n      mstore\n      shl(0xe8, 0x6f7373)\n        /* \"#utility.yul\":9351:9353   */\n      0x60\n        /* \"#utility.yul\":9336:9354   */\n      dup3\n      add\n        /* \"#utility.yul\":9329:9362   */\n      mstore\n        /* \"#utility.yul\":9394:9397   */\n      0x80\n        /* \"#utility.yul\":9379:9398   */\n      add\n      swap1\n        /* \"#utility.yul\":9005:9404   */\n      jump\t// out\n        /* \"#utility.yul\":10899:11231   */\n    tag_364:\n        /* \"#utility.yul\":11106:11112   */\n      dup3\n        /* \"#utility.yul\":11095:11104   */\n      dup2\n        /* \"#utility.yul\":11088:11113   */\n      mstore\n        /* \"#utility.yul\":11149:11151   */\n      0x40\n        /* \"#utility.yul\":11144:11146   */\n      0x20\n        /* \"#utility.yul\":11133:11142   */\n      dup3\n        /* \"#utility.yul\":11129:11147   */\n      add\n        /* \"#utility.yul\":11122:11152   */\n      mstore\n        /* \"#utility.yul\":11069:11073   */\n      0x00\n        /* \"#utility.yul\":11169:11225   */\n      tag_609\n        /* \"#utility.yul\":11221:11223   */\n      0x40\n        /* \"#utility.yul\":11210:11219   */\n      dup4\n        /* \"#utility.yul\":11206:11224   */\n      add\n        /* \"#utility.yul\":11198:11204   */\n      dup5\n        /* \"#utility.yul\":11169:11225   */\n      tag_530\n      jump\t// in\n    tag_609:\n        /* \"#utility.yul\":11161:11225   */\n      swap5\n        /* \"#utility.yul\":10899:11231   */\n      swap4\n      pop\n      pop\n      pop\n      pop\n      jump\t// out\n        /* \"#utility.yul\":11666:11778   */\n    tag_384:\n        /* \"#utility.yul\":11698:11699   */\n      0x00\n        /* \"#utility.yul\":11724:11725   */\n      dup3\n        /* \"#utility.yul\":11714:11749   */\n      tag_613\n      jumpi\n        /* \"#utility.yul\":11729:11747   */\n      tag_613\n      tag_531\n      jump\t// in\n    tag_613:\n      pop\n        /* \"#utility.yul\":11763:11772   */\n      mod\n      swap1\n        /* \"#utility.yul\":11666:11778   */\n      jump\t// out\n        /* \"#utility.yul\":11783:12034   */\n    tag_395:\n        /* \"#utility.yul\":11853:11859   */\n      0x00\n        /* \"#utility.yul\":11906:11908   */\n      0x20\n        /* \"#utility.yul\":11894:11903   */\n      dup3\n        /* \"#utility.yul\":11885:11892   */\n      dup5\n        /* \"#utility.yul\":11881:11904   */\n      sub\n        /* \"#utility.yul\":11877:11909   */\n      slt\n        /* \"#utility.yul\":11874:11926   */\n      iszero\n      tag_615\n      jumpi\n        /* \"#utility.yul\":11922:11923   */\n      0x00\n        /* \"#utility.yul\":11919:11920   */\n      dup1\n        /* \"#utility.yul\":11912:11924   */\n      revert\n        /* \"#utility.yul\":11874:11926   */\n    tag_615:\n        /* \"#utility.yul\":11954:11963   */\n      dup2\n        /* \"#utility.yul\":11948:11964   */\n      mload\n        /* \"#utility.yul\":11973:12004   */\n      tag_548\n        /* \"#utility.yul\":11998:12003   */\n      dup2\n        /* \"#utility.yul\":11973:12004   */\n      tag_528\n      jump\t// in\n        /* \"#utility.yul\":13551:13735   */\n    tag_438:\n        /* \"#utility.yul\":13621:13627   */\n      0x00\n        /* \"#utility.yul\":13674:13676   */\n      0x20\n        /* \"#utility.yul\":13662:13671   */\n      dup3\n        /* \"#utility.yul\":13653:13660   */\n      dup5\n        /* \"#utility.yul\":13649:13672   */\n      sub\n        /* \"#utility.yul\":13645:13677   */\n      slt\n        /* \"#utility.yul\":13642:13694   */\n      iszero\n      tag_622\n      jumpi\n        /* \"#utility.yul\":13690:13691   */\n      0x00\n        /* \"#utility.yul\":13687:13688   */\n      dup1\n        /* \"#utility.yul\":13680:13692   */\n      revert\n        /* \"#utility.yul\":13642:13694   */\n    tag_622:\n      pop\n        /* \"#utility.yul\":13713:13729   */\n      mload\n      swap2\n        /* \"#utility.yul\":13551:13735   */\n      swap1\n      pop\n      jump\t// out\n\n    auxdata: 0xa26469706673582212201750815f4039664330196e2d4a6486be571dbd3e2553f5050a783ce06cd2debc64736f6c63430008110033\n}\n",
				"bytecode": {
					"linkReferences": {},
					"object": "6080604052600a600355606460045560646005556103e86009556001600a553480156200002b57600080fd5b5060405162002475380380620024758339810160408190526200004e916200017c565b6200005933620000a3565b600180546001600160a01b0319166001600160a01b0383161790556200007e620000f3565b62000088620000f3565b62000092620000f3565b6200009c620000f3565b50620001d6565b600080546001600160a01b038381166001600160a01b0319831681178455604051919092169283917f8be0079c531659141344cd1fd0a4f28419497f9722a3daafe3b4186f6b6457e09190a35050565b600a546000818152600760205260409020906001036200011a576103e88155601960018201555b600a5460020362000132576107d08155601e60018201555b600a546003036200014a57610bb88155602860018201555b600a546004036200016257610fa08155603260018201555b600a80549060006200017483620001ae565b919050555050565b6000602082840312156200018f57600080fd5b81516001600160a01b0381168114620001a757600080fd5b9392505050565b600060018201620001cf57634e487b7160e01b600052601160045260246000fd5b5060010190565b61228f80620001e66000396000f3fe6080604052600436106101ee5760003560e01c8063859a62d01161010d578063c724cfd3116100a0578063dd6ffd371161006f578063dd6ffd3714610593578063e2eb41ff146105a8578063e6f4cab21461061a578063f2fde38b1461063a578063fcefb2b61461065a57600080fd5b8063c724cfd31461051b578063c9ec39501461052e578063d175810d14610543578063d91930251461057357600080fd5b8063b863bd37116100dc578063b863bd37146104a6578063bece83e4146104c6578063c178d83d146104e6578063c54b9c781461050657600080fd5b8063859a62d0146104295780638da5cb5b14610449578063b0cd0d5614610471578063b1501f9c1461049157600080fd5b806345d9d0be11610185578063715018a611610154578063715018a6146103bb5780637a742b2d146103d05780637aded47e146103f0578063839481151461041357600080fd5b806345d9d0be146103395780635d1b3d76146103665780636893f296146103865780636b7c72641461039b57600080fd5b80632aa04a66116101c15780632aa04a66146102b65780632b56c1dd146102d65780632f15911d146102f657806339850c6b1461031957600080fd5b8063127226cc146101f3578063204597e014610228578063224d54b31461027f578063271c52ba14610296575b600080fd5b3480156101ff57600080fd5b5061021361020e366004611e43565b61066f565b60405190151581526020015b60405180910390f35b34801561023457600080fd5b50610264610243366004611e43565b60076020526000908152604090208054600182015460029092015490919083565b6040805193845260208401929092529082015260600161021f565b34801561028b57600080fd5b5061029461072d565b005b3480156102a257600080fd5b506102946102b1366004611e43565b600555565b3480156102c257600080fd5b506102946102d1366004611e43565b6107df565b3480156102e257600080fd5b506102946102f1366004611e5c565b610a38565b34801561030257600080fd5b5061030b610c19565b60405190815260200161021f565b34801561032557600080fd5b50610294610334366004611e43565b610c6b565b34801561034557600080fd5b50610359610354366004611ee6565b610dee565b60405161021f9190611f0a565b34801561037257600080fd5b50610294610381366004611e43565b600355565b34801561039257600080fd5b50610294610ed4565b3480156103a757600080fd5b506102136103b6366004611f8f565b610fbf565b3480156103c757600080fd5b50610294610ff8565b3480156103dc57600080fd5b506102946103eb366004611e43565b600455565b3480156103fc57600080fd5b5061021361040b366004611e5c565b600092915050565b34801561041f57600080fd5b5061030b60095481565b34801561043557600080fd5b50610264610444366004611e43565b61100c565b34801561045557600080fd5b506000546040516001600160a01b03909116815260200161021f565b34801561047d57600080fd5b5061029461048c366004611e43565b61103f565b34801561049d57600080fd5b5061029461128d565b3480156104b257600080fd5b5061030b6104c1366004611e43565b61139b565b3480156104d257600080fd5b506102136104e1366004611fd1565b61140a565b3480156104f257600080fd5b50610294610501366004611e43565b6114d9565b34801561051257600080fd5b5061030b611591565b610294610529366004611fd1565b611636565b34801561053a57600080fd5b50610294611978565b34801561054f57600080fd5b5061021361055e366004611e43565b600b6020526000908152604090205460ff1681565b34801561057f57600080fd5b5061029461058e366004611e43565b611a22565b34801561059f57600080fd5b5061030b611b6c565b3480156105b457600080fd5b506105f26105c3366004611ee6565b600660205260009081526040902080546001820154600283015460038401546004909401549293919290919085565b604080519586526020860194909452928401919091526060830152608082015260a00161021f565b34801561062657600080fd5b50610213610635366004611fd1565b611bc0565b34801561064657600080fd5b50610294610655366004611ee6565b611c21565b34801561066657600080fd5b50610294611c9a565b60085460009082106106bd5760405162461bcd60e51b8152602060048201526012602482015271092dcecc2d8d2c840c8eacad840d2dcc8caf60731b60448201526064015b60405180910390fd5b6000600883815481106106d2576106d261208f565b906000526020600020906005020190506000816000015411156107245760018101546001600160a01b0316331480610716575060028101546001600160a01b031633145b156107245750600192915050565b50600092915050565b610735611d9e565b6040805160808101825260008082526020820184815292820181905260608201819052600880546001810182559152815160059091027ff3f7a9fe364faab93b216da50a3214154f22a0a2b415b23a84c8169e8b636ee381019182559251919290916107c5917ff3f7a9fe364faab93b216da50a3214154f22a0a2b415b23a84c8169e8b636ee401906002611dbc565b506040820151816003015560608201518160040155505050565b33600090815260066020526040902054811161083d5760405162461bcd60e51b815260206004820152601f60248201527f796f7527726520616c72656164792062656174656e207468697320626f73730060448201526064016106b4565b60008181526007602090815260408083205433845260069092529091206002015410156108bf5760405162461bcd60e51b815260206004820152602a60248201527f796f7520646f6e2774206861766520656e6f75676820656e6572677920666f72604482015269207468697320626f737360b01b60648201526084016106b4565b604080516003808252608082019092526000918291906020820160608036833701905050905060005b600281116109645733600090815260066020526040812060010154600554610910600a61139b565b61091a91906120bb565b61092491906120bb565b9050808383815181106109395761093961208f565b602090810291909101015261094e81856120d2565b935050808061095c906120e5565b9150506108e8565b50600083815260076020526040812080548492906109839084906120fe565b909155505060008381526007602052604081205490036109ef573360008181526006602052604090819020859055518491907f46475d55c3bc13c229507a0915f795fd03b23601512cc1aeae9e0bf41a4075d8906109e290859061214c565b60405180910390a3505050565b600083815260076020526040902060020154610a0c9060036120bb565b3360009081526006602052604081206002018054909190610a2e9084906120fe565b9091555050505050565b336000908152600660205260408120818155600180820155600281018290556004810182905560038101839055905b82811015610c135781600501848483818110610a8557610a8561208f565b835460018082018655600095865260209586902092909502939093013592019190915550546001600160a01b0316632862bb25858584818110610aca57610aca61208f565b905060200201356040518263ffffffff1660e01b8152600401610aef91815260200190565b602060405180830381865afa158015610b0c573d6000803e3d6000fd5b505050506040513d601f19601f82011682018060405250810190610b30919061215f565b15610b7d5760405162461bcd60e51b815260206004820152601a60248201527f5468697320746f6b656e20616c726561647920696e2067616d6500000000000060448201526064016106b4565b6001546001600160a01b031663fb4f8197858584818110610ba057610ba061208f565b6040516001600160e01b031960e086901b1681526020909102929092013560048301525060016024820152604401600060405180830381600087803b158015610be857600080fd5b505af1158015610bfc573d6000803e3d6000fd5b505050508080610c0b906120e5565b915050610a67565b50505050565b60006064610c27601461139b565b610c329060646120d2565b610c3c9190612197565b33600090815260066020526040902060010154600554610c5c91906120bb565b610c6691906120bb565b905090565b33600090815260066020526040902054811115610c9a5760405162461bcd60e51b81526004016106b4906121ab565b336000908152600c60205260409020610cb46001836120fe565b60058110610cc457610cc461208f565b602081049091015460ff601f9092166101000a90041615610d325760405162461bcd60e51b815260206004820152602260248201527f796f7527726520616c726561647920636c61696d65642074686973206566666560448201526118dd60f21b60648201526084016106b4565b6000610d3e600a61139b565b905060028111610d76573360009081526006602052604081206001018054600a9290610d6b9084906120d2565b90915550610dea9050565b3360009081526006602052604081206001018054600a9290610d999084906120fe565b9091555050336000908152600c60205260409020600190610dba82856120fe565b60058110610dca57610dca61208f565b602091828204019190066101000a81548160ff0219169083151502179055505b5050565b610e276040518060c001604052806000815260200160008152602001600081526020016000815260200160008152602001606081525090565b6001600160a01b038216600090815260066020908152604091829020825160c0810184528154815260018201548184015260028201548185015260038201546060820152600482015460808201526005820180548551818602810186019096528086529194929360a08601939290830182828015610ec457602002820191906000526020600020905b815481526020019060010190808311610eb0575b5050505050815250509050919050565b60006008610ee0611591565b81548110610ef057610ef061208f565b906000526020600020906005020190503381600101600060028110610f1757610f1761208f565b0180546001600160a01b0319166001600160a01b039283161790556002546009546040516323b872dd60e01b815233600482015230602482015260448101919091529116906323b872dd906064016020604051808303816000875af1158015610f84573d6000803e3d6000fd5b505050506040513d601f19601f82011682018060405250810190610fa8919061215f565b508054816000610fb7836120e5565b919050555050565b600c6020528160005260406000208160058110610fdb57600080fd5b602081049091015460ff601f9092166101000a9004169150829050565b611000611cf4565b61100a6000611d4e565b565b6008818154811061101c57600080fd5b600091825260209091206005909102018054600382015460049092015490925083565b6000600882815481106110545761105461208f565b9060005260206000209060050201905061106d8261066f565b6110ae5760405162461bcd60e51b8152602060048201526012602482015271796f75277265206e6f7420696e20726f6f6d60701b60448201526064016106b4565b60408051600380825260808201909252600091602082016060803683370190505090506000805b6002811161115157336000908152600660205260408120600101546005546110fd600a61139b565b61110791906120bb565b61111191906120bb565b9050808483815181106111265761112661208f565b602090810291909101015261113b81846120d2565b9250508080611149906120e5565b9150506110d5565b503360018401600001546001600160a01b0316036111d9578083600301600082825461117d91906120d2565b90915550506003830154156111d45760405162461bcd60e51b815260206004820152601f60248201527f796f7527726520616c72656164792061747461636b656420696e206475656c0060448201526064016106b4565b611244565b808360040160008282546111ed91906120d2565b90915550506003830154156112445760405162461bcd60e51b815260206004820152601f60248201527f796f7527726520616c72656164792061747461636b656420696e206475656c0060448201526064016106b4565b336001600160a01b03167f0f2ba4445fbd3af142b7a1251df18b6d462b23687b1bc8799a1c3eddb4ff0826858460405161127f9291906121ee565b60405180910390a250505050565b60005b3360009081526006602052604090206005015481101561135e5760015433600090815260066020526040902060050180546001600160a01b039092169163fb4f81979190849081106112e4576112e461208f565b906000526020600020015460006040518363ffffffff1660e01b81526004016113199291909182521515602082015260400190565b600060405180830381600087803b15801561133357600080fd5b505af1158015611347573d6000803e3d6000fd5b505050508080611356906120e5565b915050611290565b503360009081526006602052604081208181556001810182905560028101829055600381018290556004810182905590610dea6005830182611e14565b60008142446113ab6001436120fe565b6040805160208101949094528301919091524060608083019190915233901b6bffffffffffffffffffffffff191660808201526094016040516020818303038152906040528051906020012060001c611404919061220f565b92915050565b6000805b82518110156114d057600154835132916001600160a01b031690636352211e908690859081106114405761144061208f565b60200260200101516040518263ffffffff1660e01b815260040161146691815260200190565b602060405180830381865afa158015611483573d6000803e3d6000fd5b505050506040513d601f19601f820116820180604052508101906114a79190612223565b6001600160a01b0316146114be5750600092915050565b806114c8816120e5565b91505061140e565b50600192915050565b6000600454826114e991906120bb565b6002546040516323b872dd60e01b8152336004820152306024820152604481018390529192506001600160a01b0316906323b872dd906064016020604051808303816000875af1158015611541573d6000803e3d6000fd5b505050506040513d601f19601f82011682018060405250810190611565919061215f565b5033600090815260066020526040812060020180548492906115889084906120d2565b90915550505050565b6000805b6008548110156115e257600881815481106115b2576115b261208f565b9060005260206000209060050201600001546002146115d057919050565b806115da816120e5565b915050611595565b5060405162461bcd60e51b815260206004820152602260248201527f636f756c64206e6f742066696e6420617661696c61626c65206475656c20726f6044820152616f6d60f01b60648201526084016106b4565b336000908152600660205260409020546003146116955760405162461bcd60e51b815260206004820152601d60248201527f796f75206861766520746f2064656665617420616c6c20626f7373657300000060448201526064016106b4565b61169e8161140a565b6116f55760405162461bcd60e51b815260206004820152602260248201527f796f75277265206e6f74206f776e6572206f6620746865736520746f6b656e49604482015261647360f01b60648201526084016106b4565b6116fe81611bc0565b156117415760405162461bcd60e51b81526020600482015260136024820152721d1bdad95b9cc81dd95c994818db185a5b5959606a1b60448201526064016106b4565b6000805b8251811015611932576001600b60008584815181106117665761176661208f565b6020026020010151815260200190815260200160002060006101000a81548160ff021916908315150217905550600061179f600a61139b565b9050600281116118a1576001546040805163a911324760e01b815290516064926001600160a01b03169163a91132479160048083019260209291908290030181865afa1580156117f3573d6000803e3d6000fd5b505050506040513d601f19601f820116820180604052508101906118179190612240565b6118229060146120bb565b61182c9190612197565b61183690846120d2565b60018054604051634261cadd60e11b81529295506001600160a01b0316916384c395ba9161186a9160040190815260200190565b600060405180830381600087803b15801561188457600080fd5b505af1158015611898573d6000803e3d6000fd5b5050505061191f565b6002546040516323b872dd60e01b815230600482015233602482015261271060448201526001600160a01b03909116906323b872dd906064016020604051808303816000875af11580156118f9573d6000803e3d6000fd5b505050506040513d601f19601f8201168201806040525081019061191d919061215f565b505b508061192a816120e5565b915050611745565b5080341015610dea5760405162461bcd60e51b8152602060048201526012602482015271696e73756666696369656e742066756e647360701b60448201526064016106b4565b3360009081526006602052604090206004015461199890620151806120d2565b4210156119d35760405162461bcd60e51b81526020600482015260096024820152683a393c903630ba32b960b91b60448201526064016106b4565b336000908152600660205260409020426004820155600101546003546119f991906120bb565b3360009081526006602052604081206002018054909190611a1b9084906120d2565b9091555050565b33600090815260066020526040902054811115611a515760405162461bcd60e51b81526004016106b4906121ab565b336000908152600c60205260409020611a6b6001836120fe565b60058110611a7b57611a7b61208f565b602081049091015460ff601f9092166101000a90041615611ae85760405162461bcd60e51b815260206004820152602160248201527f796f7527726520616c726561647920636c61696d6564207468697320626f6e756044820152607360f81b60648201526084016106b4565b6000611af4600a61139b565b905060028111611b2c573360009081526006602052604081206001018054600a9290611b219084906120d2565b90915550611b509050565b33600090815260066020526040812060020180546103e89290610d999084906120d2565b336000908152600c60205260409020600190610dba82856120fe565b6000806008611b79611591565b81548110611b8957611b8961208f565b906000526020600020906005020190506000816004015482600301541115611bb357506000611bb7565b5060015b60019250505090565b6000805b825181101561072457600b6000848381518110611be357611be361208f565b60209081029190910181015182528101919091526040016000205460ff1615611c0f5750600192915050565b80611c19816120e5565b915050611bc4565b611c29611cf4565b6001600160a01b038116611c8e5760405162461bcd60e51b815260206004820152602660248201527f4f776e61626c653a206e6577206f776e657220697320746865207a65726f206160448201526564647265737360d01b60648201526084016106b4565b611c9781611d4e565b50565b60018054604051634261cadd60e11b815260048101929092526001600160a01b0316906384c395ba90602401600060405180830381600087803b158015611ce057600080fd5b505af1158015610c13573d6000803e3d6000fd5b6000546001600160a01b0316331461100a5760405162461bcd60e51b815260206004820181905260248201527f4f776e61626c653a2063616c6c6572206973206e6f7420746865206f776e657260448201526064016106b4565b600080546001600160a01b038381166001600160a01b0319831681178455604051919092169283917f8be0079c531659141344cd1fd0a4f28419497f9722a3daafe3b4186f6b6457e09190a35050565b60405180604001604052806002906020820280368337509192915050565b8260028101928215611e04579160200282015b82811115611e0457825182546001600160a01b0319166001600160a01b03909116178255602090920191600190910190611dcf565b50611e10929150611e2e565b5090565b5080546000825590600052602060002090810190611c9791905b5b80821115611e105760008155600101611e2f565b600060208284031215611e5557600080fd5b5035919050565b60008060208385031215611e6f57600080fd5b823567ffffffffffffffff80821115611e8757600080fd5b818501915085601f830112611e9b57600080fd5b813581811115611eaa57600080fd5b8660208260051b8501011115611ebf57600080fd5b60209290920196919550909350505050565b6001600160a01b0381168114611c9757600080fd5b600060208284031215611ef857600080fd5b8135611f0381611ed1565b9392505050565b6000602080835260e083018451828501528185015160408501526040850151606085015260608501516080850152608085015160a085015260a085015160c080860152818151808452610100870191508483019350600092505b80831015611f845783518252928401926001929092019190840190611f64565b509695505050505050565b60008060408385031215611fa257600080fd5b8235611fad81611ed1565b946020939093013593505050565b634e487b7160e01b600052604160045260246000fd5b60006020808385031215611fe457600080fd5b823567ffffffffffffffff80821115611ffc57600080fd5b818501915085601f83011261201057600080fd5b81358181111561202257612022611fbb565b8060051b604051601f19603f8301168101818110858211171561204757612047611fbb565b60405291825284820192508381018501918883111561206557600080fd5b938501935b828510156120835784358452938501939285019261206a565b98975050505050505050565b634e487b7160e01b600052603260045260246000fd5b634e487b7160e01b600052601160045260246000fd5b8082028115828204841417611404576114046120a5565b80820180821115611404576114046120a5565b6000600182016120f7576120f76120a5565b5060010190565b81810381811115611404576114046120a5565b600081518084526020808501945080840160005b8381101561214157815187529582019590820190600101612125565b509495945050505050565b602081526000611f036020830184612111565b60006020828403121561217157600080fd5b81518015158114611f0357600080fd5b634e487b7160e01b600052601260045260246000fd5b6000826121a6576121a6612181565b500490565b60208082526023908201527f6265666f726520796f75206e6565642062656174206e656365737361727920626040820152626f737360e81b606082015260800190565b8281526040602082015260006122076040830184612111565b949350505050565b60008261221e5761221e612181565b500690565b60006020828403121561223557600080fd5b8151611f0381611ed1565b60006020828403121561225257600080fd5b505191905056fea26469706673582212201750815f4039664330196e2d4a6486be571dbd3e2553f5050a783ce06cd2debc64736f6c63430008110033",
					"opcodes": "PUSH1 0x80 PUSH1 0x40 MSTORE PUSH1 0xA PUSH1 0x3 SSTORE PUSH1 0x64 PUSH1 0x4 SSTORE PUSH1 0x64 PUSH1 0x5 SSTORE PUSH2 0x3E8 PUSH1 0x9 SSTORE PUSH1 0x1 PUSH1 0xA SSTORE CALLVALUE DUP1 ISZERO PUSH3 0x2B JUMPI PUSH1 0x0 DUP1 REVERT JUMPDEST POP PUSH1 0x40 MLOAD PUSH3 0x2475 CODESIZE SUB DUP1 PUSH3 0x2475 DUP4 CODECOPY DUP2 ADD PUSH1 0x40 DUP2 SWAP1 MSTORE PUSH3 0x4E SWAP2 PUSH3 0x17C JUMP JUMPDEST PUSH3 0x59 CALLER PUSH3 0xA3 JUMP JUMPDEST PUSH1 0x1 DUP1 SLOAD PUSH1 0x1 PUSH1 0x1 PUSH1 0xA0 SHL SUB NOT AND PUSH1 0x1 PUSH1 0x1 PUSH1 0xA0 SHL SUB DUP4 AND OR SWAP1 SSTORE PUSH3 0x7E PUSH3 0xF3 JUMP JUMPDEST PUSH3 0x88 PUSH3 0xF3 JUMP JUMPDEST PUSH3 0x92 PUSH3 0xF3 JUMP JUMPDEST PUSH3 0x9C PUSH3 0xF3 JUMP JUMPDEST POP PUSH3 0x1D6 JUMP JUMPDEST PUSH1 0x0 DUP1 SLOAD PUSH1 0x1 PUSH1 0x1 PUSH1 0xA0 SHL SUB DUP4 DUP2 AND PUSH1 0x1 PUSH1 0x1 PUSH1 0xA0 SHL SUB NOT DUP4 AND DUP2 OR DUP5 SSTORE PUSH1 0x40 MLOAD SWAP2 SWAP1 SWAP3 AND SWAP3 DUP4 SWAP2 PUSH32 0x8BE0079C531659141344CD1FD0A4F28419497F9722A3DAAFE3B4186F6B6457E0 SWAP2 SWAP1 LOG3 POP POP JUMP JUMPDEST PUSH1 0xA SLOAD PUSH1 0x0 DUP2 DUP2 MSTORE PUSH1 0x7 PUSH1 0x20 MSTORE PUSH1 0x40 SWAP1 KECCAK256 SWAP1 PUSH1 0x1 SUB PUSH3 0x11A JUMPI PUSH2 0x3E8 DUP2 SSTORE PUSH1 0x19 PUSH1 0x1 DUP3 ADD SSTORE JUMPDEST PUSH1 0xA SLOAD PUSH1 0x2 SUB PUSH3 0x132 JUMPI PUSH2 0x7D0 DUP2 SSTORE PUSH1 0x1E PUSH1 0x1 DUP3 ADD SSTORE JUMPDEST PUSH1 0xA SLOAD PUSH1 0x3 SUB PUSH3 0x14A JUMPI PUSH2 0xBB8 DUP2 SSTORE PUSH1 0x28 PUSH1 0x1 DUP3 ADD SSTORE JUMPDEST PUSH1 0xA SLOAD PUSH1 0x4 SUB PUSH3 0x162 JUMPI PUSH2 0xFA0 DUP2 SSTORE PUSH1 0x32 PUSH1 0x1 DUP3 ADD SSTORE JUMPDEST PUSH1 0xA DUP1 SLOAD SWAP1 PUSH1 0x0 PUSH3 0x174 DUP4 PUSH3 0x1AE JUMP JUMPDEST SWAP2 SWAP1 POP SSTORE POP POP JUMP JUMPDEST PUSH1 0x0 PUSH1 0x20 DUP3 DUP5 SUB SLT ISZERO PUSH3 0x18F JUMPI PUSH1 0x0 DUP1 REVERT JUMPDEST DUP2 MLOAD PUSH1 0x1 PUSH1 0x1 PUSH1 0xA0 SHL SUB DUP2 AND DUP2 EQ PUSH3 0x1A7 JUMPI PUSH1 0x0 DUP1 REVERT JUMPDEST SWAP4 SWAP3 POP POP POP JUMP JUMPDEST PUSH1 0x0 PUSH1 0x1 DUP3 ADD PUSH3 0x1CF JUMPI PUSH4 0x4E487B71 PUSH1 0xE0 SHL PUSH1 0x0 MSTORE PUSH1 0x11 PUSH1 0x4 MSTORE PUSH1 0x24 PUSH1 0x0 REVERT JUMPDEST POP PUSH1 0x1 ADD SWAP1 JUMP JUMPDEST PUSH2 0x228F DUP1 PUSH3 0x1E6 PUSH1 0x0 CODECOPY PUSH1 0x0 RETURN INVALID PUSH1 0x80 PUSH1 0x40 MSTORE PUSH1 0x4 CALLDATASIZE LT PUSH2 0x1EE JUMPI PUSH1 0x0 CALLDATALOAD PUSH1 0xE0 SHR DUP1 PUSH4 0x859A62D0 GT PUSH2 0x10D JUMPI DUP1 PUSH4 0xC724CFD3 GT PUSH2 0xA0 JUMPI DUP1 PUSH4 0xDD6FFD37 GT PUSH2 0x6F JUMPI DUP1 PUSH4 0xDD6FFD37 EQ PUSH2 0x593 JUMPI DUP1 PUSH4 0xE2EB41FF EQ PUSH2 0x5A8 JUMPI DUP1 PUSH4 0xE6F4CAB2 EQ PUSH2 0x61A JUMPI DUP1 PUSH4 0xF2FDE38B EQ PUSH2 0x63A JUMPI DUP1 PUSH4 0xFCEFB2B6 EQ PUSH2 0x65A JUMPI PUSH1 0x0 DUP1 REVERT JUMPDEST DUP1 PUSH4 0xC724CFD3 EQ PUSH2 0x51B JUMPI DUP1 PUSH4 0xC9EC3950 EQ PUSH2 0x52E JUMPI DUP1 PUSH4 0xD175810D EQ PUSH2 0x543 JUMPI DUP1 PUSH4 0xD9193025 EQ PUSH2 0x573 JUMPI PUSH1 0x0 DUP1 REVERT JUMPDEST DUP1 PUSH4 0xB863BD37 GT PUSH2 0xDC JUMPI DUP1 PUSH4 0xB863BD37 EQ PUSH2 0x4A6 JUMPI DUP1 PUSH4 0xBECE83E4 EQ PUSH2 0x4C6 JUMPI DUP1 PUSH4 0xC178D83D EQ PUSH2 0x4E6 JUMPI DUP1 PUSH4 0xC54B9C78 EQ PUSH2 0x506 JUMPI PUSH1 0x0 DUP1 REVERT JUMPDEST DUP1 PUSH4 0x859A62D0 EQ PUSH2 0x429 JUMPI DUP1 PUSH4 0x8DA5CB5B EQ PUSH2 0x449 JUMPI DUP1 PUSH4 0xB0CD0D56 EQ PUSH2 0x471 JUMPI DUP1 PUSH4 0xB1501F9C EQ PUSH2 0x491 JUMPI PUSH1 0x0 DUP1 REVERT JUMPDEST DUP1 PUSH4 0x45D9D0BE GT PUSH2 0x185 JUMPI DUP1 PUSH4 0x715018A6 GT PUSH2 0x154 JUMPI DUP1 PUSH4 0x715018A6 EQ PUSH2 0x3BB JUMPI DUP1 PUSH4 0x7A742B2D EQ PUSH2 0x3D0 JUMPI DUP1 PUSH4 0x7ADED47E EQ PUSH2 0x3F0 JUMPI DUP1 PUSH4 0x83948115 EQ PUSH2 0x413 JUMPI PUSH1 0x0 DUP1 REVERT JUMPDEST DUP1 PUSH4 0x45D9D0BE EQ PUSH2 0x339 JUMPI DUP1 PUSH4 0x5D1B3D76 EQ PUSH2 0x366 JUMPI DUP1 PUSH4 0x6893F296 EQ PUSH2 0x386 JUMPI DUP1 PUSH4 0x6B7C7264 EQ PUSH2 0x39B JUMPI PUSH1 0x0 DUP1 REVERT JUMPDEST DUP1 PUSH4 0x2AA04A66 GT PUSH2 0x1C1 JUMPI DUP1 PUSH4 0x2AA04A66 EQ PUSH2 0x2B6 JUMPI DUP1 PUSH4 0x2B56C1DD EQ PUSH2 0x2D6 JUMPI DUP1 PUSH4 0x2F15911D EQ PUSH2 0x2F6 JUMPI DUP1 PUSH4 0x39850C6B EQ PUSH2 0x319 JUMPI PUSH1 0x0 DUP1 REVERT JUMPDEST DUP1 PUSH4 0x127226CC EQ PUSH2 0x1F3 JUMPI DUP1 PUSH4 0x204597E0 EQ PUSH2 0x228 JUMPI DUP1 PUSH4 0x224D54B3 EQ PUSH2 0x27F JUMPI DUP1 PUSH4 0x271C52BA EQ PUSH2 0x296 JUMPI JUMPDEST PUSH1 0x0 DUP1 REVERT JUMPDEST CALLVALUE DUP1 ISZERO PUSH2 0x1FF JUMPI PUSH1 0x0 DUP1 REVERT JUMPDEST POP PUSH2 0x213 PUSH2 0x20E CALLDATASIZE PUSH1 0x4 PUSH2 0x1E43 JUMP JUMPDEST PUSH2 0x66F JUMP JUMPDEST PUSH1 0x40 MLOAD SWAP1 ISZERO ISZERO DUP2 MSTORE PUSH1 0x20 ADD JUMPDEST PUSH1 0x40 MLOAD DUP1 SWAP2 SUB SWAP1 RETURN JUMPDEST CALLVALUE DUP1 ISZERO PUSH2 0x234 JUMPI PUSH1 0x0 DUP1 REVERT JUMPDEST POP PUSH2 0x264 PUSH2 0x243 CALLDATASIZE PUSH1 0x4 PUSH2 0x1E43 JUMP JUMPDEST PUSH1 0x7 PUSH1 0x20 MSTORE PUSH1 0x0 SWAP1 DUP2 MSTORE PUSH1 0x40 SWAP1 KECCAK256 DUP1 SLOAD PUSH1 0x1 DUP3 ADD SLOAD PUSH1 0x2 SWAP1 SWAP3 ADD SLOAD SWAP1 SWAP2 SWAP1 DUP4 JUMP JUMPDEST PUSH1 0x40 DUP1 MLOAD SWAP4 DUP5 MSTORE PUSH1 0x20 DUP5 ADD SWAP3 SWAP1 SWAP3 MSTORE SWAP1 DUP3 ADD MSTORE PUSH1 0x60 ADD PUSH2 0x21F JUMP JUMPDEST CALLVALUE DUP1 ISZERO PUSH2 0x28B JUMPI PUSH1 0x0 DUP1 REVERT JUMPDEST POP PUSH2 0x294 PUSH2 0x72D JUMP JUMPDEST STOP JUMPDEST CALLVALUE DUP1 ISZERO PUSH2 0x2A2 JUMPI PUSH1 0x0 DUP1 REVERT JUMPDEST POP PUSH2 0x294 PUSH2 0x2B1 CALLDATASIZE PUSH1 0x4 PUSH2 0x1E43 JUMP JUMPDEST PUSH1 0x5 SSTORE JUMP JUMPDEST CALLVALUE DUP1 ISZERO PUSH2 0x2C2 JUMPI PUSH1 0x0 DUP1 REVERT JUMPDEST POP PUSH2 0x294 PUSH2 0x2D1 CALLDATASIZE PUSH1 0x4 PUSH2 0x1E43 JUMP JUMPDEST PUSH2 0x7DF JUMP JUMPDEST CALLVALUE DUP1 ISZERO PUSH2 0x2E2 JUMPI PUSH1 0x0 DUP1 REVERT JUMPDEST POP PUSH2 0x294 PUSH2 0x2F1 CALLDATASIZE PUSH1 0x4 PUSH2 0x1E5C JUMP JUMPDEST PUSH2 0xA38 JUMP JUMPDEST CALLVALUE DUP1 ISZERO PUSH2 0x302 JUMPI PUSH1 0x0 DUP1 REVERT JUMPDEST POP PUSH2 0x30B PUSH2 0xC19 JUMP JUMPDEST PUSH1 0x40 MLOAD SWAP1 DUP2 MSTORE PUSH1 0x20 ADD PUSH2 0x21F JUMP JUMPDEST CALLVALUE DUP1 ISZERO PUSH2 0x325 JUMPI PUSH1 0x0 DUP1 REVERT JUMPDEST POP PUSH2 0x294 PUSH2 0x334 CALLDATASIZE PUSH1 0x4 PUSH2 0x1E43 JUMP JUMPDEST PUSH2 0xC6B JUMP JUMPDEST CALLVALUE DUP1 ISZERO PUSH2 0x345 JUMPI PUSH1 0x0 DUP1 REVERT JUMPDEST POP PUSH2 0x359 PUSH2 0x354 CALLDATASIZE PUSH1 0x4 PUSH2 0x1EE6 JUMP JUMPDEST PUSH2 0xDEE JUMP JUMPDEST PUSH1 0x40 MLOAD PUSH2 0x21F SWAP2 SWAP1 PUSH2 0x1F0A JUMP JUMPDEST CALLVALUE DUP1 ISZERO PUSH2 0x372 JUMPI PUSH1 0x0 DUP1 REVERT JUMPDEST POP PUSH2 0x294 PUSH2 0x381 CALLDATASIZE PUSH1 0x4 PUSH2 0x1E43 JUMP JUMPDEST PUSH1 0x3 SSTORE JUMP JUMPDEST CALLVALUE DUP1 ISZERO PUSH2 0x392 JUMPI PUSH1 0x0 DUP1 REVERT JUMPDEST POP PUSH2 0x294 PUSH2 0xED4 JUMP JUMPDEST CALLVALUE DUP1 ISZERO PUSH2 0x3A7 JUMPI PUSH1 0x0 DUP1 REVERT JUMPDEST POP PUSH2 0x213 PUSH2 0x3B6 CALLDATASIZE PUSH1 0x4 PUSH2 0x1F8F JUMP JUMPDEST PUSH2 0xFBF JUMP JUMPDEST CALLVALUE DUP1 ISZERO PUSH2 0x3C7 JUMPI PUSH1 0x0 DUP1 REVERT JUMPDEST POP PUSH2 0x294 PUSH2 0xFF8 JUMP JUMPDEST CALLVALUE DUP1 ISZERO PUSH2 0x3DC JUMPI PUSH1 0x0 DUP1 REVERT JUMPDEST POP PUSH2 0x294 PUSH2 0x3EB CALLDATASIZE PUSH1 0x4 PUSH2 0x1E43 JUMP JUMPDEST PUSH1 0x4 SSTORE JUMP JUMPDEST CALLVALUE DUP1 ISZERO PUSH2 0x3FC JUMPI PUSH1 0x0 DUP1 REVERT JUMPDEST POP PUSH2 0x213 PUSH2 0x40B CALLDATASIZE PUSH1 0x4 PUSH2 0x1E5C JUMP JUMPDEST PUSH1 0x0 SWAP3 SWAP2 POP POP JUMP JUMPDEST CALLVALUE DUP1 ISZERO PUSH2 0x41F JUMPI PUSH1 0x0 DUP1 REVERT JUMPDEST POP PUSH2 0x30B PUSH1 0x9 SLOAD DUP2 JUMP JUMPDEST CALLVALUE DUP1 ISZERO PUSH2 0x435 JUMPI PUSH1 0x0 DUP1 REVERT JUMPDEST POP PUSH2 0x264 PUSH2 0x444 CALLDATASIZE PUSH1 0x4 PUSH2 0x1E43 JUMP JUMPDEST PUSH2 0x100C JUMP JUMPDEST CALLVALUE DUP1 ISZERO PUSH2 0x455 JUMPI PUSH1 0x0 DUP1 REVERT JUMPDEST POP PUSH1 0x0 SLOAD PUSH1 0x40 MLOAD PUSH1 0x1 PUSH1 0x1 PUSH1 0xA0 SHL SUB SWAP1 SWAP2 AND DUP2 MSTORE PUSH1 0x20 ADD PUSH2 0x21F JUMP JUMPDEST CALLVALUE DUP1 ISZERO PUSH2 0x47D JUMPI PUSH1 0x0 DUP1 REVERT JUMPDEST POP PUSH2 0x294 PUSH2 0x48C CALLDATASIZE PUSH1 0x4 PUSH2 0x1E43 JUMP JUMPDEST PUSH2 0x103F JUMP JUMPDEST CALLVALUE DUP1 ISZERO PUSH2 0x49D JUMPI PUSH1 0x0 DUP1 REVERT JUMPDEST POP PUSH2 0x294 PUSH2 0x128D JUMP JUMPDEST CALLVALUE DUP1 ISZERO PUSH2 0x4B2 JUMPI PUSH1 0x0 DUP1 REVERT JUMPDEST POP PUSH2 0x30B PUSH2 0x4C1 CALLDATASIZE PUSH1 0x4 PUSH2 0x1E43 JUMP JUMPDEST PUSH2 0x139B JUMP JUMPDEST CALLVALUE DUP1 ISZERO PUSH2 0x4D2 JUMPI PUSH1 0x0 DUP1 REVERT JUMPDEST POP PUSH2 0x213 PUSH2 0x4E1 CALLDATASIZE PUSH1 0x4 PUSH2 0x1FD1 JUMP JUMPDEST PUSH2 0x140A JUMP JUMPDEST CALLVALUE DUP1 ISZERO PUSH2 0x4F2 JUMPI PUSH1 0x0 DUP1 REVERT JUMPDEST POP PUSH2 0x294 PUSH2 0x501 CALLDATASIZE PUSH1 0x4 PUSH2 0x1E43 JUMP JUMPDEST PUSH2 0x14D9 JUMP JUMPDEST CALLVALUE DUP1 ISZERO PUSH2 0x512 JUMPI PUSH1 0x0 DUP1 REVERT JUMPDEST POP PUSH2 0x30B PUSH2 0x1591 JUMP JUMPDEST PUSH2 0x294 PUSH2 0x529 CALLDATASIZE PUSH1 0x4 PUSH2 0x1FD1 JUMP JUMPDEST PUSH2 0x1636 JUMP JUMPDEST CALLVALUE DUP1 ISZERO PUSH2 0x53A JUMPI PUSH1 0x0 DUP1 REVERT JUMPDEST POP PUSH2 0x294 PUSH2 0x1978 JUMP JUMPDEST CALLVALUE DUP1 ISZERO PUSH2 0x54F JUMPI PUSH1 0x0 DUP1 REVERT JUMPDEST POP PUSH2 0x213 PUSH2 0x55E CALLDATASIZE PUSH1 0x4 PUSH2 0x1E43 JUMP JUMPDEST PUSH1 0xB PUSH1 0x20 MSTORE PUSH1 0x0 SWAP1 DUP2 MSTORE PUSH1 0x40 SWAP1 KECCAK256 SLOAD PUSH1 0xFF AND DUP2 JUMP JUMPDEST CALLVALUE DUP1 ISZERO PUSH2 0x57F JUMPI PUSH1 0x0 DUP1 REVERT JUMPDEST POP PUSH2 0x294 PUSH2 0x58E CALLDATASIZE PUSH1 0x4 PUSH2 0x1E43 JUMP JUMPDEST PUSH2 0x1A22 JUMP JUMPDEST CALLVALUE DUP1 ISZERO PUSH2 0x59F JUMPI PUSH1 0x0 DUP1 REVERT JUMPDEST POP PUSH2 0x30B PUSH2 0x1B6C JUMP JUMPDEST CALLVALUE DUP1 ISZERO PUSH2 0x5B4 JUMPI PUSH1 0x0 DUP1 REVERT JUMPDEST POP PUSH2 0x5F2 PUSH2 0x5C3 CALLDATASIZE PUSH1 0x4 PUSH2 0x1EE6 JUMP JUMPDEST PUSH1 0x6 PUSH1 0x20 MSTORE PUSH1 0x0 SWAP1 DUP2 MSTORE PUSH1 0x40 SWAP1 KECCAK256 DUP1 SLOAD PUSH1 0x1 DUP3 ADD SLOAD PUSH1 0x2 DUP4 ADD SLOAD PUSH1 0x3 DUP5 ADD SLOAD PUSH1 0x4 SWAP1 SWAP5 ADD SLOAD SWAP3 SWAP4 SWAP2 SWAP3 SWAP1 SWAP2 SWAP1 DUP6 JUMP JUMPDEST PUSH1 0x40 DUP1 MLOAD SWAP6 DUP7 MSTORE PUSH1 0x20 DUP7 ADD SWAP5 SWAP1 SWAP5 MSTORE SWAP3 DUP5 ADD SWAP2 SWAP1 SWAP2 MSTORE PUSH1 0x60 DUP4 ADD MSTORE PUSH1 0x80 DUP3 ADD MSTORE PUSH1 0xA0 ADD PUSH2 0x21F JUMP JUMPDEST CALLVALUE DUP1 ISZERO PUSH2 0x626 JUMPI PUSH1 0x0 DUP1 REVERT JUMPDEST POP PUSH2 0x213 PUSH2 0x635 CALLDATASIZE PUSH1 0x4 PUSH2 0x1FD1 JUMP JUMPDEST PUSH2 0x1BC0 JUMP JUMPDEST CALLVALUE DUP1 ISZERO PUSH2 0x646 JUMPI PUSH1 0x0 DUP1 REVERT JUMPDEST POP PUSH2 0x294 PUSH2 0x655 CALLDATASIZE PUSH1 0x4 PUSH2 0x1EE6 JUMP JUMPDEST PUSH2 0x1C21 JUMP JUMPDEST CALLVALUE DUP1 ISZERO PUSH2 0x666 JUMPI PUSH1 0x0 DUP1 REVERT JUMPDEST POP PUSH2 0x294 PUSH2 0x1C9A JUMP JUMPDEST PUSH1 0x8 SLOAD PUSH1 0x0 SWAP1 DUP3 LT PUSH2 0x6BD JUMPI PUSH1 0x40 MLOAD PUSH3 0x461BCD PUSH1 0xE5 SHL DUP2 MSTORE PUSH1 0x20 PUSH1 0x4 DUP3 ADD MSTORE PUSH1 0x12 PUSH1 0x24 DUP3 ADD MSTORE PUSH18 0x92DCECC2D8D2C840C8EACAD840D2DCC8CAF PUSH1 0x73 SHL PUSH1 0x44 DUP3 ADD MSTORE PUSH1 0x64 ADD JUMPDEST PUSH1 0x40 MLOAD DUP1 SWAP2 SUB SWAP1 REVERT JUMPDEST PUSH1 0x0 PUSH1 0x8 DUP4 DUP2 SLOAD DUP2 LT PUSH2 0x6D2 JUMPI PUSH2 0x6D2 PUSH2 0x208F JUMP JUMPDEST SWAP1 PUSH1 0x0 MSTORE PUSH1 0x20 PUSH1 0x0 KECCAK256 SWAP1 PUSH1 0x5 MUL ADD SWAP1 POP PUSH1 0x0 DUP2 PUSH1 0x0 ADD SLOAD GT ISZERO PUSH2 0x724 JUMPI PUSH1 0x1 DUP2 ADD SLOAD PUSH1 0x1 PUSH1 0x1 PUSH1 0xA0 SHL SUB AND CALLER EQ DUP1 PUSH2 0x716 JUMPI POP PUSH1 0x2 DUP2 ADD SLOAD PUSH1 0x1 PUSH1 0x1 PUSH1 0xA0 SHL SUB AND CALLER EQ JUMPDEST ISZERO PUSH2 0x724 JUMPI POP PUSH1 0x1 SWAP3 SWAP2 POP POP JUMP JUMPDEST POP PUSH1 0x0 SWAP3 SWAP2 POP POP JUMP JUMPDEST PUSH2 0x735 PUSH2 0x1D9E JUMP JUMPDEST PUSH1 0x40 DUP1 MLOAD PUSH1 0x80 DUP2 ADD DUP3 MSTORE PUSH1 0x0 DUP1 DUP3 MSTORE PUSH1 0x20 DUP3 ADD DUP5 DUP2 MSTORE SWAP3 DUP3 ADD DUP2 SWAP1 MSTORE PUSH1 0x60 DUP3 ADD DUP2 SWAP1 MSTORE PUSH1 0x8 DUP1 SLOAD PUSH1 0x1 DUP2 ADD DUP3 SSTORE SWAP2 MSTORE DUP2 MLOAD PUSH1 0x5 SWAP1 SWAP2 MUL PUSH32 0xF3F7A9FE364FAAB93B216DA50A3214154F22A0A2B415B23A84C8169E8B636EE3 DUP2 ADD SWAP2 DUP3 SSTORE SWAP3 MLOAD SWAP2 SWAP3 SWAP1 SWAP2 PUSH2 0x7C5 SWAP2 PUSH32 0xF3F7A9FE364FAAB93B216DA50A3214154F22A0A2B415B23A84C8169E8B636EE4 ADD SWAP1 PUSH1 0x2 PUSH2 0x1DBC JUMP JUMPDEST POP PUSH1 0x40 DUP3 ADD MLOAD DUP2 PUSH1 0x3 ADD SSTORE PUSH1 0x60 DUP3 ADD MLOAD DUP2 PUSH1 0x4 ADD SSTORE POP POP POP JUMP JUMPDEST CALLER PUSH1 0x0 SWAP1 DUP2 MSTORE PUSH1 0x6 PUSH1 0x20 MSTORE PUSH1 0x40 SWAP1 KECCAK256 SLOAD DUP2 GT PUSH2 0x83D JUMPI PUSH1 0x40 MLOAD PUSH3 0x461BCD PUSH1 0xE5 SHL DUP2 MSTORE PUSH1 0x20 PUSH1 0x4 DUP3 ADD MSTORE PUSH1 0x1F PUSH1 0x24 DUP3 ADD MSTORE PUSH32 0x796F7527726520616C72656164792062656174656E207468697320626F737300 PUSH1 0x44 DUP3 ADD MSTORE PUSH1 0x64 ADD PUSH2 0x6B4 JUMP JUMPDEST PUSH1 0x0 DUP2 DUP2 MSTORE PUSH1 0x7 PUSH1 0x20 SWAP1 DUP2 MSTORE PUSH1 0x40 DUP1 DUP4 KECCAK256 SLOAD CALLER DUP5 MSTORE PUSH1 0x6 SWAP1 SWAP3 MSTORE SWAP1 SWAP2 KECCAK256 PUSH1 0x2 ADD SLOAD LT ISZERO PUSH2 0x8BF JUMPI PUSH1 0x40 MLOAD PUSH3 0x461BCD PUSH1 0xE5 SHL DUP2 MSTORE PUSH1 0x20 PUSH1 0x4 DUP3 ADD MSTORE PUSH1 0x2A PUSH1 0x24 DUP3 ADD MSTORE PUSH32 0x796F7520646F6E2774206861766520656E6F75676820656E6572677920666F72 PUSH1 0x44 DUP3 ADD MSTORE PUSH10 0x207468697320626F7373 PUSH1 0xB0 SHL PUSH1 0x64 DUP3 ADD MSTORE PUSH1 0x84 ADD PUSH2 0x6B4 JUMP JUMPDEST PUSH1 0x40 DUP1 MLOAD PUSH1 0x3 DUP1 DUP3 MSTORE PUSH1 0x80 DUP3 ADD SWAP1 SWAP3 MSTORE PUSH1 0x0 SWAP2 DUP3 SWAP2 SWAP1 PUSH1 0x20 DUP3 ADD PUSH1 0x60 DUP1 CALLDATASIZE DUP4 CALLDATACOPY ADD SWAP1 POP POP SWAP1 POP PUSH1 0x0 JUMPDEST PUSH1 0x2 DUP2 GT PUSH2 0x964 JUMPI CALLER PUSH1 0x0 SWAP1 DUP2 MSTORE PUSH1 0x6 PUSH1 0x20 MSTORE PUSH1 0x40 DUP2 KECCAK256 PUSH1 0x1 ADD SLOAD PUSH1 0x5 SLOAD PUSH2 0x910 PUSH1 0xA PUSH2 0x139B JUMP JUMPDEST PUSH2 0x91A SWAP2 SWAP1 PUSH2 0x20BB JUMP JUMPDEST PUSH2 0x924 SWAP2 SWAP1 PUSH2 0x20BB JUMP JUMPDEST SWAP1 POP DUP1 DUP4 DUP4 DUP2 MLOAD DUP2 LT PUSH2 0x939 JUMPI PUSH2 0x939 PUSH2 0x208F JUMP JUMPDEST PUSH1 0x20 SWAP1 DUP2 MUL SWAP2 SWAP1 SWAP2 ADD ADD MSTORE PUSH2 0x94E DUP2 DUP6 PUSH2 0x20D2 JUMP JUMPDEST SWAP4 POP POP DUP1 DUP1 PUSH2 0x95C SWAP1 PUSH2 0x20E5 JUMP JUMPDEST SWAP2 POP POP PUSH2 0x8E8 JUMP JUMPDEST POP PUSH1 0x0 DUP4 DUP2 MSTORE PUSH1 0x7 PUSH1 0x20 MSTORE PUSH1 0x40 DUP2 KECCAK256 DUP1 SLOAD DUP5 SWAP3 SWAP1 PUSH2 0x983 SWAP1 DUP5 SWAP1 PUSH2 0x20FE JUMP JUMPDEST SWAP1 SWAP2 SSTORE POP POP PUSH1 0x0 DUP4 DUP2 MSTORE PUSH1 0x7 PUSH1 0x20 MSTORE PUSH1 0x40 DUP2 KECCAK256 SLOAD SWAP1 SUB PUSH2 0x9EF JUMPI CALLER PUSH1 0x0 DUP2 DUP2 MSTORE PUSH1 0x6 PUSH1 0x20 MSTORE PUSH1 0x40 SWAP1 DUP2 SWAP1 KECCAK256 DUP6 SWAP1 SSTORE MLOAD DUP5 SWAP2 SWAP1 PUSH32 0x46475D55C3BC13C229507A0915F795FD03B23601512CC1AEAE9E0BF41A4075D8 SWAP1 PUSH2 0x9E2 SWAP1 DUP6 SWAP1 PUSH2 0x214C JUMP JUMPDEST PUSH1 0x40 MLOAD DUP1 SWAP2 SUB SWAP1 LOG3 POP POP POP JUMP JUMPDEST PUSH1 0x0 DUP4 DUP2 MSTORE PUSH1 0x7 PUSH1 0x20 MSTORE PUSH1 0x40 SWAP1 KECCAK256 PUSH1 0x2 ADD SLOAD PUSH2 0xA0C SWAP1 PUSH1 0x3 PUSH2 0x20BB JUMP JUMPDEST CALLER PUSH1 0x0 SWAP1 DUP2 MSTORE PUSH1 0x6 PUSH1 0x20 MSTORE PUSH1 0x40 DUP2 KECCAK256 PUSH1 0x2 ADD DUP1 SLOAD SWAP1 SWAP2 SWAP1 PUSH2 0xA2E SWAP1 DUP5 SWAP1 PUSH2 0x20FE JUMP JUMPDEST SWAP1 SWAP2 SSTORE POP POP POP POP POP JUMP JUMPDEST CALLER PUSH1 0x0 SWAP1 DUP2 MSTORE PUSH1 0x6 PUSH1 0x20 MSTORE PUSH1 0x40 DUP2 KECCAK256 DUP2 DUP2 SSTORE PUSH1 0x1 DUP1 DUP3 ADD SSTORE PUSH1 0x2 DUP2 ADD DUP3 SWAP1 SSTORE PUSH1 0x4 DUP2 ADD DUP3 SWAP1 SSTORE PUSH1 0x3 DUP2 ADD DUP4 SWAP1 SSTORE SWAP1 JUMPDEST DUP3 DUP2 LT ISZERO PUSH2 0xC13 JUMPI DUP2 PUSH1 0x5 ADD DUP5 DUP5 DUP4 DUP2 DUP2 LT PUSH2 0xA85 JUMPI PUSH2 0xA85 PUSH2 0x208F JUMP JUMPDEST DUP4 SLOAD PUSH1 0x1 DUP1 DUP3 ADD DUP7 SSTORE PUSH1 0x0 SWAP6 DUP7 MSTORE PUSH1 0x20 SWAP6 DUP7 SWAP1 KECCAK256 SWAP3 SWAP1 SWAP6 MUL SWAP4 SWAP1 SWAP4 ADD CALLDATALOAD SWAP3 ADD SWAP2 SWAP1 SWAP2 SSTORE POP SLOAD PUSH1 0x1 PUSH1 0x1 PUSH1 0xA0 SHL SUB AND PUSH4 0x2862BB25 DUP6 DUP6 DUP5 DUP2 DUP2 LT PUSH2 0xACA JUMPI PUSH2 0xACA PUSH2 0x208F JUMP JUMPDEST SWAP1 POP PUSH1 0x20 MUL ADD CALLDATALOAD PUSH1 0x40 MLOAD DUP3 PUSH4 0xFFFFFFFF AND PUSH1 0xE0 SHL DUP2 MSTORE PUSH1 0x4 ADD PUSH2 0xAEF SWAP2 DUP2 MSTORE PUSH1 0x20 ADD SWAP1 JUMP JUMPDEST PUSH1 0x20 PUSH1 0x40 MLOAD DUP1 DUP4 SUB DUP2 DUP7 GAS STATICCALL ISZERO DUP1 ISZERO PUSH2 0xB0C JUMPI RETURNDATASIZE PUSH1 0x0 DUP1 RETURNDATACOPY RETURNDATASIZE PUSH1 0x0 REVERT JUMPDEST POP POP POP POP PUSH1 0x40 MLOAD RETURNDATASIZE PUSH1 0x1F NOT PUSH1 0x1F DUP3 ADD AND DUP3 ADD DUP1 PUSH1 0x40 MSTORE POP DUP2 ADD SWAP1 PUSH2 0xB30 SWAP2 SWAP1 PUSH2 0x215F JUMP JUMPDEST ISZERO PUSH2 0xB7D JUMPI PUSH1 0x40 MLOAD PUSH3 0x461BCD PUSH1 0xE5 SHL DUP2 MSTORE PUSH1 0x20 PUSH1 0x4 DUP3 ADD MSTORE PUSH1 0x1A PUSH1 0x24 DUP3 ADD MSTORE PUSH32 0x5468697320746F6B656E20616C726561647920696E2067616D65000000000000 PUSH1 0x44 DUP3 ADD MSTORE PUSH1 0x64 ADD PUSH2 0x6B4 JUMP JUMPDEST PUSH1 0x1 SLOAD PUSH1 0x1 PUSH1 0x1 PUSH1 0xA0 SHL SUB AND PUSH4 0xFB4F8197 DUP6 DUP6 DUP5 DUP2 DUP2 LT PUSH2 0xBA0 JUMPI PUSH2 0xBA0 PUSH2 0x208F JUMP JUMPDEST PUSH1 0x40 MLOAD PUSH1 0x1 PUSH1 0x1 PUSH1 0xE0 SHL SUB NOT PUSH1 0xE0 DUP7 SWAP1 SHL AND DUP2 MSTORE PUSH1 0x20 SWAP1 SWAP2 MUL SWAP3 SWAP1 SWAP3 ADD CALLDATALOAD PUSH1 0x4 DUP4 ADD MSTORE POP PUSH1 0x1 PUSH1 0x24 DUP3 ADD MSTORE PUSH1 0x44 ADD PUSH1 0x0 PUSH1 0x40 MLOAD DUP1 DUP4 SUB DUP2 PUSH1 0x0 DUP8 DUP1 EXTCODESIZE ISZERO DUP1 ISZERO PUSH2 0xBE8 JUMPI PUSH1 0x0 DUP1 REVERT JUMPDEST POP GAS CALL ISZERO DUP1 ISZERO PUSH2 0xBFC JUMPI RETURNDATASIZE PUSH1 0x0 DUP1 RETURNDATACOPY RETURNDATASIZE PUSH1 0x0 REVERT JUMPDEST POP POP POP POP DUP1 DUP1 PUSH2 0xC0B SWAP1 PUSH2 0x20E5 JUMP JUMPDEST SWAP2 POP POP PUSH2 0xA67 JUMP JUMPDEST POP POP POP POP JUMP JUMPDEST PUSH1 0x0 PUSH1 0x64 PUSH2 0xC27 PUSH1 0x14 PUSH2 0x139B JUMP JUMPDEST PUSH2 0xC32 SWAP1 PUSH1 0x64 PUSH2 0x20D2 JUMP JUMPDEST PUSH2 0xC3C SWAP2 SWAP1 PUSH2 0x2197 JUMP JUMPDEST CALLER PUSH1 0x0 SWAP1 DUP2 MSTORE PUSH1 0x6 PUSH1 0x20 MSTORE PUSH1 0x40 SWAP1 KECCAK256 PUSH1 0x1 ADD SLOAD PUSH1 0x5 SLOAD PUSH2 0xC5C SWAP2 SWAP1 PUSH2 0x20BB JUMP JUMPDEST PUSH2 0xC66 SWAP2 SWAP1 PUSH2 0x20BB JUMP JUMPDEST SWAP1 POP SWAP1 JUMP JUMPDEST CALLER PUSH1 0x0 SWAP1 DUP2 MSTORE PUSH1 0x6 PUSH1 0x20 MSTORE PUSH1 0x40 SWAP1 KECCAK256 SLOAD DUP2 GT ISZERO PUSH2 0xC9A JUMPI PUSH1 0x40 MLOAD PUSH3 0x461BCD PUSH1 0xE5 SHL DUP2 MSTORE PUSH1 0x4 ADD PUSH2 0x6B4 SWAP1 PUSH2 0x21AB JUMP JUMPDEST CALLER PUSH1 0x0 SWAP1 DUP2 MSTORE PUSH1 0xC PUSH1 0x20 MSTORE PUSH1 0x40 SWAP1 KECCAK256 PUSH2 0xCB4 PUSH1 0x1 DUP4 PUSH2 0x20FE JUMP JUMPDEST PUSH1 0x5 DUP2 LT PUSH2 0xCC4 JUMPI PUSH2 0xCC4 PUSH2 0x208F JUMP JUMPDEST PUSH1 0x20 DUP2 DIV SWAP1 SWAP2 ADD SLOAD PUSH1 0xFF PUSH1 0x1F SWAP1 SWAP3 AND PUSH2 0x100 EXP SWAP1 DIV AND ISZERO PUSH2 0xD32 JUMPI PUSH1 0x40 MLOAD PUSH3 0x461BCD PUSH1 0xE5 SHL DUP2 MSTORE PUSH1 0x20 PUSH1 0x4 DUP3 ADD MSTORE PUSH1 0x22 PUSH1 0x24 DUP3 ADD MSTORE PUSH32 0x796F7527726520616C726561647920636C61696D656420746869732065666665 PUSH1 0x44 DUP3 ADD MSTORE PUSH2 0x18DD PUSH1 0xF2 SHL PUSH1 0x64 DUP3 ADD MSTORE PUSH1 0x84 ADD PUSH2 0x6B4 JUMP JUMPDEST PUSH1 0x0 PUSH2 0xD3E PUSH1 0xA PUSH2 0x139B JUMP JUMPDEST SWAP1 POP PUSH1 0x2 DUP2 GT PUSH2 0xD76 JUMPI CALLER PUSH1 0x0 SWAP1 DUP2 MSTORE PUSH1 0x6 PUSH1 0x20 MSTORE PUSH1 0x40 DUP2 KECCAK256 PUSH1 0x1 ADD DUP1 SLOAD PUSH1 0xA SWAP3 SWAP1 PUSH2 0xD6B SWAP1 DUP5 SWAP1 PUSH2 0x20D2 JUMP JUMPDEST SWAP1 SWAP2 SSTORE POP PUSH2 0xDEA SWAP1 POP JUMP JUMPDEST CALLER PUSH1 0x0 SWAP1 DUP2 MSTORE PUSH1 0x6 PUSH1 0x20 MSTORE PUSH1 0x40 DUP2 KECCAK256 PUSH1 0x1 ADD DUP1 SLOAD PUSH1 0xA SWAP3 SWAP1 PUSH2 0xD99 SWAP1 DUP5 SWAP1 PUSH2 0x20FE JUMP JUMPDEST SWAP1 SWAP2 SSTORE POP POP CALLER PUSH1 0x0 SWAP1 DUP2 MSTORE PUSH1 0xC PUSH1 0x20 MSTORE PUSH1 0x40 SWAP1 KECCAK256 PUSH1 0x1 SWAP1 PUSH2 0xDBA DUP3 DUP6 PUSH2 0x20FE JUMP JUMPDEST PUSH1 0x5 DUP2 LT PUSH2 0xDCA JUMPI PUSH2 0xDCA PUSH2 0x208F JUMP JUMPDEST PUSH1 0x20 SWAP2 DUP3 DUP3 DIV ADD SWAP2 SWAP1 MOD PUSH2 0x100 EXP DUP2 SLOAD DUP2 PUSH1 0xFF MUL NOT AND SWAP1 DUP4 ISZERO ISZERO MUL OR SWAP1 SSTORE POP JUMPDEST POP POP JUMP JUMPDEST PUSH2 0xE27 PUSH1 0x40 MLOAD DUP1 PUSH1 0xC0 ADD PUSH1 0x40 MSTORE DUP1 PUSH1 0x0 DUP2 MSTORE PUSH1 0x20 ADD PUSH1 0x0 DUP2 MSTORE PUSH1 0x20 ADD PUSH1 0x0 DUP2 MSTORE PUSH1 0x20 ADD PUSH1 0x0 DUP2 MSTORE PUSH1 0x20 ADD PUSH1 0x0 DUP2 MSTORE PUSH1 0x20 ADD PUSH1 0x60 DUP2 MSTORE POP SWAP1 JUMP JUMPDEST PUSH1 0x1 PUSH1 0x1 PUSH1 0xA0 SHL SUB DUP3 AND PUSH1 0x0 SWAP1 DUP2 MSTORE PUSH1 0x6 PUSH1 0x20 SWAP1 DUP2 MSTORE PUSH1 0x40 SWAP2 DUP3 SWAP1 KECCAK256 DUP3 MLOAD PUSH1 0xC0 DUP2 ADD DUP5 MSTORE DUP2 SLOAD DUP2 MSTORE PUSH1 0x1 DUP3 ADD SLOAD DUP2 DUP5 ADD MSTORE PUSH1 0x2 DUP3 ADD SLOAD DUP2 DUP6 ADD MSTORE PUSH1 0x3 DUP3 ADD SLOAD PUSH1 0x60 DUP3 ADD MSTORE PUSH1 0x4 DUP3 ADD SLOAD PUSH1 0x80 DUP3 ADD MSTORE PUSH1 0x5 DUP3 ADD DUP1 SLOAD DUP6 MLOAD DUP2 DUP7 MUL DUP2 ADD DUP7 ADD SWAP1 SWAP7 MSTORE DUP1 DUP7 MSTORE SWAP2 SWAP5 SWAP3 SWAP4 PUSH1 0xA0 DUP7 ADD SWAP4 SWAP3 SWAP1 DUP4 ADD DUP3 DUP3 DUP1 ISZERO PUSH2 0xEC4 JUMPI PUSH1 0x20 MUL DUP3 ADD SWAP2 SWAP1 PUSH1 0x0 MSTORE PUSH1 0x20 PUSH1 0x0 KECCAK256 SWAP1 JUMPDEST DUP2 SLOAD DUP2 MSTORE PUSH1 0x20 ADD SWAP1 PUSH1 0x1 ADD SWAP1 DUP1 DUP4 GT PUSH2 0xEB0 JUMPI JUMPDEST POP POP POP POP POP DUP2 MSTORE POP POP SWAP1 POP SWAP2 SWAP1 POP JUMP JUMPDEST PUSH1 0x0 PUSH1 0x8 PUSH2 0xEE0 PUSH2 0x1591 JUMP JUMPDEST DUP2 SLOAD DUP2 LT PUSH2 0xEF0 JUMPI PUSH2 0xEF0 PUSH2 0x208F JUMP JUMPDEST SWAP1 PUSH1 0x0 MSTORE PUSH1 0x20 PUSH1 0x0 KECCAK256 SWAP1 PUSH1 0x5 MUL ADD SWAP1 POP CALLER DUP2 PUSH1 0x1 ADD PUSH1 0x0 PUSH1 0x2 DUP2 LT PUSH2 0xF17 JUMPI PUSH2 0xF17 PUSH2 0x208F JUMP JUMPDEST ADD DUP1 SLOAD PUSH1 0x1 PUSH1 0x1 PUSH1 0xA0 SHL SUB NOT AND PUSH1 0x1 PUSH1 0x1 PUSH1 0xA0 SHL SUB SWAP3 DUP4 AND OR SWAP1 SSTORE PUSH1 0x2 SLOAD PUSH1 0x9 SLOAD PUSH1 0x40 MLOAD PUSH4 0x23B872DD PUSH1 0xE0 SHL DUP2 MSTORE CALLER PUSH1 0x4 DUP3 ADD MSTORE ADDRESS PUSH1 0x24 DUP3 ADD MSTORE PUSH1 0x44 DUP2 ADD SWAP2 SWAP1 SWAP2 MSTORE SWAP2 AND SWAP1 PUSH4 0x23B872DD SWAP1 PUSH1 0x64 ADD PUSH1 0x20 PUSH1 0x40 MLOAD DUP1 DUP4 SUB DUP2 PUSH1 0x0 DUP8 GAS CALL ISZERO DUP1 ISZERO PUSH2 0xF84 JUMPI RETURNDATASIZE PUSH1 0x0 DUP1 RETURNDATACOPY RETURNDATASIZE PUSH1 0x0 REVERT JUMPDEST POP POP POP POP PUSH1 0x40 MLOAD RETURNDATASIZE PUSH1 0x1F NOT PUSH1 0x1F DUP3 ADD AND DUP3 ADD DUP1 PUSH1 0x40 MSTORE POP DUP2 ADD SWAP1 PUSH2 0xFA8 SWAP2 SWAP1 PUSH2 0x215F JUMP JUMPDEST POP DUP1 SLOAD DUP2 PUSH1 0x0 PUSH2 0xFB7 DUP4 PUSH2 0x20E5 JUMP JUMPDEST SWAP2 SWAP1 POP SSTORE POP POP JUMP JUMPDEST PUSH1 0xC PUSH1 0x20 MSTORE DUP2 PUSH1 0x0 MSTORE PUSH1 0x40 PUSH1 0x0 KECCAK256 DUP2 PUSH1 0x5 DUP2 LT PUSH2 0xFDB JUMPI PUSH1 0x0 DUP1 REVERT JUMPDEST PUSH1 0x20 DUP2 DIV SWAP1 SWAP2 ADD SLOAD PUSH1 0xFF PUSH1 0x1F SWAP1 SWAP3 AND PUSH2 0x100 EXP SWAP1 DIV AND SWAP2 POP DUP3 SWAP1 POP JUMP JUMPDEST PUSH2 0x1000 PUSH2 0x1CF4 JUMP JUMPDEST PUSH2 0x100A PUSH1 0x0 PUSH2 0x1D4E JUMP JUMPDEST JUMP JUMPDEST PUSH1 0x8 DUP2 DUP2 SLOAD DUP2 LT PUSH2 0x101C JUMPI PUSH1 0x0 DUP1 REVERT JUMPDEST PUSH1 0x0 SWAP2 DUP3 MSTORE PUSH1 0x20 SWAP1 SWAP2 KECCAK256 PUSH1 0x5 SWAP1 SWAP2 MUL ADD DUP1 SLOAD PUSH1 0x3 DUP3 ADD SLOAD PUSH1 0x4 SWAP1 SWAP3 ADD SLOAD SWAP1 SWAP3 POP DUP4 JUMP JUMPDEST PUSH1 0x0 PUSH1 0x8 DUP3 DUP2 SLOAD DUP2 LT PUSH2 0x1054 JUMPI PUSH2 0x1054 PUSH2 0x208F JUMP JUMPDEST SWAP1 PUSH1 0x0 MSTORE PUSH1 0x20 PUSH1 0x0 KECCAK256 SWAP1 PUSH1 0x5 MUL ADD SWAP1 POP PUSH2 0x106D DUP3 PUSH2 0x66F JUMP JUMPDEST PUSH2 0x10AE JUMPI PUSH1 0x40 MLOAD PUSH3 0x461BCD PUSH1 0xE5 SHL DUP2 MSTORE PUSH1 0x20 PUSH1 0x4 DUP3 ADD MSTORE PUSH1 0x12 PUSH1 0x24 DUP3 ADD MSTORE PUSH18 0x796F75277265206E6F7420696E20726F6F6D PUSH1 0x70 SHL PUSH1 0x44 DUP3 ADD MSTORE PUSH1 0x64 ADD PUSH2 0x6B4 JUMP JUMPDEST PUSH1 0x40 DUP1 MLOAD PUSH1 0x3 DUP1 DUP3 MSTORE PUSH1 0x80 DUP3 ADD SWAP1 SWAP3 MSTORE PUSH1 0x0 SWAP2 PUSH1 0x20 DUP3 ADD PUSH1 0x60 DUP1 CALLDATASIZE DUP4 CALLDATACOPY ADD SWAP1 POP POP SWAP1 POP PUSH1 0x0 DUP1 JUMPDEST PUSH1 0x2 DUP2 GT PUSH2 0x1151 JUMPI CALLER PUSH1 0x0 SWAP1 DUP2 MSTORE PUSH1 0x6 PUSH1 0x20 MSTORE PUSH1 0x40 DUP2 KECCAK256 PUSH1 0x1 ADD SLOAD PUSH1 0x5 SLOAD PUSH2 0x10FD PUSH1 0xA PUSH2 0x139B JUMP JUMPDEST PUSH2 0x1107 SWAP2 SWAP1 PUSH2 0x20BB JUMP JUMPDEST PUSH2 0x1111 SWAP2 SWAP1 PUSH2 0x20BB JUMP JUMPDEST SWAP1 POP DUP1 DUP5 DUP4 DUP2 MLOAD DUP2 LT PUSH2 0x1126 JUMPI PUSH2 0x1126 PUSH2 0x208F JUMP JUMPDEST PUSH1 0x20 SWAP1 DUP2 MUL SWAP2 SWAP1 SWAP2 ADD ADD MSTORE PUSH2 0x113B DUP2 DUP5 PUSH2 0x20D2 JUMP JUMPDEST SWAP3 POP POP DUP1 DUP1 PUSH2 0x1149 SWAP1 PUSH2 0x20E5 JUMP JUMPDEST SWAP2 POP POP PUSH2 0x10D5 JUMP JUMPDEST POP CALLER PUSH1 0x1 DUP5 ADD PUSH1 0x0 ADD SLOAD PUSH1 0x1 PUSH1 0x1 PUSH1 0xA0 SHL SUB AND SUB PUSH2 0x11D9 JUMPI DUP1 DUP4 PUSH1 0x3 ADD PUSH1 0x0 DUP3 DUP3 SLOAD PUSH2 0x117D SWAP2 SWAP1 PUSH2 0x20D2 JUMP JUMPDEST SWAP1 SWAP2 SSTORE POP POP PUSH1 0x3 DUP4 ADD SLOAD ISZERO PUSH2 0x11D4 JUMPI PUSH1 0x40 MLOAD PUSH3 0x461BCD PUSH1 0xE5 SHL DUP2 MSTORE PUSH1 0x20 PUSH1 0x4 DUP3 ADD MSTORE PUSH1 0x1F PUSH1 0x24 DUP3 ADD MSTORE PUSH32 0x796F7527726520616C72656164792061747461636B656420696E206475656C00 PUSH1 0x44 DUP3 ADD MSTORE PUSH1 0x64 ADD PUSH2 0x6B4 JUMP JUMPDEST PUSH2 0x1244 JUMP JUMPDEST DUP1 DUP4 PUSH1 0x4 ADD PUSH1 0x0 DUP3 DUP3 SLOAD PUSH2 0x11ED SWAP2 SWAP1 PUSH2 0x20D2 JUMP JUMPDEST SWAP1 SWAP2 SSTORE POP POP PUSH1 0x3 DUP4 ADD SLOAD ISZERO PUSH2 0x1244 JUMPI PUSH1 0x40 MLOAD PUSH3 0x461BCD PUSH1 0xE5 SHL DUP2 MSTORE PUSH1 0x20 PUSH1 0x4 DUP3 ADD MSTORE PUSH1 0x1F PUSH1 0x24 DUP3 ADD MSTORE PUSH32 0x796F7527726520616C72656164792061747461636B656420696E206475656C00 PUSH1 0x44 DUP3 ADD MSTORE PUSH1 0x64 ADD PUSH2 0x6B4 JUMP JUMPDEST CALLER PUSH1 0x1 PUSH1 0x1 PUSH1 0xA0 SHL SUB AND PUSH32 0xF2BA4445FBD3AF142B7A1251DF18B6D462B23687B1BC8799A1C3EDDB4FF0826 DUP6 DUP5 PUSH1 0x40 MLOAD PUSH2 0x127F SWAP3 SWAP2 SWAP1 PUSH2 0x21EE JUMP JUMPDEST PUSH1 0x40 MLOAD DUP1 SWAP2 SUB SWAP1 LOG2 POP POP POP POP JUMP JUMPDEST PUSH1 0x0 JUMPDEST CALLER PUSH1 0x0 SWAP1 DUP2 MSTORE PUSH1 0x6 PUSH1 0x20 MSTORE PUSH1 0x40 SWAP1 KECCAK256 PUSH1 0x5 ADD SLOAD DUP2 LT ISZERO PUSH2 0x135E JUMPI PUSH1 0x1 SLOAD CALLER PUSH1 0x0 SWAP1 DUP2 MSTORE PUSH1 0x6 PUSH1 0x20 MSTORE PUSH1 0x40 SWAP1 KECCAK256 PUSH1 0x5 ADD DUP1 SLOAD PUSH1 0x1 PUSH1 0x1 PUSH1 0xA0 SHL SUB SWAP1 SWAP3 AND SWAP2 PUSH4 0xFB4F8197 SWAP2 SWAP1 DUP5 SWAP1 DUP2 LT PUSH2 0x12E4 JUMPI PUSH2 0x12E4 PUSH2 0x208F JUMP JUMPDEST SWAP1 PUSH1 0x0 MSTORE PUSH1 0x20 PUSH1 0x0 KECCAK256 ADD SLOAD PUSH1 0x0 PUSH1 0x40 MLOAD DUP4 PUSH4 0xFFFFFFFF AND PUSH1 0xE0 SHL DUP2 MSTORE PUSH1 0x4 ADD PUSH2 0x1319 SWAP3 SWAP2 SWAP1 SWAP2 DUP3 MSTORE ISZERO ISZERO PUSH1 0x20 DUP3 ADD MSTORE PUSH1 0x40 ADD SWAP1 JUMP JUMPDEST PUSH1 0x0 PUSH1 0x40 MLOAD DUP1 DUP4 SUB DUP2 PUSH1 0x0 DUP8 DUP1 EXTCODESIZE ISZERO DUP1 ISZERO PUSH2 0x1333 JUMPI PUSH1 0x0 DUP1 REVERT JUMPDEST POP GAS CALL ISZERO DUP1 ISZERO PUSH2 0x1347 JUMPI RETURNDATASIZE PUSH1 0x0 DUP1 RETURNDATACOPY RETURNDATASIZE PUSH1 0x0 REVERT JUMPDEST POP POP POP POP DUP1 DUP1 PUSH2 0x1356 SWAP1 PUSH2 0x20E5 JUMP JUMPDEST SWAP2 POP POP PUSH2 0x1290 JUMP JUMPDEST POP CALLER PUSH1 0x0 SWAP1 DUP2 MSTORE PUSH1 0x6 PUSH1 0x20 MSTORE PUSH1 0x40 DUP2 KECCAK256 DUP2 DUP2 SSTORE PUSH1 0x1 DUP2 ADD DUP3 SWAP1 SSTORE PUSH1 0x2 DUP2 ADD DUP3 SWAP1 SSTORE PUSH1 0x3 DUP2 ADD DUP3 SWAP1 SSTORE PUSH1 0x4 DUP2 ADD DUP3 SWAP1 SSTORE SWAP1 PUSH2 0xDEA PUSH1 0x5 DUP4 ADD DUP3 PUSH2 0x1E14 JUMP JUMPDEST PUSH1 0x0 DUP2 TIMESTAMP DIFFICULTY PUSH2 0x13AB PUSH1 0x1 NUMBER PUSH2 0x20FE JUMP JUMPDEST PUSH1 0x40 DUP1 MLOAD PUSH1 0x20 DUP2 ADD SWAP5 SWAP1 SWAP5 MSTORE DUP4 ADD SWAP2 SWAP1 SWAP2 MSTORE BLOCKHASH PUSH1 0x60 DUP1 DUP4 ADD SWAP2 SWAP1 SWAP2 MSTORE CALLER SWAP1 SHL PUSH12 0xFFFFFFFFFFFFFFFFFFFFFFFF NOT AND PUSH1 0x80 DUP3 ADD MSTORE PUSH1 0x94 ADD PUSH1 0x40 MLOAD PUSH1 0x20 DUP2 DUP4 SUB SUB DUP2 MSTORE SWAP1 PUSH1 0x40 MSTORE DUP1 MLOAD SWAP1 PUSH1 0x20 ADD KECCAK256 PUSH1 0x0 SHR PUSH2 0x1404 SWAP2 SWAP1 PUSH2 0x220F JUMP JUMPDEST SWAP3 SWAP2 POP POP JUMP JUMPDEST PUSH1 0x0 DUP1 JUMPDEST DUP3 MLOAD DUP2 LT ISZERO PUSH2 0x14D0 JUMPI PUSH1 0x1 SLOAD DUP4 MLOAD ORIGIN SWAP2 PUSH1 0x1 PUSH1 0x1 PUSH1 0xA0 SHL SUB AND SWAP1 PUSH4 0x6352211E SWAP1 DUP7 SWAP1 DUP6 SWAP1 DUP2 LT PUSH2 0x1440 JUMPI PUSH2 0x1440 PUSH2 0x208F JUMP JUMPDEST PUSH1 0x20 MUL PUSH1 0x20 ADD ADD MLOAD PUSH1 0x40 MLOAD DUP3 PUSH4 0xFFFFFFFF AND PUSH1 0xE0 SHL DUP2 MSTORE PUSH1 0x4 ADD PUSH2 0x1466 SWAP2 DUP2 MSTORE PUSH1 0x20 ADD SWAP1 JUMP JUMPDEST PUSH1 0x20 PUSH1 0x40 MLOAD DUP1 DUP4 SUB DUP2 DUP7 GAS STATICCALL ISZERO DUP1 ISZERO PUSH2 0x1483 JUMPI RETURNDATASIZE PUSH1 0x0 DUP1 RETURNDATACOPY RETURNDATASIZE PUSH1 0x0 REVERT JUMPDEST POP POP POP POP PUSH1 0x40 MLOAD RETURNDATASIZE PUSH1 0x1F NOT PUSH1 0x1F DUP3 ADD AND DUP3 ADD DUP1 PUSH1 0x40 MSTORE POP DUP2 ADD SWAP1 PUSH2 0x14A7 SWAP2 SWAP1 PUSH2 0x2223 JUMP JUMPDEST PUSH1 0x1 PUSH1 0x1 PUSH1 0xA0 SHL SUB AND EQ PUSH2 0x14BE JUMPI POP PUSH1 0x0 SWAP3 SWAP2 POP POP JUMP JUMPDEST DUP1 PUSH2 0x14C8 DUP2 PUSH2 0x20E5 JUMP JUMPDEST SWAP2 POP POP PUSH2 0x140E JUMP JUMPDEST POP PUSH1 0x1 SWAP3 SWAP2 POP POP JUMP JUMPDEST PUSH1 0x0 PUSH1 0x4 SLOAD DUP3 PUSH2 0x14E9 SWAP2 SWAP1 PUSH2 0x20BB JUMP JUMPDEST PUSH1 0x2 SLOAD PUSH1 0x40 MLOAD PUSH4 0x23B872DD PUSH1 0xE0 SHL DUP2 MSTORE CALLER PUSH1 0x4 DUP3 ADD MSTORE ADDRESS PUSH1 0x24 DUP3 ADD MSTORE PUSH1 0x44 DUP2 ADD DUP4 SWAP1 MSTORE SWAP2 SWAP3 POP PUSH1 0x1 PUSH1 0x1 PUSH1 0xA0 SHL SUB AND SWAP1 PUSH4 0x23B872DD SWAP1 PUSH1 0x64 ADD PUSH1 0x20 PUSH1 0x40 MLOAD DUP1 DUP4 SUB DUP2 PUSH1 0x0 DUP8 GAS CALL ISZERO DUP1 ISZERO PUSH2 0x1541 JUMPI RETURNDATASIZE PUSH1 0x0 DUP1 RETURNDATACOPY RETURNDATASIZE PUSH1 0x0 REVERT JUMPDEST POP POP POP POP PUSH1 0x40 MLOAD RETURNDATASIZE PUSH1 0x1F NOT PUSH1 0x1F DUP3 ADD AND DUP3 ADD DUP1 PUSH1 0x40 MSTORE POP DUP2 ADD SWAP1 PUSH2 0x1565 SWAP2 SWAP1 PUSH2 0x215F JUMP JUMPDEST POP CALLER PUSH1 0x0 SWAP1 DUP2 MSTORE PUSH1 0x6 PUSH1 0x20 MSTORE PUSH1 0x40 DUP2 KECCAK256 PUSH1 0x2 ADD DUP1 SLOAD DUP5 SWAP3 SWAP1 PUSH2 0x1588 SWAP1 DUP5 SWAP1 PUSH2 0x20D2 JUMP JUMPDEST SWAP1 SWAP2 SSTORE POP POP POP POP JUMP JUMPDEST PUSH1 0x0 DUP1 JUMPDEST PUSH1 0x8 SLOAD DUP2 LT ISZERO PUSH2 0x15E2 JUMPI PUSH1 0x8 DUP2 DUP2 SLOAD DUP2 LT PUSH2 0x15B2 JUMPI PUSH2 0x15B2 PUSH2 0x208F JUMP JUMPDEST SWAP1 PUSH1 0x0 MSTORE PUSH1 0x20 PUSH1 0x0 KECCAK256 SWAP1 PUSH1 0x5 MUL ADD PUSH1 0x0 ADD SLOAD PUSH1 0x2 EQ PUSH2 0x15D0 JUMPI SWAP2 SWAP1 POP JUMP JUMPDEST DUP1 PUSH2 0x15DA DUP2 PUSH2 0x20E5 JUMP JUMPDEST SWAP2 POP POP PUSH2 0x1595 JUMP JUMPDEST POP PUSH1 0x40 MLOAD PUSH3 0x461BCD PUSH1 0xE5 SHL DUP2 MSTORE PUSH1 0x20 PUSH1 0x4 DUP3 ADD MSTORE PUSH1 0x22 PUSH1 0x24 DUP3 ADD MSTORE PUSH32 0x636F756C64206E6F742066696E6420617661696C61626C65206475656C20726F PUSH1 0x44 DUP3 ADD MSTORE PUSH2 0x6F6D PUSH1 0xF0 SHL PUSH1 0x64 DUP3 ADD MSTORE PUSH1 0x84 ADD PUSH2 0x6B4 JUMP JUMPDEST CALLER PUSH1 0x0 SWAP1 DUP2 MSTORE PUSH1 0x6 PUSH1 0x20 MSTORE PUSH1 0x40 SWAP1 KECCAK256 SLOAD PUSH1 0x3 EQ PUSH2 0x1695 JUMPI PUSH1 0x40 MLOAD PUSH3 0x461BCD PUSH1 0xE5 SHL DUP2 MSTORE PUSH1 0x20 PUSH1 0x4 DUP3 ADD MSTORE PUSH1 0x1D PUSH1 0x24 DUP3 ADD MSTORE PUSH32 0x796F75206861766520746F2064656665617420616C6C20626F73736573000000 PUSH1 0x44 DUP3 ADD MSTORE PUSH1 0x64 ADD PUSH2 0x6B4 JUMP JUMPDEST PUSH2 0x169E DUP2 PUSH2 0x140A JUMP JUMPDEST PUSH2 0x16F5 JUMPI PUSH1 0x40 MLOAD PUSH3 0x461BCD PUSH1 0xE5 SHL DUP2 MSTORE PUSH1 0x20 PUSH1 0x4 DUP3 ADD MSTORE PUSH1 0x22 PUSH1 0x24 DUP3 ADD MSTORE PUSH32 0x796F75277265206E6F74206F776E6572206F6620746865736520746F6B656E49 PUSH1 0x44 DUP3 ADD MSTORE PUSH2 0x6473 PUSH1 0xF0 SHL PUSH1 0x64 DUP3 ADD MSTORE PUSH1 0x84 ADD PUSH2 0x6B4 JUMP JUMPDEST PUSH2 0x16FE DUP2 PUSH2 0x1BC0 JUMP JUMPDEST ISZERO PUSH2 0x1741 JUMPI PUSH1 0x40 MLOAD PUSH3 0x461BCD PUSH1 0xE5 SHL DUP2 MSTORE PUSH1 0x20 PUSH1 0x4 DUP3 ADD MSTORE PUSH1 0x13 PUSH1 0x24 DUP3 ADD MSTORE PUSH19 0x1D1BDAD95B9CC81DD95C994818DB185A5B5959 PUSH1 0x6A SHL PUSH1 0x44 DUP3 ADD MSTORE PUSH1 0x64 ADD PUSH2 0x6B4 JUMP JUMPDEST PUSH1 0x0 DUP1 JUMPDEST DUP3 MLOAD DUP2 LT ISZERO PUSH2 0x1932 JUMPI PUSH1 0x1 PUSH1 0xB PUSH1 0x0 DUP6 DUP5 DUP2 MLOAD DUP2 LT PUSH2 0x1766 JUMPI PUSH2 0x1766 PUSH2 0x208F JUMP JUMPDEST PUSH1 0x20 MUL PUSH1 0x20 ADD ADD MLOAD DUP2 MSTORE PUSH1 0x20 ADD SWAP1 DUP2 MSTORE PUSH1 0x20 ADD PUSH1 0x0 KECCAK256 PUSH1 0x0 PUSH2 0x100 EXP DUP2 SLOAD DUP2 PUSH1 0xFF MUL NOT AND SWAP1 DUP4 ISZERO ISZERO MUL OR SWAP1 SSTORE POP PUSH1 0x0 PUSH2 0x179F PUSH1 0xA PUSH2 0x139B JUMP JUMPDEST SWAP1 POP PUSH1 0x2 DUP2 GT PUSH2 0x18A1 JUMPI PUSH1 0x1 SLOAD PUSH1 0x40 DUP1 MLOAD PUSH4 0xA9113247 PUSH1 0xE0 SHL DUP2 MSTORE SWAP1 MLOAD PUSH1 0x64 SWAP3 PUSH1 0x1 PUSH1 0x1 PUSH1 0xA0 SHL SUB AND SWAP2 PUSH4 0xA9113247 SWAP2 PUSH1 0x4 DUP1 DUP4 ADD SWAP3 PUSH1 0x20 SWAP3 SWAP2 SWAP1 DUP3 SWAP1 SUB ADD DUP2 DUP7 GAS STATICCALL ISZERO DUP1 ISZERO PUSH2 0x17F3 JUMPI RETURNDATASIZE PUSH1 0x0 DUP1 RETURNDATACOPY RETURNDATASIZE PUSH1 0x0 REVERT JUMPDEST POP POP POP POP PUSH1 0x40 MLOAD RETURNDATASIZE PUSH1 0x1F NOT PUSH1 0x1F DUP3 ADD AND DUP3 ADD DUP1 PUSH1 0x40 MSTORE POP DUP2 ADD SWAP1 PUSH2 0x1817 SWAP2 SWAP1 PUSH2 0x2240 JUMP JUMPDEST PUSH2 0x1822 SWAP1 PUSH1 0x14 PUSH2 0x20BB JUMP JUMPDEST PUSH2 0x182C SWAP2 SWAP1 PUSH2 0x2197 JUMP JUMPDEST PUSH2 0x1836 SWAP1 DUP5 PUSH2 0x20D2 JUMP JUMPDEST PUSH1 0x1 DUP1 SLOAD PUSH1 0x40 MLOAD PUSH4 0x4261CADD PUSH1 0xE1 SHL DUP2 MSTORE SWAP3 SWAP6 POP PUSH1 0x1 PUSH1 0x1 PUSH1 0xA0 SHL SUB AND SWAP2 PUSH4 0x84C395BA SWAP2 PUSH2 0x186A SWAP2 PUSH1 0x4 ADD SWAP1 DUP2 MSTORE PUSH1 0x20 ADD SWAP1 JUMP JUMPDEST PUSH1 0x0 PUSH1 0x40 MLOAD DUP1 DUP4 SUB DUP2 PUSH1 0x0 DUP8 DUP1 EXTCODESIZE ISZERO DUP1 ISZERO PUSH2 0x1884 JUMPI PUSH1 0x0 DUP1 REVERT JUMPDEST POP GAS CALL ISZERO DUP1 ISZERO PUSH2 0x1898 JUMPI RETURNDATASIZE PUSH1 0x0 DUP1 RETURNDATACOPY RETURNDATASIZE PUSH1 0x0 REVERT JUMPDEST POP POP POP POP PUSH2 0x191F JUMP JUMPDEST PUSH1 0x2 SLOAD PUSH1 0x40 MLOAD PUSH4 0x23B872DD PUSH1 0xE0 SHL DUP2 MSTORE ADDRESS PUSH1 0x4 DUP3 ADD MSTORE CALLER PUSH1 0x24 DUP3 ADD MSTORE PUSH2 0x2710 PUSH1 0x44 DUP3 ADD MSTORE PUSH1 0x1 PUSH1 0x1 PUSH1 0xA0 SHL SUB SWAP1 SWAP2 AND SWAP1 PUSH4 0x23B872DD SWAP1 PUSH1 0x64 ADD PUSH1 0x20 PUSH1 0x40 MLOAD DUP1 DUP4 SUB DUP2 PUSH1 0x0 DUP8 GAS CALL ISZERO DUP1 ISZERO PUSH2 0x18F9 JUMPI RETURNDATASIZE PUSH1 0x0 DUP1 RETURNDATACOPY RETURNDATASIZE PUSH1 0x0 REVERT JUMPDEST POP POP POP POP PUSH1 0x40 MLOAD RETURNDATASIZE PUSH1 0x1F NOT PUSH1 0x1F DUP3 ADD AND DUP3 ADD DUP1 PUSH1 0x40 MSTORE POP DUP2 ADD SWAP1 PUSH2 0x191D SWAP2 SWAP1 PUSH2 0x215F JUMP JUMPDEST POP JUMPDEST POP DUP1 PUSH2 0x192A DUP2 PUSH2 0x20E5 JUMP JUMPDEST SWAP2 POP POP PUSH2 0x1745 JUMP JUMPDEST POP DUP1 CALLVALUE LT ISZERO PUSH2 0xDEA JUMPI PUSH1 0x40 MLOAD PUSH3 0x461BCD PUSH1 0xE5 SHL DUP2 MSTORE PUSH1 0x20 PUSH1 0x4 DUP3 ADD MSTORE PUSH1 0x12 PUSH1 0x24 DUP3 ADD MSTORE PUSH18 0x696E73756666696369656E742066756E6473 PUSH1 0x70 SHL PUSH1 0x44 DUP3 ADD MSTORE PUSH1 0x64 ADD PUSH2 0x6B4 JUMP JUMPDEST CALLER PUSH1 0x0 SWAP1 DUP2 MSTORE PUSH1 0x6 PUSH1 0x20 MSTORE PUSH1 0x40 SWAP1 KECCAK256 PUSH1 0x4 ADD SLOAD PUSH2 0x1998 SWAP1 PUSH3 0x15180 PUSH2 0x20D2 JUMP JUMPDEST TIMESTAMP LT ISZERO PUSH2 0x19D3 JUMPI PUSH1 0x40 MLOAD PUSH3 0x461BCD PUSH1 0xE5 SHL DUP2 MSTORE PUSH1 0x20 PUSH1 0x4 DUP3 ADD MSTORE PUSH1 0x9 PUSH1 0x24 DUP3 ADD MSTORE PUSH9 0x3A393C903630BA32B9 PUSH1 0xB9 SHL PUSH1 0x44 DUP3 ADD MSTORE PUSH1 0x64 ADD PUSH2 0x6B4 JUMP JUMPDEST CALLER PUSH1 0x0 SWAP1 DUP2 MSTORE PUSH1 0x6 PUSH1 0x20 MSTORE PUSH1 0x40 SWAP1 KECCAK256 TIMESTAMP PUSH1 0x4 DUP3 ADD SSTORE PUSH1 0x1 ADD SLOAD PUSH1 0x3 SLOAD PUSH2 0x19F9 SWAP2 SWAP1 PUSH2 0x20BB JUMP JUMPDEST CALLER PUSH1 0x0 SWAP1 DUP2 MSTORE PUSH1 0x6 PUSH1 0x20 MSTORE PUSH1 0x40 DUP2 KECCAK256 PUSH1 0x2 ADD DUP1 SLOAD SWAP1 SWAP2 SWAP1 PUSH2 0x1A1B SWAP1 DUP5 SWAP1 PUSH2 0x20D2 JUMP JUMPDEST SWAP1 SWAP2 SSTORE POP POP JUMP JUMPDEST CALLER PUSH1 0x0 SWAP1 DUP2 MSTORE PUSH1 0x6 PUSH1 0x20 MSTORE PUSH1 0x40 SWAP1 KECCAK256 SLOAD DUP2 GT ISZERO PUSH2 0x1A51 JUMPI PUSH1 0x40 MLOAD PUSH3 0x461BCD PUSH1 0xE5 SHL DUP2 MSTORE PUSH1 0x4 ADD PUSH2 0x6B4 SWAP1 PUSH2 0x21AB JUMP JUMPDEST CALLER PUSH1 0x0 SWAP1 DUP2 MSTORE PUSH1 0xC PUSH1 0x20 MSTORE PUSH1 0x40 SWAP1 KECCAK256 PUSH2 0x1A6B PUSH1 0x1 DUP4 PUSH2 0x20FE JUMP JUMPDEST PUSH1 0x5 DUP2 LT PUSH2 0x1A7B JUMPI PUSH2 0x1A7B PUSH2 0x208F JUMP JUMPDEST PUSH1 0x20 DUP2 DIV SWAP1 SWAP2 ADD SLOAD PUSH1 0xFF PUSH1 0x1F SWAP1 SWAP3 AND PUSH2 0x100 EXP SWAP1 DIV AND ISZERO PUSH2 0x1AE8 JUMPI PUSH1 0x40 MLOAD PUSH3 0x461BCD PUSH1 0xE5 SHL DUP2 MSTORE PUSH1 0x20 PUSH1 0x4 DUP3 ADD MSTORE PUSH1 0x21 PUSH1 0x24 DUP3 ADD MSTORE PUSH32 0x796F7527726520616C726561647920636C61696D6564207468697320626F6E75 PUSH1 0x44 DUP3 ADD MSTORE PUSH1 0x73 PUSH1 0xF8 SHL PUSH1 0x64 DUP3 ADD MSTORE PUSH1 0x84 ADD PUSH2 0x6B4 JUMP JUMPDEST PUSH1 0x0 PUSH2 0x1AF4 PUSH1 0xA PUSH2 0x139B JUMP JUMPDEST SWAP1 POP PUSH1 0x2 DUP2 GT PUSH2 0x1B2C JUMPI CALLER PUSH1 0x0 SWAP1 DUP2 MSTORE PUSH1 0x6 PUSH1 0x20 MSTORE PUSH1 0x40 DUP2 KECCAK256 PUSH1 0x1 ADD DUP1 SLOAD PUSH1 0xA SWAP3 SWAP1 PUSH2 0x1B21 SWAP1 DUP5 SWAP1 PUSH2 0x20D2 JUMP JUMPDEST SWAP1 SWAP2 SSTORE POP PUSH2 0x1B50 SWAP1 POP JUMP JUMPDEST CALLER PUSH1 0x0 SWAP1 DUP2 MSTORE PUSH1 0x6 PUSH1 0x20 MSTORE PUSH1 0x40 DUP2 KECCAK256 PUSH1 0x2 ADD DUP1 SLOAD PUSH2 0x3E8 SWAP3 SWAP1 PUSH2 0xD99 SWAP1 DUP5 SWAP1 PUSH2 0x20D2 JUMP JUMPDEST CALLER PUSH1 0x0 SWAP1 DUP2 MSTORE PUSH1 0xC PUSH1 0x20 MSTORE PUSH1 0x40 SWAP1 KECCAK256 PUSH1 0x1 SWAP1 PUSH2 0xDBA DUP3 DUP6 PUSH2 0x20FE JUMP JUMPDEST PUSH1 0x0 DUP1 PUSH1 0x8 PUSH2 0x1B79 PUSH2 0x1591 JUMP JUMPDEST DUP2 SLOAD DUP2 LT PUSH2 0x1B89 JUMPI PUSH2 0x1B89 PUSH2 0x208F JUMP JUMPDEST SWAP1 PUSH1 0x0 MSTORE PUSH1 0x20 PUSH1 0x0 KECCAK256 SWAP1 PUSH1 0x5 MUL ADD SWAP1 POP PUSH1 0x0 DUP2 PUSH1 0x4 ADD SLOAD DUP3 PUSH1 0x3 ADD SLOAD GT ISZERO PUSH2 0x1BB3 JUMPI POP PUSH1 0x0 PUSH2 0x1BB7 JUMP JUMPDEST POP PUSH1 0x1 JUMPDEST PUSH1 0x1 SWAP3 POP POP POP SWAP1 JUMP JUMPDEST PUSH1 0x0 DUP1 JUMPDEST DUP3 MLOAD DUP2 LT ISZERO PUSH2 0x724 JUMPI PUSH1 0xB PUSH1 0x0 DUP5 DUP4 DUP2 MLOAD DUP2 LT PUSH2 0x1BE3 JUMPI PUSH2 0x1BE3 PUSH2 0x208F JUMP JUMPDEST PUSH1 0x20 SWAP1 DUP2 MUL SWAP2 SWAP1 SWAP2 ADD DUP2 ADD MLOAD DUP3 MSTORE DUP2 ADD SWAP2 SWAP1 SWAP2 MSTORE PUSH1 0x40 ADD PUSH1 0x0 KECCAK256 SLOAD PUSH1 0xFF AND ISZERO PUSH2 0x1C0F JUMPI POP PUSH1 0x1 SWAP3 SWAP2 POP POP JUMP JUMPDEST DUP1 PUSH2 0x1C19 DUP2 PUSH2 0x20E5 JUMP JUMPDEST SWAP2 POP POP PUSH2 0x1BC4 JUMP JUMPDEST PUSH2 0x1C29 PUSH2 0x1CF4 JUMP JUMPDEST PUSH1 0x1 PUSH1 0x1 PUSH1 0xA0 SHL SUB DUP2 AND PUSH2 0x1C8E JUMPI PUSH1 0x40 MLOAD PUSH3 0x461BCD PUSH1 0xE5 SHL DUP2 MSTORE PUSH1 0x20 PUSH1 0x4 DUP3 ADD MSTORE PUSH1 0x26 PUSH1 0x24 DUP3 ADD MSTORE PUSH32 0x4F776E61626C653A206E6577206F776E657220697320746865207A65726F2061 PUSH1 0x44 DUP3 ADD MSTORE PUSH6 0x646472657373 PUSH1 0xD0 SHL PUSH1 0x64 DUP3 ADD MSTORE PUSH1 0x84 ADD PUSH2 0x6B4 JUMP JUMPDEST PUSH2 0x1C97 DUP2 PUSH2 0x1D4E JUMP JUMPDEST POP JUMP JUMPDEST PUSH1 0x1 DUP1 SLOAD PUSH1 0x40 MLOAD PUSH4 0x4261CADD PUSH1 0xE1 SHL DUP2 MSTORE PUSH1 0x4 DUP2 ADD SWAP3 SWAP1 SWAP3 MSTORE PUSH1 0x1 PUSH1 0x1 PUSH1 0xA0 SHL SUB AND SWAP1 PUSH4 0x84C395BA SWAP1 PUSH1 0x24 ADD PUSH1 0x0 PUSH1 0x40 MLOAD DUP1 DUP4 SUB DUP2 PUSH1 0x0 DUP8 DUP1 EXTCODESIZE ISZERO DUP1 ISZERO PUSH2 0x1CE0 JUMPI PUSH1 0x0 DUP1 REVERT JUMPDEST POP GAS CALL ISZERO DUP1 ISZERO PUSH2 0xC13 JUMPI RETURNDATASIZE PUSH1 0x0 DUP1 RETURNDATACOPY RETURNDATASIZE PUSH1 0x0 REVERT JUMPDEST PUSH1 0x0 SLOAD PUSH1 0x1 PUSH1 0x1 PUSH1 0xA0 SHL SUB AND CALLER EQ PUSH2 0x100A JUMPI PUSH1 0x40 MLOAD PUSH3 0x461BCD PUSH1 0xE5 SHL DUP2 MSTORE PUSH1 0x20 PUSH1 0x4 DUP3 ADD DUP2 SWAP1 MSTORE PUSH1 0x24 DUP3 ADD MSTORE PUSH32 0x4F776E61626C653A2063616C6C6572206973206E6F7420746865206F776E6572 PUSH1 0x44 DUP3 ADD MSTORE PUSH1 0x64 ADD PUSH2 0x6B4 JUMP JUMPDEST PUSH1 0x0 DUP1 SLOAD PUSH1 0x1 PUSH1 0x1 PUSH1 0xA0 SHL SUB DUP4 DUP2 AND PUSH1 0x1 PUSH1 0x1 PUSH1 0xA0 SHL SUB NOT DUP4 AND DUP2 OR DUP5 SSTORE PUSH1 0x40 MLOAD SWAP2 SWAP1 SWAP3 AND SWAP3 DUP4 SWAP2 PUSH32 0x8BE0079C531659141344CD1FD0A4F28419497F9722A3DAAFE3B4186F6B6457E0 SWAP2 SWAP1 LOG3 POP POP JUMP JUMPDEST PUSH1 0x40 MLOAD DUP1 PUSH1 0x40 ADD PUSH1 0x40 MSTORE DUP1 PUSH1 0x2 SWAP1 PUSH1 0x20 DUP3 MUL DUP1 CALLDATASIZE DUP4 CALLDATACOPY POP SWAP2 SWAP3 SWAP2 POP POP JUMP JUMPDEST DUP3 PUSH1 0x2 DUP2 ADD SWAP3 DUP3 ISZERO PUSH2 0x1E04 JUMPI SWAP2 PUSH1 0x20 MUL DUP3 ADD JUMPDEST DUP3 DUP2 GT ISZERO PUSH2 0x1E04 JUMPI DUP3 MLOAD DUP3 SLOAD PUSH1 0x1 PUSH1 0x1 PUSH1 0xA0 SHL SUB NOT AND PUSH1 0x1 PUSH1 0x1 PUSH1 0xA0 SHL SUB SWAP1 SWAP2 AND OR DUP3 SSTORE PUSH1 0x20 SWAP1 SWAP3 ADD SWAP2 PUSH1 0x1 SWAP1 SWAP2 ADD SWAP1 PUSH2 0x1DCF JUMP JUMPDEST POP PUSH2 0x1E10 SWAP3 SWAP2 POP PUSH2 0x1E2E JUMP JUMPDEST POP SWAP1 JUMP JUMPDEST POP DUP1 SLOAD PUSH1 0x0 DUP3 SSTORE SWAP1 PUSH1 0x0 MSTORE PUSH1 0x20 PUSH1 0x0 KECCAK256 SWAP1 DUP2 ADD SWAP1 PUSH2 0x1C97 SWAP2 SWAP1 JUMPDEST JUMPDEST DUP1 DUP3 GT ISZERO PUSH2 0x1E10 JUMPI PUSH1 0x0 DUP2 SSTORE PUSH1 0x1 ADD PUSH2 0x1E2F JUMP JUMPDEST PUSH1 0x0 PUSH1 0x20 DUP3 DUP5 SUB SLT ISZERO PUSH2 0x1E55 JUMPI PUSH1 0x0 DUP1 REVERT JUMPDEST POP CALLDATALOAD SWAP2 SWAP1 POP JUMP JUMPDEST PUSH1 0x0 DUP1 PUSH1 0x20 DUP4 DUP6 SUB SLT ISZERO PUSH2 0x1E6F JUMPI PUSH1 0x0 DUP1 REVERT JUMPDEST DUP3 CALLDATALOAD PUSH8 0xFFFFFFFFFFFFFFFF DUP1 DUP3 GT ISZERO PUSH2 0x1E87 JUMPI PUSH1 0x0 DUP1 REVERT JUMPDEST DUP2 DUP6 ADD SWAP2 POP DUP6 PUSH1 0x1F DUP4 ADD SLT PUSH2 0x1E9B JUMPI PUSH1 0x0 DUP1 REVERT JUMPDEST DUP2 CALLDATALOAD DUP2 DUP2 GT ISZERO PUSH2 0x1EAA JUMPI PUSH1 0x0 DUP1 REVERT JUMPDEST DUP7 PUSH1 0x20 DUP3 PUSH1 0x5 SHL DUP6 ADD ADD GT ISZERO PUSH2 0x1EBF JUMPI PUSH1 0x0 DUP1 REVERT JUMPDEST PUSH1 0x20 SWAP3 SWAP1 SWAP3 ADD SWAP7 SWAP2 SWAP6 POP SWAP1 SWAP4 POP POP POP POP JUMP JUMPDEST PUSH1 0x1 PUSH1 0x1 PUSH1 0xA0 SHL SUB DUP2 AND DUP2 EQ PUSH2 0x1C97 JUMPI PUSH1 0x0 DUP1 REVERT JUMPDEST PUSH1 0x0 PUSH1 0x20 DUP3 DUP5 SUB SLT ISZERO PUSH2 0x1EF8 JUMPI PUSH1 0x0 DUP1 REVERT JUMPDEST DUP2 CALLDATALOAD PUSH2 0x1F03 DUP2 PUSH2 0x1ED1 JUMP JUMPDEST SWAP4 SWAP3 POP POP POP JUMP JUMPDEST PUSH1 0x0 PUSH1 0x20 DUP1 DUP4 MSTORE PUSH1 0xE0 DUP4 ADD DUP5 MLOAD DUP3 DUP6 ADD MSTORE DUP2 DUP6 ADD MLOAD PUSH1 0x40 DUP6 ADD MSTORE PUSH1 0x40 DUP6 ADD MLOAD PUSH1 0x60 DUP6 ADD MSTORE PUSH1 0x60 DUP6 ADD MLOAD PUSH1 0x80 DUP6 ADD MSTORE PUSH1 0x80 DUP6 ADD MLOAD PUSH1 0xA0 DUP6 ADD MSTORE PUSH1 0xA0 DUP6 ADD MLOAD PUSH1 0xC0 DUP1 DUP7 ADD MSTORE DUP2 DUP2 MLOAD DUP1 DUP5 MSTORE PUSH2 0x100 DUP8 ADD SWAP2 POP DUP5 DUP4 ADD SWAP4 POP PUSH1 0x0 SWAP3 POP JUMPDEST DUP1 DUP4 LT ISZERO PUSH2 0x1F84 JUMPI DUP4 MLOAD DUP3 MSTORE SWAP3 DUP5 ADD SWAP3 PUSH1 0x1 SWAP3 SWAP1 SWAP3 ADD SWAP2 SWAP1 DUP5 ADD SWAP1 PUSH2 0x1F64 JUMP JUMPDEST POP SWAP7 SWAP6 POP POP POP POP POP POP JUMP JUMPDEST PUSH1 0x0 DUP1 PUSH1 0x40 DUP4 DUP6 SUB SLT ISZERO PUSH2 0x1FA2 JUMPI PUSH1 0x0 DUP1 REVERT JUMPDEST DUP3 CALLDATALOAD PUSH2 0x1FAD DUP2 PUSH2 0x1ED1 JUMP JUMPDEST SWAP5 PUSH1 0x20 SWAP4 SWAP1 SWAP4 ADD CALLDATALOAD SWAP4 POP POP POP JUMP JUMPDEST PUSH4 0x4E487B71 PUSH1 0xE0 SHL PUSH1 0x0 MSTORE PUSH1 0x41 PUSH1 0x4 MSTORE PUSH1 0x24 PUSH1 0x0 REVERT JUMPDEST PUSH1 0x0 PUSH1 0x20 DUP1 DUP4 DUP6 SUB SLT ISZERO PUSH2 0x1FE4 JUMPI PUSH1 0x0 DUP1 REVERT JUMPDEST DUP3 CALLDATALOAD PUSH8 0xFFFFFFFFFFFFFFFF DUP1 DUP3 GT ISZERO PUSH2 0x1FFC JUMPI PUSH1 0x0 DUP1 REVERT JUMPDEST DUP2 DUP6 ADD SWAP2 POP DUP6 PUSH1 0x1F DUP4 ADD SLT PUSH2 0x2010 JUMPI PUSH1 0x0 DUP1 REVERT JUMPDEST DUP2 CALLDATALOAD DUP2 DUP2 GT ISZERO PUSH2 0x2022 JUMPI PUSH2 0x2022 PUSH2 0x1FBB JUMP JUMPDEST DUP1 PUSH1 0x5 SHL PUSH1 0x40 MLOAD PUSH1 0x1F NOT PUSH1 0x3F DUP4 ADD AND DUP2 ADD DUP2 DUP2 LT DUP6 DUP3 GT OR ISZERO PUSH2 0x2047 JUMPI PUSH2 0x2047 PUSH2 0x1FBB JUMP JUMPDEST PUSH1 0x40 MSTORE SWAP2 DUP3 MSTORE DUP5 DUP3 ADD SWAP3 POP DUP4 DUP2 ADD DUP6 ADD SWAP2 DUP9 DUP4 GT ISZERO PUSH2 0x2065 JUMPI PUSH1 0x0 DUP1 REVERT JUMPDEST SWAP4 DUP6 ADD SWAP4 JUMPDEST DUP3 DUP6 LT ISZERO PUSH2 0x2083 JUMPI DUP5 CALLDATALOAD DUP5 MSTORE SWAP4 DUP6 ADD SWAP4 SWAP3 DUP6 ADD SWAP3 PUSH2 0x206A JUMP JUMPDEST SWAP9 SWAP8 POP POP POP POP POP POP POP POP JUMP JUMPDEST PUSH4 0x4E487B71 PUSH1 0xE0 SHL PUSH1 0x0 MSTORE PUSH1 0x32 PUSH1 0x4 MSTORE PUSH1 0x24 PUSH1 0x0 REVERT JUMPDEST PUSH4 0x4E487B71 PUSH1 0xE0 SHL PUSH1 0x0 MSTORE PUSH1 0x11 PUSH1 0x4 MSTORE PUSH1 0x24 PUSH1 0x0 REVERT JUMPDEST DUP1 DUP3 MUL DUP2 ISZERO DUP3 DUP3 DIV DUP5 EQ OR PUSH2 0x1404 JUMPI PUSH2 0x1404 PUSH2 0x20A5 JUMP JUMPDEST DUP1 DUP3 ADD DUP1 DUP3 GT ISZERO PUSH2 0x1404 JUMPI PUSH2 0x1404 PUSH2 0x20A5 JUMP JUMPDEST PUSH1 0x0 PUSH1 0x1 DUP3 ADD PUSH2 0x20F7 JUMPI PUSH2 0x20F7 PUSH2 0x20A5 JUMP JUMPDEST POP PUSH1 0x1 ADD SWAP1 JUMP JUMPDEST DUP2 DUP2 SUB DUP2 DUP2 GT ISZERO PUSH2 0x1404 JUMPI PUSH2 0x1404 PUSH2 0x20A5 JUMP JUMPDEST PUSH1 0x0 DUP2 MLOAD DUP1 DUP5 MSTORE PUSH1 0x20 DUP1 DUP6 ADD SWAP5 POP DUP1 DUP5 ADD PUSH1 0x0 JUMPDEST DUP4 DUP2 LT ISZERO PUSH2 0x2141 JUMPI DUP2 MLOAD DUP8 MSTORE SWAP6 DUP3 ADD SWAP6 SWAP1 DUP3 ADD SWAP1 PUSH1 0x1 ADD PUSH2 0x2125 JUMP JUMPDEST POP SWAP5 SWAP6 SWAP5 POP POP POP POP POP JUMP JUMPDEST PUSH1 0x20 DUP2 MSTORE PUSH1 0x0 PUSH2 0x1F03 PUSH1 0x20 DUP4 ADD DUP5 PUSH2 0x2111 JUMP JUMPDEST PUSH1 0x0 PUSH1 0x20 DUP3 DUP5 SUB SLT ISZERO PUSH2 0x2171 JUMPI PUSH1 0x0 DUP1 REVERT JUMPDEST DUP2 MLOAD DUP1 ISZERO ISZERO DUP2 EQ PUSH2 0x1F03 JUMPI PUSH1 0x0 DUP1 REVERT JUMPDEST PUSH4 0x4E487B71 PUSH1 0xE0 SHL PUSH1 0x0 MSTORE PUSH1 0x12 PUSH1 0x4 MSTORE PUSH1 0x24 PUSH1 0x0 REVERT JUMPDEST PUSH1 0x0 DUP3 PUSH2 0x21A6 JUMPI PUSH2 0x21A6 PUSH2 0x2181 JUMP JUMPDEST POP DIV SWAP1 JUMP JUMPDEST PUSH1 0x20 DUP1 DUP3 MSTORE PUSH1 0x23 SWAP1 DUP3 ADD MSTORE PUSH32 0x6265666F726520796F75206E6565642062656174206E65636573736172792062 PUSH1 0x40 DUP3 ADD MSTORE PUSH3 0x6F7373 PUSH1 0xE8 SHL PUSH1 0x60 DUP3 ADD MSTORE PUSH1 0x80 ADD SWAP1 JUMP JUMPDEST DUP3 DUP2 MSTORE PUSH1 0x40 PUSH1 0x20 DUP3 ADD MSTORE PUSH1 0x0 PUSH2 0x2207 PUSH1 0x40 DUP4 ADD DUP5 PUSH2 0x2111 JUMP JUMPDEST SWAP5 SWAP4 POP POP POP POP JUMP JUMPDEST PUSH1 0x0 DUP3 PUSH2 0x221E JUMPI PUSH2 0x221E PUSH2 0x2181 JUMP JUMPDEST POP MOD SWAP1 JUMP JUMPDEST PUSH1 0x0 PUSH1 0x20 DUP3 DUP5 SUB SLT ISZERO PUSH2 0x2235 JUMPI PUSH1 0x0 DUP1 REVERT JUMPDEST DUP2 MLOAD PUSH2 0x1F03 DUP2 PUSH2 0x1ED1 JUMP JUMPDEST PUSH1 0x0 PUSH1 0x20 DUP3 DUP5 SUB SLT ISZERO PUSH2 0x2252 JUMPI PUSH1 0x0 DUP1 REVERT JUMPDEST POP MLOAD SWAP2 SWAP1 POP JUMP INVALID LOG2 PUSH5 0x6970667358 0x22 SLT KECCAK256 OR POP DUP2 0x5F BLOCKHASH CODECOPY PUSH7 0x4330196E2D4A64 DUP7 0xBE JUMPI SAR 0xBD RETURNDATACOPY 0x25 MSTORE8 CREATE2 SDIV EXP PUSH25 0x3CE06CD2DEBC64736F6C634300081100330000000000000000 "
				},
				"gasEstimates": {
					"creation": {
						"codeDepositCost": "1769400",
						"executionCost": "infinite",
						"totalCost": "infinite"
					},
					"external": {
						"RiseClaimMap(address,uint256)": "4345",
						"bosses(uint256)": "6782",
						"buyEnergyForTokens(uint256)": "infinite",
						"calculateTestDamage()": "infinite",
						"checkOwnershipOfTokenIds(uint256[])": "547",
						"checkOwnershipOfTokens(uint256[])": "infinite",
						"claimBonus(uint256)": "infinite",
						"claimDailyEnergy()": "infinite",
						"claimDuel()": "infinite",
						"claimMysticEffect(uint256)": "infinite",
						"createNewDuelRoom()": "infinite",
						"doAttackInDuel(uint256)": "infinite",
						"duelPrice()": "2406",
						"duels(uint256)": "8904",
						"enterInDuel()": "infinite",
						"enterInGame(uint256[])": "infinite",
						"fightWithBoss(uint256)": "infinite",
						"findAvailableDuel()": "infinite",
						"getFinalTreasures(uint256[])": "infinite",
						"getInfoPlayer(address)": "infinite",
						"isPlayerInDuelAtIndexRoom(uint256)": "11097",
						"isTokenIdClaimed(uint256)": "2528",
						"isTokensClaimedTreasures(uint256[])": "infinite",
						"leaveGame()": "infinite",
						"owner()": "2369",
						"players(address)": "11123",
						"random(uint256)": "infinite",
						"renounceOwnership()": "infinite",
						"setDefEnergyAccrual(uint256)": "22380",
						"setDefaultDamage(uint256)": "22425",
						"setEnergyPriceInTokens(uint256)": "22379",
						"testMintDirectFromGame()": "infinite",
						"transferOwnership(address)": "infinite"
					},
					"internal": {
						"createBoss()": "infinite"
					}
				},
				"methodIdentifiers": {
					"RiseClaimMap(address,uint256)": "6b7c7264",
					"bosses(uint256)": "204597e0",
					"buyEnergyForTokens(uint256)": "c178d83d",
					"calculateTestDamage()": "2f15911d",
					"checkOwnershipOfTokenIds(uint256[])": "7aded47e",
					"checkOwnershipOfTokens(uint256[])": "bece83e4",
					"claimBonus(uint256)": "d9193025",
					"claimDailyEnergy()": "c9ec3950",
					"claimDuel()": "dd6ffd37",
					"claimMysticEffect(uint256)": "39850c6b",
					"createNewDuelRoom()": "224d54b3",
					"doAttackInDuel(uint256)": "b0cd0d56",
					"duelPrice()": "83948115",
					"duels(uint256)": "859a62d0",
					"enterInDuel()": "6893f296",
					"enterInGame(uint256[])": "2b56c1dd",
					"fightWithBoss(uint256)": "2aa04a66",
					"findAvailableDuel()": "c54b9c78",
					"getFinalTreasures(uint256[])": "c724cfd3",
					"getInfoPlayer(address)": "45d9d0be",
					"isPlayerInDuelAtIndexRoom(uint256)": "127226cc",
					"isTokenIdClaimed(uint256)": "d175810d",
					"isTokensClaimedTreasures(uint256[])": "e6f4cab2",
					"leaveGame()": "b1501f9c",
					"owner()": "8da5cb5b",
					"players(address)": "e2eb41ff",
					"random(uint256)": "b863bd37",
					"renounceOwnership()": "715018a6",
					"setDefEnergyAccrual(uint256)": "5d1b3d76",
					"setDefaultDamage(uint256)": "271c52ba",
					"setEnergyPriceInTokens(uint256)": "7a742b2d",
					"testMintDirectFromGame()": "fcefb2b6",
					"transferOwnership(address)": "f2fde38b"
				}
			},
			"storageLayout": {
				"storage": [
					{
						"astId": 7,
						"contract": "contracts/LP.sol:LP",
						"label": "_owner",
						"offset": 0,
						"slot": "0",
						"type": "t_address"
					},
					{
						"astId": 281,
						"contract": "contracts/LP.sol:LP",
						"label": "Collection",
						"offset": 0,
						"slot": "1",
						"type": "t_contract(IWomanSeekersNewDawn)271"
					},
					{
						"astId": 284,
						"contract": "contracts/LP.sol:LP",
						"label": "LPToken",
						"offset": 0,
						"slot": "2",
						"type": "t_contract(IERC20)212"
					},
					{
						"astId": 287,
						"contract": "contracts/LP.sol:LP",
						"label": "defEnergyAccrual",
						"offset": 0,
						"slot": "3",
						"type": "t_uint256"
					},
					{
						"astId": 290,
						"contract": "contracts/LP.sol:LP",
						"label": "energyPriceInTokens",
						"offset": 0,
						"slot": "4",
						"type": "t_uint256"
					},
					{
						"astId": 293,
						"contract": "contracts/LP.sol:LP",
						"label": "defaultDamage",
						"offset": 0,
						"slot": "5",
						"type": "t_uint256"
					},
					{
						"astId": 298,
						"contract": "contracts/LP.sol:LP",
						"label": "players",
						"offset": 0,
						"slot": "6",
						"type": "t_mapping(t_address,t_struct(Player)317_storage)"
					},
					{
						"astId": 303,
						"contract": "contracts/LP.sol:LP",
						"label": "bosses",
						"offset": 0,
						"slot": "7",
						"type": "t_mapping(t_uint256,t_struct(bossSpecs)337_storage)"
					},
					{
						"astId": 352,
						"contract": "contracts/LP.sol:LP",
						"label": "duels",
						"offset": 0,
						"slot": "8",
						"type": "t_array(t_struct(duelInfo)348_storage)dyn_storage"
					},
					{
						"astId": 661,
						"contract": "contracts/LP.sol:LP",
						"label": "duelPrice",
						"offset": 0,
						"slot": "9",
						"type": "t_uint256"
					},
					{
						"astId": 770,
						"contract": "contracts/LP.sol:LP",
						"label": "bosscounter",
						"offset": 0,
						"slot": "10",
						"type": "t_uint256"
					},
					{
						"astId": 1244,
						"contract": "contracts/LP.sol:LP",
						"label": "isTokenIdClaimed",
						"offset": 0,
						"slot": "11",
						"type": "t_mapping(t_uint256,t_bool)"
					},
					{
						"astId": 1399,
						"contract": "contracts/LP.sol:LP",
						"label": "RiseClaimMap",
						"offset": 0,
						"slot": "12",
						"type": "t_mapping(t_address,t_array(t_bool)5_storage)"
					}
				],
				"types": {
					"t_address": {
						"encoding": "inplace",
						"label": "address",
						"numberOfBytes": "20"
					},
					"t_array(t_address)2_storage": {
						"base": "t_address",
						"encoding": "inplace",
						"label": "address[2]",
						"numberOfBytes": "64"
					},
					"t_array(t_bool)5_storage": {
						"base": "t_bool",
						"encoding": "inplace",
						"label": "bool[5]",
						"numberOfBytes": "32"
					},
					"t_array(t_struct(duelInfo)348_storage)dyn_storage": {
						"base": "t_struct(duelInfo)348_storage",
						"encoding": "dynamic_array",
						"label": "struct LP.duelInfo[]",
						"numberOfBytes": "32"
					},
					"t_array(t_uint256)dyn_storage": {
						"base": "t_uint256",
						"encoding": "dynamic_array",
						"label": "uint256[]",
						"numberOfBytes": "32"
					},
					"t_bool": {
						"encoding": "inplace",
						"label": "bool",
						"numberOfBytes": "1"
					},
					"t_contract(IERC20)212": {
						"encoding": "inplace",
						"label": "contract IERC20",
						"numberOfBytes": "20"
					},
					"t_contract(IWomanSeekersNewDawn)271": {
						"encoding": "inplace",
						"label": "contract IWomanSeekersNewDawn",
						"numberOfBytes": "20"
					},
					"t_mapping(t_address,t_array(t_bool)5_storage)": {
						"encoding": "mapping",
						"key": "t_address",
						"label": "mapping(address => bool[5])",
						"numberOfBytes": "32",
						"value": "t_array(t_bool)5_storage"
					},
					"t_mapping(t_address,t_struct(Player)317_storage)": {
						"encoding": "mapping",
						"key": "t_address",
						"label": "mapping(address => struct LP.Player)",
						"numberOfBytes": "32",
						"value": "t_struct(Player)317_storage"
					},
					"t_mapping(t_uint256,t_bool)": {
						"encoding": "mapping",
						"key": "t_uint256",
						"label": "mapping(uint256 => bool)",
						"numberOfBytes": "32",
						"value": "t_bool"
					},
					"t_mapping(t_uint256,t_struct(bossSpecs)337_storage)": {
						"encoding": "mapping",
						"key": "t_uint256",
						"label": "mapping(uint256 => struct LP.bossSpecs)",
						"numberOfBytes": "32",
						"value": "t_struct(bossSpecs)337_storage"
					},
					"t_struct(Player)317_storage": {
						"encoding": "inplace",
						"label": "struct LP.Player",
						"members": [
							{
								"astId": 305,
								"contract": "contracts/LP.sol:LP",
								"label": "qtyBossDefeated",
								"offset": 0,
								"slot": "0",
								"type": "t_uint256"
							},
							{
								"astId": 307,
								"contract": "contracts/LP.sol:LP",
								"label": "energyFactor",
								"offset": 0,
								"slot": "1",
								"type": "t_uint256"
							},
							{
								"astId": 309,
								"contract": "contracts/LP.sol:LP",
								"label": "energyBalance",
								"offset": 0,
								"slot": "2",
								"type": "t_uint256"
							},
							{
								"astId": 311,
								"contract": "contracts/LP.sol:LP",
								"label": "amountTokensInGame",
								"offset": 0,
								"slot": "3",
								"type": "t_uint256"
							},
							{
								"astId": 313,
								"contract": "contracts/LP.sol:LP",
								"label": "lastTimestampClaimedEnergy",
								"offset": 0,
								"slot": "4",
								"type": "t_uint256"
							},
							{
								"astId": 316,
								"contract": "contracts/LP.sol:LP",
								"label": "playingTokenIds",
								"offset": 0,
								"slot": "5",
								"type": "t_array(t_uint256)dyn_storage"
							}
						],
						"numberOfBytes": "192"
					},
					"t_struct(bossSpecs)337_storage": {
						"encoding": "inplace",
						"label": "struct LP.bossSpecs",
						"members": [
							{
								"astId": 332,
								"contract": "contracts/LP.sol:LP",
								"label": "health",
								"offset": 0,
								"slot": "0",
								"type": "t_uint256"
							},
							{
								"astId": 334,
								"contract": "contracts/LP.sol:LP",
								"label": "dodgeChance",
								"offset": 0,
								"slot": "1",
								"type": "t_uint256"
							},
							{
								"astId": 336,
								"contract": "contracts/LP.sol:LP",
								"label": "attackDamage",
								"offset": 0,
								"slot": "2",
								"type": "t_uint256"
							}
						],
						"numberOfBytes": "96"
					},
					"t_struct(duelInfo)348_storage": {
						"encoding": "inplace",
						"label": "struct LP.duelInfo",
						"members": [
							{
								"astId": 339,
								"contract": "contracts/LP.sol:LP",
								"label": "playersNow",
								"offset": 0,
								"slot": "0",
								"type": "t_uint256"
							},
							{
								"astId": 343,
								"contract": "contracts/LP.sol:LP",
								"label": "players",
								"offset": 0,
								"slot": "1",
								"type": "t_array(t_address)2_storage"
							},
							{
								"astId": 345,
								"contract": "contracts/LP.sol:LP",
								"label": "totalDamagePlayer0",
								"offset": 0,
								"slot": "3",
								"type": "t_uint256"
							},
							{
								"astId": 347,
								"contract": "contracts/LP.sol:LP",
								"label": "totalDamagePlayer1",
								"offset": 0,
								"slot": "4",
								"type": "t_uint256"
							}
						],
						"numberOfBytes": "160"
					},
					"t_uint256": {
						"encoding": "inplace",
						"label": "uint256",
						"numberOfBytes": "32"
					}
				}
			},
			"userdoc": {
				"kind": "user",
				"methods": {},
				"version": 1
			}
		}
	}
}